:020000040800F2
:1000000050080020F101000869400008D7330008BB
:100010006D3E0008F5030008734F00080000000063
:100020000000000000000000000000003143000854
:10003000550700080000000051410008694500080C
:100040000B0200080B0200080B0200080B0200085C
:100050000B0200080B0200080B0200080B0200084C
:100060000B0200080B0200080B0200080B0200083C
:100070000B0200080B0200080B0200080B0200082C
:100080000B02000800000000290300080B02000812
:100090000B0200080B0200080B0200080B0200080C
:1000A0000B020008E54500080B0200080B020008DF
:1000B0000B0200080B0200080B0200080B020008EC
:1000C0000B0200080B0200080B0200080B020008DC
:1000D0000B0200080B0200080B0200080B020008CC
:1000E0000B0200080B0200080B0200080B020008BC
:1000F0000B0200080B0200080B02000800000000C1
:10010000000000000B020008000000000B020008C5
:100110000B020008000000000B0200080B020008A0
:100120000B0200080B0200080B0200080B0200087B
:100130000B02000800000000000000000B02000895
:100140000B0200080B020008000000000000000085
:10015000000000000000000000000000000000009F
:100160000000000000000000000000000B0200087A
:100170000B0200080000000000000000000000006A
:10018000000000000B02000800000000000000005A
:10019000000000000000000000000000000000005F
:1001A00000000000000000000B0200080B02000825
:1001B0000B0200080B0200080B0200080000000000
:1001C000000000000B02000800000000000000001A
:1001D0000B0200080B020008DFF810D000F092F8C4
:1001E0000048004799510008AFF3008050080020F4
:1001F0000648804706480047FEE7FEE7FEE7FEE7C1
:10020000FEE7FEE7FEE7FEE7FEE7FEE7D54500086E
:10021000D90100082DE9F05F0546002092469B4673
:1002200088460646814640241BE02846414647460C
:10023000224600F057F853465A46C01A914110D34F
:1002400011461846224600F03EF82D1A67EB0108C9
:100250004F4622460120002100F035F817EB000937
:100260004E41201EA4F10104DFDC484631462A46F7
:100270004346BDE8F09FD2B201E000F8012B491ED1
:10028000FBD270470022F6E710B513460A46044633
:100290001946FFF7F0FF204610BD30B50B4601466A
:1002A00000202022012409E021FA02F59D4205D315
:1002B00003FA02F5491B04FA02F52844151EA2F1BF
:1002C0000102F1DC30BD202A04DB203A00FA02F101
:1002D000002070479140C2F1200320FA03F3194334
:1002E00090407047202A04DB203A21FA02F00021D6
:1002F000704721FA02F3D040C2F120029140084336
:1003000019467047064C074D06E0E06840F00103CF
:1003100094E8070098471034AC42F6D3FFF760FF2B
:10032000E48C0008048D0008014800F0BBBF000009
:1003300024000020F8B5044600200090206803F057
:10034000CFFAE8BB20688168214A11422ED181682A
:10035000D6433140491C81601E48806800F0E0703F
:1003600000020DD51C481D490068B0FBF1F0401C8F
:1003700000EB4000800000E0401E00900028FBD110
:1003800001F014FB05461CE003F0AAFA20B920682E
:1003900081683140491C816001F008FB401B022844
:1003A0000FD920680068C043C0070AD0E06D40F054
:1003B0001000E065206E40F0010020660120F8BDCD
:1003C00004E020680168C943C907DDD10020F6E7D1
:1003D0003F000080000300500C000020400D03008F
:1003E00003688B4201DD194600E00160914200DBA9
:1003F00002607047FEE74288002192B1B2F5806F3B
:1004000015D242698168114481608269C1681144D2
:10041000C16002694168114441604188491C4180C2
:10042000704741708160C16041604180E9E7826846
:1004300092128260C2689212C2604268921200EE0A
:10044000102A4260D0ED0C0AB8EEC00A20EE200A55
:1004500080ED0A0A418001214170704790ED040A45
:10046000F7EE000AD0ED0C1AB8EEC01AB0EE600A32
:1004700001EE210A80ED090A90ED0A1A30EE410AD8
:1004800030EE600A80ED0B0A704702788168002A1E
:10049000426801D18A1A4260038AD21A43785A43C9
:1004A00092FBF1F301FB1322C260002A01DA11442E
:1004B000C1607047826841698A1A90F900104A4306
:1004C00000EE102AF8EEC00A90ED0D0A60EE800AE8
:1004D000C0ED070AC3688269D21A4A4300EE902A27
:1004E000F8EEE00A20EE800A80ED080A704700006E
:1004F00037B514460D4640F6FF7200216846FFF7F7
:100500006FFF9DED000AF5EE000A374AB8EEC00A0B
:1005100020EE200ABDEEC00A10EE100A009010F482
:10052000407109D0B1F5807F14D0B1F5007F30D093
:10053000B1F5407F1ED142E0C0B232F8100000EEAB
:10054000100AB8EE400A85ED000A0098C0B2C0F16A
:10055000FF0042E0C0B2C0F1FF0032F8100000EE30
:10056000100AB8EE400A85ED000A0098C0B21EE0FD
:1005700084ED000AD5ED000A9FED1C0A60EE800AAA
:10058000C5ED000AD4ED000A20EE800A84ED000AD1
:100590003EBDC0B232F81000404200EE100AB8EE84
:1005A000C00A85ED000A0098C0B2C0F1FF0032F821
:1005B0001000404200EE100AB8EEC00AD8E7C0B200
:1005C000C0F1FF0032F81000404200EE100AB8EE11
:1005D000C00A85ED000A0098C0B232F8100000EEA3
:1005E000100AB8EE400AC3E7E48A000840DAFF3791
:1005F00010B504462DED048BD0ED0E0AF5EEC00AC1
:10060000F1EE10FA08D8002024F8400F6080A08096
:10061000E080BDEC048B10BD94ED0C1A303481EEFB
:10062000200AB7EE001AFFEE000A00F083F8D4EDBE
:10063000010A94ED021AB0EE408A80EE810AB7EE0C
:10064000001AFFEE000A00F075F8A089B0EE401A1B
:1006500000EE100AE189F6EE000AB8EE400A01EE5B
:10066000901AF8EE611A20EE200A61EEA00AF0EE70
:10067000401AB0EE409AF0EE408A01EE600A48EE71
:10068000201A08EE609A41EE208A9FED288AF0EE4B
:10069000409A00EE100AF0EE480AB8EE401AB0EEAA
:1006A000610A00F047F8BCEEC00AF0EE480A10EE0E
:1006B000100A2082A08900EE100AB8EE401AB0EEAF
:1006C000490A00F037F8BCEEC00AF0EE480A10EE16
:1006D000100A6082A08900EE100AB8EE401AB0EE4F
:1006E000680A00F027F8BCEEC00AF0EE480A10EEE7
:1006F000100AA082A08900EE100AB8EE401AB0EEEF
:10070000690A00F017F8BCEEC00A10EE100AE08289
:100710000748218A026851630268618A916302680E
:10072000A18AD1630068E18A016472E700000000D9
:10073000F4000020B4EEE00AF1EE10FA02D2B0EEBE
:10074000600A7047B4EEC10AF1EE10FAF9DDB0EEBE
:10075000410A7047704772B6FEE7000010B54FF4CB
:10076000FA7001F033F802F095FE03F025FC3C210D
:100770001B4802F04FFA1B480021026851630268CF
:1007800091630268D16300680164164802F04EFC70
:100790000421144802F04AFC0821124802F046FCE9
:1007A0000C21104802F042FC0E4802F0F1F8012240
:1007B00011460D4801F0F4F84FF090440122022157
:1007C000204601F0EDF801220421204601F0E8F86E
:1007D00020460122BDE81040114601F0E1B80000BA
:1007E00040010020F40000200004004810B503F090
:1007F000DFF803F0BBF8BDE8104004F0BBBB704766
:100800002DE9F84F4FF000080446CDF800800D4662
:1008100094F85820DFF80094616947464046012A61
:100820000AD00126FD4A84F8586041B1296A01299D
:1008300005D0A36EEBB129E00220BDE8F88F68680F
:10084000092838D1A96A4FF4785041B12B6801F0DA
:100850007C0100EA53400843E96A084302E0296842
:1008600000EA51402168CB6C13400343CB646066BF
:1008700021E0C4E91971A96A286A31B101F07C014B
:10088000401E0843E96A084300E0401E2968C1F39E
:100890008463297901F01F018B400343A06E401E41
:1008A000A066616E41EA0301616604D12068C36CF1
:1008B00013400B43C364206803F00EF858B995F851
:1008C000250098B12068C16895F8262021F44011D0
:1008D00041EA4251C160206803F00EF88246206868
:1008E00002F0FAFF5AEA00010DD0FAE095F826006E
:1008F00095F82410400540EA01512068C26822F4AE
:1009000040121143E6E7A86A30B1E86A20B195F8D1
:10091000250001285DD003E095F82500012804D0CA
:100920002068C16821F0007103E02068C16841F0CF
:100930000071C16095F83000012851D0206801692C
:1009400021F002010161AA6829682068B2F1004F14
:1009500037D002F0ECFF2068416921F0004141618D
:1009600020686A69C168C1F3C10149008A402969E8
:10097000042943D000EB81002B68016EDFF8A0C290
:1009800003F0F84301EA0C011343194341F000411D
:10099000016622682869A96902EB8000026E22F0D4
:1009A00080720A430266297F22682869012922D0C1
:1009B000002102EB8000026E22F000720A43026600
:1009C0008FE0002202F0B3FF2068416941F000414E
:1009D000C5E7E06D40F02000E0654FF00108A9E7B1
:1009E000D5E90D1001432068026922F4FF7242F03C
:1009F00002021143A6E74FF00071DAE7002102F08E
:100A000061FF400320684FF0000171D002F05AFFEF
:100A100090FAA0F0B0FA80F1286842036DD090FA05
:100A2000A0F0B0FA80F0814204D100221146206883
:100A300002F094FF0121206802F044FF4003206887
:100A40004FF001015CD002F03DFF90FAA0F0B0FA47
:100A500080F12868420358D090FAA0F0B0FA80F0F4
:100A6000814204D100220121206802F077FF022197
:100A7000206802F027FF400320684FF0020147D0B2
:100A800002F020FF90FAA0F0B0FA80F1286842034B
:100A900043D090FAA0F0B0FA80F0814204D1002255
:100AA0000221206802F05AFF0321206802F00AFFA9
:100AB000400320684FF0030132D002F003FF90FAA8
:100AC000A0F0B0FA80F1286842032ED090FAA0F08E
:100AD000B0FA80F0814204D100220321206802F0A4
:100AE0003DFF206802F000FF10B3B3E000E004E037
:100AF00002F0E8FEC0F384618EE7C0F3846092E701
:100B000002F0E0FEC0F38461A3E7C0F38460A7E7CE
:100B100002F0D8FEC0F38461B8E7C0F38460BCE79C
:100B200002F0D0FEC0F38461CDE7C0F38460D1E76A
:100B300021682A7B286851F8B03FC0F3120C23EAE1
:100B40000C0302F0180C374A22FA0CF2024013434D
:100B50000B60E96849457DD1286841031AD090FAB5
:100B6000A0F1B1FA81F1491C01F01F0109294FEAF6
:100B7000403130D8002910D090FAA0F1B1FA81F1BB
:100B800001F1010101F01F0106FA01F608D1C0F3DD
:100B9000846109E0C0F38461E5E7C0F38461EFE7B5
:100BA00090FAA0F1B1FA81F101F1010101F01F0108
:100BB00046EA816102D1C0F3846003E090FAA0F0BC
:100BC000B0FA80F000F1010000F01F0000EB4000DF
:100BD00041EA00513AE000290DD090FAA0F1B1FAB3
:100BE00081F101F1010101F01F0106FA01F605D1C1
:100BF000C0F3846106E0C0F38461F2E790FAA0F1EB
:100C0000B1FA81F101F1010101F01F0146EA8161B0
:100C10000BD1C0F384600CE000007F400040100462
:100C200000F0FF03FFFF070014E090FAA0F0B0FA15
:100C300080F000F1010000F01F002B4A00EB4000A3
:100C400002EB005041EA000141F00071AA682068FF
:100C500002F06DFE25482968014240D0244A906880
:100C6000244B00F0E070994202D0234B99421BD1F3
:100C7000030219D42168B1F1A04F30D1916840F43A
:100C8000000021F0E071014391601C481C4900689C
:100C9000B0FBF1F0801C00EB4000800000E0401E43
:100CA00000900028FBD11AE0164D174BA94207D13E
:100CB000C50105D42168994211D040F0807009E047
:100CC000124DA9420BD1410209D42168994206D0A4
:100CD00040F48000916821F0E0710143916084F854
:100CE00058704046A9E50000000020FE0000088082
:100CF00000030050000021C31000C0900C00002031
:100D0000400D0300000052C700010050000084CBDA
:100D10004FF0A041D1F880210C484266D1F88421DF
:100D20008266D1F888210266094A12680264D1F805
:100D30008C2100EE102AB8EE400A80ED820AD1F82C
:100D40008C114942C0F8281203F040B9200200205B
:100D500024040040704700002DE9F0410446454856
:100D6000806800F01F05206802F0B6FD08BB20680F
:100D7000C168C06C01F0004110F4C07F00D191B196
:100D800094F85800012814D0012084F85800204617
:100D9000FFF7D0FA01004FF000070CD084F858702C
:100DA0000846BDE8F081E06D40F02000E0650120DC
:100DB000F7E70220F5E7E06DC00504D5206E20F0CE
:100DC0000800206600E02766E06D42F201029043D1
:100DD00040F48050E065284B20684FF0A0469842D0
:100DE00001D1324600E00246824200D01DB9E26DD8
:100DF00022F48012E2656022026084F85870206854
:100E0000C268920203D5426842F480624260A069DF
:100E100008282068426807D022F04002426020681B
:100E2000426842F0200206E022F020024260206880
:100E3000426842F0400242602068984201D1324646
:100E400000E00246824209D045B1062D06D0072DAA
:100E500004D0E06D40F48010E065A1E7C26812F0B4
:100E6000007F9DD18268054B1A4042F008028260E3
:100E700096E700000003005000010050C0FFFF7F14
:100E8000704770472DE9F84F00270446009790F807
:100E90005800DFF8D8930D46B846012810D0012637
:100EA00084F85860206802F023FD58B1E06D40F0EE
:100EB0002000E065012784F858803846BDE8F88FA7
:100EC0000220FBE7D5E900210C23206803EA9113F7
:100ED0001844036B01F01F014FF01F0C0CFA01FCCA
:100EE000C2F3846223EA0C038A401343036320683D
:100EF00002F0FEFC8246206802F0EAFC5AEA000199
:100F00003CD1AA6829682068B2F1004F37D002F0BE
:100F1000FFFC2068416921F00041416120686A6955
:100F2000C168C1F3C10149008A402969042931D04F
:100F300000EB81002B68016EDFF834C303F0F84347
:100F400001EA0C011343194341F000410166226894
:100F50002869A96902EB8000026E22F080720A43C0
:100F60000266297F22682869012910D0002102EB3E
:100F70008000026E22F000720A4302667DE00022C9
:100F800002F0C6FC2068416941F00041C5E74FF01E
:100F90000071ECE7002102F08FFC400320684FF065
:100FA000000171D002F088FC90FAA0F0B0FA80F154
:100FB000286842036DD090FAA0F0B0FA80F0814228
:100FC00004D100221146206802F0C0FC01212068F3
:100FD00002F072FC400320684FF001015CD002F087
:100FE0006BFC90FAA0F0B0FA80F12868420358D068
:100FF00090FAA0F0B0FA80F0814204D100220121E1
:10100000206802F0A3FC0221206802F055FC400396
:1010100020684FF0020147D002F04EFC90FAA0F099
:10102000B0FA80F12868420343D090FAA0F0B0FAF9
:1010300080F0814204D100220221206802F086FC67
:101040000321206802F038FC400320684FF00301C0
:1010500032D002F031FC90FAA0F0B0FA80F12868AA
:1010600042032ED090FAA0F0B0FA80F0814204D171
:1010700000220321206802F069FC206802F030FCA5
:1010800010B3AAE000E004E002F016FCC0F38461B3
:101090008EE7C0F3846092E702F00EFCC0F3846137
:1010A000A3E7C0F38460A7E702F006FCC0F3846105
:1010B000B8E7C0F38460BCE702F0FEFBC0F38461D4
:1010C000CDE7C0F38460D1E721682A7B286851F816
:1010D000B03FC0F3120C23EA0C0302F0180C654A6F
:1010E00022FA0CF2024013430B60E968494574D1BF
:1010F000286841031AD090FAA0F1B1FA81F1491C95
:1011000001F01F0109294FEA403130D8002910D0E1
:1011100090FAA0F1B1FA81F101F1010101F01F0192
:1011200006FA01F608D1C0F3846109E0C0F38461D6
:10113000E5E7C0F38461EFE790FAA0F1B1FA81F13D
:1011400001F1010101F01F0146EA816102D1C0F302
:10115000846003E090FAA0F0B0FA80F000F10100A2
:1011600000F01F0000EB400041EA005131E000298F
:101170000DD090FAA0F1B1FA81F101F1010101F075
:101180001F0106FA01F605D1C0F3846106E0C0F341
:101190008461F2E790FAA0F1B1FA81F101F1010165
:1011A00001F01F0146EA816102D1C0F3846003E0CF
:1011B00090FAA0F0B0FA80F000F1010000F01F00FA
:1011C0002D4A00EB400002EB005041EA000141F0E3
:1011D0000071AA68206802F09BFB28482968014238
:1011E0003FF469AE264A9068264B00F0E0709942C1
:1011F00002D0254B99421CD103021AD42168B1F1C7
:10120000A04F7FF458AE916840F4000021F0E071E7
:10121000014391601D481E490068B0FBF1F0401C7D
:1012200000EB4000800000E0401E00900028FBD151
:1012300041E6184D184BA94207D1C50105D42168D4
:101240009942F5D040F0807009E0144DA942EFD1E9
:101250004102EDD421689942EAD040F480009168BF
:1012600021F0E0710143916025E6000000007F401D
:1012700000F0FF03FFFF0700000020FE00000880D1
:1012800000030050000021C31000C0900C0000209B
:10129000400D0300000052C700010050000084CB45
:1012A000704770472DE9F05F04460068066845689E
:1012B000DFF854B2DBF8080000F01F07B0070ED5C6
:1012C000A8070CD5E06DC00603D4E06D40F40060C3
:1012D000E0652046FFF793FA216802200860DFF8F6
:1012E0002CA270074FF0A04801D5680703D430073F
:1012F00037D5280735D5E06DC00603D4E06D40F43E
:101300000070E065206802F0FBFA20B320685045C9
:1013100001D1414600E00146814208D03FB1052F8E
:1013200005D0092F03D0504503D1414602E0C168E2
:1013300001E00146C96889040DD4016809070AD58E
:1013400002F0D6FA58B3E06D40F01000E065206E70
:1013500040F0010020662046FFF7A2FF21680C2024
:101360000860B00601D5A80603D4700658D56806F3
:1013700056D5E06DC00603D4E06D40F40050E06542
:101380002068C16C11F4C07F1AD00021894602F098
:10139000B7FA02462068504514D1414613E0206850
:1013A000416821F00C014160E06D20F48070E0653F
:1013B000E06DC004CFD4E06D40F00100E065CAE705
:1013C0000121E3E70146814208D03FB1062F05D055
:1013D000072F03D0504503D1414602E0C16801E028
:1013E0000146C968B9F1000F14D08B0102D58AB14A
:1013F0008A040FD4026852060CD589020AD402F07E
:1014000067FAE8B3E06D40F01000E065206E40F050
:10141000010020662046FFF77BFC21686020086001
:1014200030060BD5280609D5E06D40F48030E06524
:10143000204600F065F9216880200860F0050CD591
:10144000E8050AD5E06D40F40030E0652046FFF77E
:1014500017FD21684FF480700860B0050CD5A80511
:101460000AD5E06D40F48020E0652046FFF709FDD5
:1014700021684FF400700860F0062ED5E80600E001
:1014800008E02AD5E06BD0B1AFB1DBF8080000F47A
:10149000604013E02068416821F060014160E06D28
:1014A00020F48050E065E06DC005B3D4E06D40F0FD
:1014B0000100E065AEE72068C068C00750B1E06D8C
:1014C00040F48060E065206E40F002002066204617
:1014D000FFF7E7FE216810200860700512D5680547
:1014E00010D5E06D40F48040E065206E40F00800CB
:1014F000206621684FF4806008602046BDE8F05FF8
:10150000FFF728BCBDE8F09F000300500001005029
:10151000F8B54FF0000504002E46009502D0E06DAE
:1015200010B107E00120F8BD204600F0EBF8266678
:1015300084F8586020688168C1F3407119B18168EE
:10154000674A1140816020688168C1F3007189B9E0
:101550008168644A114041F080518160624863496A
:101560000068B0FBF1F04000801C00E0401E0090DD
:101570000028FBD120688168C1F3007141B9E16D99
:1015800041F01001E165216E41F001012166012564
:1015900002F0AEF9E16DC90600D430B1E06D40F063
:1015A0001000E06501252846F8BDE06D20F480704C
:1015B00040F00200E065206802F092F988B94FF02F
:1015C000A04080684A49C0F300008968C1F3000167
:1015D000084306D1474960688A6822F47C120243B6
:1015E0008A60E168E06B627F0843A16841EA4231AA
:1015F000084394F8241040EA0140012904D1218DC8
:101600003D4A02EB41410843E16A29B101F4787196
:10161000226B014342EA01002168CA68374B1A4035
:101620000243CA6020680169626B21F04061114386
:101630000161206802F04CF970BB207F94F83810EB
:10164000800340EA41012068C26844F202039A43E1
:101650000A43C26020690028206801690AD041F469
:1016600080310161206850F8C01F22696FF30D01BD
:10167000114307E021F480310161206850F8C01F58
:101680006FF30D01016094F8400001280CD0206830
:10169000016921F001010161606901282068016B85
:1016A00021F00F0110D012E0D4E911100143D4E968
:1016B0001302104301432068026940F2FC739A430D
:1016C000114341F00101E6E7226A521E1143016312
:1016D000E06D20F0020040F00100E06563E70000EB
:1016E000C0FFFF5FC0FFFF7F0C000020400D030024
:1016F00000010050000300500000FEFF0740F0FF13
:101700007047000030B597B0044614216846FEF7D4
:10171000B9FD442105A8FEF7B5FD28492068884297
:101720004AD1C00105908003149005A800F03CFA4E
:1017300008B1FFF710F82248C16C41F40051C164B0
:10174000C16C01F400511691C16C41F00101C164FA
:10175000C16C01F001011691C16C41F00401C1643A
:10176000C16C01F004011691C16C41F00201C16429
:10177000C06C032400F002001690F02000258DE8D4
:10178000310069464FF0904000F032F830208DE88B
:10179000310069460B4800F02BF804208DE8310039
:1017A0006946094800F024F800220121122000F0C7
:1017B00063F9122000F052F917B030BD000100505B
:1017C00000100240000800480004004870B50446BC
:1017D00000F0ECF80546601C02D004484068044460
:1017E00000F0E4F8401BA042FAD370BD00000020D6
:1017F0002DE9F84FDFF888910022A9F1040B0327A7
:101800004FF00F0C09F1040AABF1040EB1E0012511
:1018100095402B4073D00C7904F00304012C01D0C7
:10182000022C15D18668540007FA04F826EA080647
:10183000D1F80C8008FA04F848EA0608C0F80880D5
:101840004468AC430D79C5F30015954025434560C8
:101850000C79E443A40708D0C568540007FA04F6DD
:10186000B5438E68A6402E43C6600C7904F003048D
:10187000022C11D1D40800EB8406356A5407E40E1B
:101880000CFA04F825EA0805D1F8108008FA04F8E3
:1018900048EA0508C6F820800568540007FA04F6EF
:1018A000B5430E7906F00306A6402E4306604C6849
:1018B00014F4403F5CD0334C256E45F0010525669D
:1018C000246E22F0030504F0010400942E4C05EB75
:1018D0000408D8F808509407260F0CFA06F4A5431C
:1018E000B0F1904F04D0294CA04203D1012417E05D
:1018F000002415E0264CA04202D1022410E037E07B
:10190000244CA04201D103240AE0234CA04201D17F
:10191000042405E0214CA04201D1052400E0062466
:10192000B4402C43C8F80840D9F800404D464E68F2
:101930009C43F60200D51C432C60DAF80040554663
:101940004E689C43B60200D51C432C60DBF8004077
:101950005D464E689C43B60300D51C432C60DEF800
:10196000004075464E689C43F60300D51C432C602E
:10197000521C0B6833FA02F47FF449AFBDE8F88FCC
:10198000080401400010024000000140000400482B
:1019900000080048000C00480010004800140048EF
:1019A0000AB1816170478162704700000148806818
:1019B000704700000000002002488168426811441E
:1019C000816070470000002010B50024032000F063
:1019D00073F80F2000F008F808B1012401E000F0CE
:1019E00025F8204610BD000070B50E4E05460024B7
:1019F000706898B14FF47A71B1FBF0F00A49096848
:101A0000B1FBF0F000F0BDFE40B9102D06D200226F
:101A10002946501E00F030F8356000E001242046D1
:101A200070BD0000000000200C0000200A4882B0B9
:101A3000016E41F001010166016E01F001010091AA
:101A4000816D41F080518165806D00F08050009083
:101A500002B000F0A1B8000000100240002809DB2D
:101A600000F01F02012191404009800000F1E020B8
:101A7000C0F8001170470000F0B40E4B1B68C3F3B0
:101A80000223C3F10704042C00D904241D1D072DD3
:101A900001D2002300E0DB1E012606FA04F56D1ECC
:101AA0000D409D409E40761E164045EA0601F0BC62
:101AB00003F09CBA0CED00E0064A00F00701106844
:101AC0004FF6FF03184040EA012003490843106025
:101AD000704700000CED00E00000FA052B492C4B8C
:101AE0000A6832214A432B4940B1B0F5007F0868AB
:101AF00029D020F4C06040F480602CE00868C0F376
:101B00004120022804D051F8800F20F4807022E098
:101B1000D1F8800020F48070C1F88000086820F4BB
:101B2000C06040F400700860B2FBF3F0401C00E0BD
:101B3000401E4A69520501D50028F9D1486940057F
:101B40000AD503207047C0F34120022806D051F87F
:101B5000800F40F48070086000207047D1F880004A
:101B600040F48070C1F88000086820F4C06040F440
:101B700000700860B2FBF3F0401C00E0401E4A69B0
:101B80005205DBD50028F9D1D8E700000C00002071
:101B900040420F00007000400248816841F48041DB
:101BA00081607047007000402DE9F84F0446002620
:101BB0000068A24D374600035CD5A86D4FF00009C0
:101BC000C00009D4A86D40F08050A865A86D4FF002
:101BD000010900F080500090DFF864A2DAF80010EC
:101BE00041F48071CAF80010FFF7E0FE804607E07C
:101BF000FFF7DCFEA0EB0800022801D9032631E044
:101C0000DAF80000C005F3D566BBD5F8900010F4F3
:101C1000407014D0216C814211D0D5F89000D5F8D5
:101C2000901020F4407041F48031C5F89010D5F840
:101C3000901021F48031C5F89010C5F89000C007CD
:101C40004ED0FFF7B3FE804641F2883A05E0FFF739
:101C5000ADFEA0EB08015145D0D8D5F89000800723
:101C6000F5D5EEB33746B9F1000F03D0A86D20F0DB
:101C70008050A8652078C00707D0D5F88800616833
:101C800020F003000843C5F888002078800707D5B6
:101C9000D5F88800A16820F00C000843C5F888003A
:101CA0002078400707D5D5F88800E16820F030009B
:101CB0000843C5F888002078000707D5D5F88800C4
:101CC000216920F0C0000843C5F88800207880060C
:101CD00009D5D5F88800616920F44060084300E028
:101CE0003DE0C5F888002078400607D5D5F8880083
:101CF000A16920F440500843C5F888002078000608
:101D000007D5D5F88800E16920F440400843C5F8BC
:101D100088002088C00507D5D5F88800216A20F4FE
:101D200040300843C5F888002088800507D5D5F8DD
:101D30008800616A20F440200843C5F888002088A4
:101D4000400519D5D5F88800A16A20F44010084351
:101D5000C5F88800A06AB0F5801F09D00CE0D5F85E
:101D60009000216C20F440700843C5F890007AE799
:101D7000E86840F48010E860208800050FD5D5F8A9
:101D80008800E16A20F440000843C5F88800E06A52
:101D9000B0F5800F03D1E86840F48010E860208837
:101DA000C0040FD5D5F88800216B20F0407008439F
:101DB000C5F88800206BB0F1807F03D1E86840F45B
:101DC0008010E860208881044FF000600ED5D5F8BF
:101DD0008810626B21F040611143C5F88810616B77
:101DE000814203D1E96841F48011E9602188490406
:101DF0000ED5D5F88810A26B21F040611143C5F8CB
:101E00008810A16B814203D1E86840F48010E8603B
:101E1000208800040FD5D5F88800E16B20F04050F1
:101E20000843C5F88800E06BB0F1805F03D1E86833
:101E300040F48030E8603846BDE8F88F001002407A
:101E4000007000402DE9F0470D4604004FF00007F8
:101E500025D0DFF8A091D9F8000000F00F00A842CB
:101E60000CD2D9F8001021F00F012943C9F8001055
:101E7000D9F8000000F00F00A84210D121685E4E92
:101E8000C80741F2883A52D06068DFF870810328B1
:101E900008D00228306826D04005002825DB012024
:101EA000BDE8F08730688001F9D5F068F068544BE0
:101EB000C0F30310401CB3FBF0F0F268C2F306223B
:101EC0005043F268C2F34162521C5200B0FBF2F080
:101ED000404515D9B06810F0F00F0AD088070FD52B
:101EE000A06830B10CE08003D7E700F0B5F84045BA
:101EF00006D9B06820F0F00040F08000B060802784
:101F0000B068616820F003000843B060FFF74EFD41
:101F1000804605E0FFF74AFDA0EB080151453BD89C
:101F2000B068616800F00C00B0EB810FF2D120685E
:101F3000810714D5400703D5B06840F4E060B06075
:101F40002078000705D5B06820F4605040F4E060C8
:101F5000B060B068A16820F0F000084304E0802F72
:101F600003D1B06820F0F000B060D9F80010484606
:101F700001F00F01A94217D90168C84621F00F01ED
:101F800029430160FFF712FD0746D14606E0FFF73F
:101F90000DFDC11B494501D9032081E7D8F8000098
:101FA00000F00F00A842F2D12078400705D5B068B4
:101FB000E16820F4E0600843B0602078000706D5AF
:101FC000B068216920F4605040EAC100B06000F0C0
:101FD00043F8B1680B4AC1F30311515C01F01F01D2
:101FE000C8400949086009480068BDE8F047FFF7A4
:101FF000FBBC0000002002400010024000B4C404FA
:102000000024F400FA5100080C0000200000002019
:102010000548064900688968054AC1F30221515CF8
:1020200001F01F01C84070470C0000200010024062
:102030000A5200080548064900688968054AC1F344
:10204000C221515C01F01F01C84070470C00002004
:10205000001002400A520008134A9068C0F3810140
:10206000124801290AD09168C1F38101022905D0E3
:102070009168C1F38101032901D000207047D16824
:1020800001F00303D168C1F30311491CB0FBF1F067
:10209000D168C1F306214843D168C1F34161491CAD
:1020A0004900B0FBF1F07047001002400024F4003A
:1020B0002DE9F843040078D02078F54DC00745D0CD
:1020C000A868E96800F00C0001F003010C2802D0B8
:1020D000082817D001E0032914D06068B0F5803FCC
:1020E00017D0B0F5A02F286817D020F480302860D2
:1020F000286820F4802028606068D8B1FFF756FC7B
:10210000064613E02868800320D560680028D2D0F6
:102110001CE0286840F48030EDE740F4802028601F
:10212000F7E7FFF743FC801B64286ED8286880031C
:10213000F7D50BE0FFF73AFC064604E0FFF736FC64
:10214000801B6428F1D828688003F7D420788007A2
:102150004BD5A868E96800F00C0001F003010C28D9
:1021600002D004280DD001E002290AD0E06800283E
:1021700028682BD040F480702860FFF717FC0646D3
:1021800019E02868400502D5E068002893D0686807
:10219000217C20F0FE4040EA01606860BD48006894
:1021A000FFF722FC002800D11FE06DE1FFF7FEFBE6
:1021B000801B0228B9D828684005F7D56868217CBB
:1021C00020F0FE4040EA016068600EE020F480707C
:1021D0002860FFF7EBFB064604E0FFF7E7FB801BF8
:1021E0000228A2D828684005F7D42078000728D50F
:1021F00060690028D5F8940012D040F00100C5F8BD
:102200009400FFF7D3FB064605E08FE0FFF7CEFB17
:10221000801B022889D8D5F894008007F6D510E0F5
:1022200020F00100C5F89400FFF7C0FB064604E06B
:10223000FFF7BCFB801B022878D8D5F894008007F4
:10224000F6D42078400761D5A86D0027C00008D4D7
:10225000A86D40F08050A865A86D012700F080505F
:1022600000908D480168C90511D40168804641F489
:1022700080710160FFF79AFB064604E0FFF796FBCA
:10228000801B022852D8D8F80000C005F6D5A068F7
:10229000012815D00528D5F8900016D020F00100AF
:1022A000C5F89000D5F8900020F00400C5F8900023
:1022B000A06841F28838B8B1FFF778FB06460EE017
:1022C000D5F8900040F00100F0E740F00400C5F8B8
:1022D0009000F5E7FFF76AFB811B414526D8D5F84A
:1022E00090008007F6D50CE0FFF760FB064604E09F
:1022F000FFF75CFB811B414518D8D5F8900080079B
:10230000F6D41FB1A86D20F08050A8652078800613
:1023100028D5A0690028D5F8980012D040F0010017
:10232000C5F89800FFF742FB064605E072E0FFF7AC
:102330003DFB801B02286DD8D5F898008007F6D5A4
:1023400010E020F00100C5F89800FFF72FFB0646CB
:1023500004E0FFF72BFB801B02285BD8D5F8980020
:102360008007F6D4E069E8B3A968C1F381010329C5
:102370005BD00228286820F08070286003D0FFF727
:1023800015FB044649E0FFF711FB064604E0FFF7A2
:102390000DFB801B02283DD828688001F7D4F4E9A2
:1023A00008016FF00F0202EB01110843218A520469
:1023B000490802EB4151A26841EA02210843217D0C
:1023C0004FF07E42490802EB41610843217B40EA1D
:1023D000C160E968314A11400843E860286840F06C
:1023E000807000E052E02860E86840F08070E860AB
:1023F000FFF7DCFA044604E0FFF7D8FA001B0228D6
:1024000008D828688001F7D540E0FFF7CFFA001B15
:10241000022802D90320BDE8F88328688001F4D49B
:10242000E8681F490840E86030E00128F3D0E86818
:10243000226A00F00301914226D1616A00F0F002A5
:102440000901103991421FD1A26A00F4FE41B1EB9B
:10245000022F19D194F82C2000F07841B1EBC26F13
:1024600012D1218E00F4C00249084905A1F50011DE
:10247000914209D194F8341000F0C060490849062F
:10248000A1F10071814201D00120C4E70020C2E720
:102490000010024000000020007000400C809F01EE
:1024A000FCFFEEFE70B5040009D0606A002540B163
:1024B00025616561A56294F85D0040B10CE00120E2
:1024C00070BD6068B0F5827FF4D0E561F2E784F812
:1024D0005C50204600F05CF8022084F85D00206823
:1024E000016821F040010160E0684FF4E062904231
:1024F00001D9002101E04FF48051B0F5706F02D096
:10250000904200D0A562A088228900F4827002F473
:1025100004421043227C02F002021043227D02F0AA
:1025200001021043228B02F400721043227F02F05A
:102530003802104394F8202002F080021043228DCC
:1025400002F40052104322681060A069042202EADB
:10255000104094F8242001F4805102F0100210433E
:1025600094F8342002F008021043A28902F4706249
:1025700010430843216848602068C16921F4006164
:10258000C1612566012084F85D00002070BD000057
:1025900010B586B0044614216846FDF773FE134952
:1025A000206888421FD11248816D41F40041816545
:1025B000816D01F400410591C16C41F00401C164D9
:1025C000C06C694600F0040005904FF4A0500090E4
:1025D0000220019000200290032003900620049026
:1025E0000448FFF705F906B010BD0000003C0040AC
:1025F00000100240000800482DE9F84F1D4617461C
:102600008A460446FFF7D2F9064694F85D00012891
:1026100026D1BAF1000F6FD0002F6DD094F85C0076
:1026200001281DD04FF0010984F85C90032084F844
:102630005D004FF00008C4F86080C4F838A0A78798
:10264000E787C4F84080A4F84480A4F84680C4F822
:102650005080C4F84C80A068B0F5004F03D00CE067
:102660000220BDE8F88F2068016821F04001016078
:102670002068016841F480410160206801684906D2
:1026800003D4016841F040010160E068B0F5E06FFB
:10269000606822D908B1012F1BD1A06B2168008886
:1026A000C86006E020688168890709D5A16B0988A0
:1026B000C160A06B801CA063E08F401EE08708E033
:1026C000FFF774F9801BA84202D3681C01D045E0D3
:1026D000A5B3E08F0028E5D135E008B1012F2FD157
:1026E000E08F0128A06B03D921680088C86010E042
:1026F00021680078087314E041E0E08720E020685A
:102700008168890713D5E18F0129A16B07D9098851
:10271000C160A06B801CA063E08F801EEDE709788C
:102720000173A06B401CA063E08F401EE5E7FFF73C
:102730003DF9801BA84202D3681C01D00EE06DB1A8
:10274000E08F0028DBD132462946204601F001FD0A
:1027500008B120202066A06830B109E084F85D90BF
:1027600084F85C8003207CE72068C1688068009062
:1027700084F85D9084F85C80206E0028F3D00120FE
:102780006FE710B5401EB0F1807F01D3012010BD6E
:102790004FF0E02460610F21601702F027FC002059
:1027A000A06107202061002010BD7047704770476E
:1027B00030B590F83C20012A42D0012280F83C201C
:1027C000CA688B6822F440721A434B6822F4806214
:1027D0001A430B6822F400621A430B6922F48052F8
:1027E0001A434B6922F400521A430B6B22F48042C5
:1027F0001A430B8B22F4702242EA0342CB6922F087
:1028000080521A430F4D03680024AB4202D00E4D94
:10281000AB4210D10D8D22F4700242EA05520D6ACE
:1028200022F080722A434D6A22F000722A43C96A5C
:1028300022F000520A435A6480F83C40002030BD28
:10284000022030BD002C0140003401407047704729
:1028500070470000F0B590F83C20012A3AD00125DD
:1028600080F83C50022280F83D2003685A689C683A
:10287000194E1A4FB34201D0BB4204D122F4700C5E
:102880004A6842EA0C02DFF858C002EA0C02D1F8AA
:1028900000C04CEA020CC3F804C00268B2420DD07A
:1028A000B2F1804F0AD00F4B9A4207D00E4B9A429A
:1028B00004D0BA4202D00D4B9A4204D1896824F068
:1028C00080031943916080F83D50002180F83C104E
:1028D0000846F0BD0220F0BD002C0140003401404C
:1028E0008FFFFFFD00040040000800400040014051
:1028F000704710B5040003D094F83D0010B107E014
:10290000012010BD002084F83C00204600F022F891
:10291000022084F83D00211D206801F069FE01209D
:1029200084F8480084F83E0084F83F0084F84000B2
:1029300084F8410084F8420084F8430084F844009D
:1029400084F8450084F8460084F8470084F83D0088
:10295000002010BD08B500680B49884212D10B4811
:10296000016E41F400610166006E002200F4006017
:10297000009011461920FFF77FF8BDE808401920A4
:10298000FFF76CB808BD0000002C014000100240A9
:1029900090F83D10012901D001207047022180F8F4
:1029A0003D100168CA6842F00102CA60006810491F
:1029B00088420ED0B0F1804F0BD00E49884208D02B
:1029C0000D49884205D00D49884202D00C49884201
:1029D00007D181680B4A1140062906D0B1F5803F26
:1029E00003D0016841F00101016000207047000040
:1029F000002C014000040040000800400034014069
:102A0000004001400700010070B5044690F83C000A
:102A10000025012814D0012684F83C60022084F8A7
:102A20003D0020688268364B1A4022F47F42826063
:102A3000086870282ED010DC10F00F0F03D021E0B2
:102A40004FF0020070BD4FEA2012072A1AD2DFE8C9
:102A500002F0525252524A3840002A4BC21A98424F
:102A600049D009DCB0F5805F0DD0B0F5005F1CD017
:102A7000B0F1101F06D13EE0102A3CD0202A3AD0F7
:102A8000502A38D0012584F83D60002084F83C00AD
:102A9000284670BDCB68D1E90121206801F013FE02
:102AA0002068816841F0770109E0CB68D1E9012114
:102AB000206801F008FE2068816841F4804181604F
:102AC000E1E7CA684968206801F0A8FF5021206842
:102AD00006E0CA684968206801F0B1FF60212068FB
:102AE00001F0FCFDCFE7CA684968206801F096FF55
:102AF00040212068F4E7226801461046F0E7000014
:102B000088FFCEFF200010002DE9F0410D460400A3
:102B100003D094F83D0018B108E00120BDE8F08131
:102B2000002084F83C00204600F042F8022084F89F
:102B30003D00206881681D4A11408160211D206888
:102B400001F056FD206881688269066A2B68AF69CA
:102B50000B4340F203318A4342EA0722A968EF6936
:102B600011434FF6FC429143EA6841EA07210A43C8
:102B700029692F6A090141EA073111436A686D69C1
:102B800026F0AA0646EA05152A438360206881617B
:102B900054F8480B0262012004F81F096075A07503
:102BA000E076207720750020B8E70000F8BFFEFF30
:102BB00010B586B0044614216846FDF763FB124940
:102BC000206888421DD11148816D41F00201816564
:102BD000816D01F002010591C16C41F00201C164F7
:102BE000C06C002100F0020005903020009002200F
:102BF000CDE901010321CDE9031069460448FEF740
:102C0000F7FD06B010BD00000004004000100240B7
:102C10000004004870B590F83E50044690F83F30EC
:102C200090F8442090F84500022621B104290BD0E9
:102C3000012D16D10FE0012D13D1012A11D184F8F5
:102C40003E6084F8446016E0012B0AD1012808D1C7
:102C500084F83F600DE0012B03D1012A01D1012846
:102C600001D0012070BD84F83E6084F83F6084F894
:102C7000446084F8456091B1042904D00122002108
:102C8000206801F013FD01220421206801F00EFDEF
:102C90002068016841F001010160002070BD01223F
:102CA00000212068F2E770472DE9F04104460068F2
:102CB000C66805694FF00007A90713D5B10711D5FC
:102CC000F91E016101202077206880698007204675
:102CD00002D0FFF7E8FF04E000F0E2F8204600F041
:102CE000A4F92777680716D5700714D521686FF007
:102CF00004000861022020772068806910F4407F7A
:102D0000204602D0FFF7CFFF04E000F0C9F82046CC
:102D100000F08BF92777280715D5300713D52168E0
:102D20006FF008000861042020772068C0698007E0
:102D3000204602D0FFF7B7FF04E000F0B1F82046CC
:102D400000F073F92777E80616D5F00614D5216848
:102D50006FF010000861082020772068C06910F427
:102D6000407F204602D0FFF79EFF04E000F098F875
:102D7000204600F05AF92777E80708D0F00706D078
:102D800021686FF001000861204600F0D3F92806A1
:102D900001D4A80408D5300606D521686FF4025086
:102DA00008612046FFF702FDE80508D5300606D584
:102DB00021686FF4807008612046FFF7F6FC680612
:102DC00008D5700606D521686FF0400008612046DE
:102DD00000F0CAF9A80608D5B00606D521686FF03C
:102DE000200008612046FFF7E2FCE80208D5F00267
:102DF00006D521686FF4801008612046FFF727FD93
:102E0000A80208D5B00206D521686FF40010086149
:102E10002046FFF71BFD680208D5700206D5216821
:102E20006FF4800008612046FFF712FD28020AD5E2
:102E3000300208D521686FF4000008612046BDE823
:102E4000F041FFF755BDBDE8F081000010B586B038
:102E5000044614216846FDF715FA0E492068884299
:102E600015D10D48C16C41F00401C164C06C002152
:102E700000F0040005900F2000900220CDE9010130
:102E80000321CDE9031069460448FEF7B1FC06B002
:102E900010BD0000002C0140001002400008004856
:102EA000704770B5044690F83C0000260D46012896
:102EB0000BD0012084F83C000C2A4AD007DC82B1F8
:102EC000042A20D0082A06D131E0022070BD102A41
:102ED00053D0142A63D00126002084F83C003046E9
:102EE00070BD206801F004FC2068816941F0080190
:102EF00081612068816921F0040181612068816914
:102F00002A69114311E0206801F040FC20688169C2
:102F100041F4006181612068816921F480618161EF
:102F2000206881692A6941EA02218161D4E7206829
:102F300001F074FC2068C16941F00801C16120689A
:102F4000C16921F00401C1612068C1692A69114386
:102F500011E0206801F0AAFC2068C16941F4006119
:102F6000C1612068C16921F48061C1612068C169C3
:102F70002A6941EA0221C161AEE7206801F0DEFC66
:102F80002068016D41F0080101652068016D21F0A4
:102F9000040101652068016D2A69114311E0206870
:102FA00001F004FD2068016D41F4006101652068B5
:102FB000016D21F4806101652068016D2A6941EA93
:102FC0000221016588E710B5040003D094F83D00A4
:102FD00010B107E0012010BD002084F83C0020461D
:102FE00000F022F8022084F83D00211D206801F045
:102FF000FFFA012084F8480084F83E0084F83F007E
:1030000084F8400084F8410084F8420084F84300CA
:1030100084F8440084F8450084F8460084F84700AA
:1030200084F83D00002010BD7047704730B504465D
:1030300069B104290ED008290FD00C2910D010290D
:1030400011D094F84300012810D0012030BD94F82D
:103050003E00F8E794F83F00F5E794F84000F2E707
:1030600094F84100EFE794F84200ECE70220E9B35E
:10307000042942D0082943D00C2944D0102945D036
:1030800084F843000122206801F010FB21492068E8
:10309000214A224B884209D0904207D0984205D05D
:1030A0001F4DA84202D01F4DA84203D1456C45F4E4
:1030B00000454564206888420CD0B0F1804F09D0AB
:1030C0001949884206D01949884203D0904201D05C
:1030D000984207D18168164A1140062908D0B1F5F7
:1030E000803F05D0016841F0010100E002E001608D
:1030F000002030BD84F83E00C4E784F83F00C1E7FB
:1031000084F84000BEE784F84100BBE784F8420041
:10311000B8E70000002C01400034014000400140AD
:103120000044014000480140000400400008004005
:103130000700010010B508490068096888420AD1F3
:103140000648FDF709FE06490888401C0880054925
:103150000888401C088010BDF400002024000020D6
:10316000160000201A000020704790F884100129F2
:1031700018D0012180F884102421C0F8881001683B
:103180000A680B6823F001030B6022F00051002253
:103190004266036819602021C0F8881080F88420F6
:1031A000104670470220704770B5044690F88400BE
:1031B00001281DD0012084F884002420C4F8880050
:1031C00020680568026822F00102026020688268B7
:1031D00022F060620A438260204601F043FC2068CE
:1031E00005602020C4F88800002084F8840070BDA9
:1031F000022070BD70B5044690F8840001281DD0EF
:10320000012084F884002420C4F888002068056820
:10321000026822F0010202602068826822F06042A7
:103220000A438260204601F01DFC206805602020D2
:10323000C4F88800002084F8840070BD022070BDAE
:1032400010B5040003D0D4F8880010B107E00120C5
:1032500010BD002084F88400204600F027F82420C8
:10326000C4F888002068016821F001010160A06AAB
:1032700010B1204601F018FC204601F0F9FC0128AD
:10328000E6D02068416821F490414160206881685F
:1032900021F02A0181602068016841F0010101608C
:1032A0002046BDE8104001F063BC000010B598B0A6
:1032B0000446142111A8FCF7E5FF44216846FCF7F9
:1032C000E1FF16492068884226D101200024CDE97B
:1032D00000046846FEF768FC08B1FDF73CFA1048A8
:1032E000016E41F480410166016E01F48041169146
:1032F000C16C41F00201C164C06C11A900F0020070
:103300001690C02011900220CDE912040720CDE9CB
:1033100014400448FEF76CFA18B010BD00380140A4
:1033200000100240000400482DE9F8430446D0F89C
:1033300088001F4615460E46202802D00220BDE810
:10334000F883AEB1A5B10020C4F890002120C4F8E4
:1033500088001834FEF72AFBA5878146E58754F8D4
:10336000100C183C4FF02008B0F5805F02D003E04D
:103370000120E4E7206910B13546002610E0002561
:103380000EE08021204601F0ABFDB8B9D5B115F8AB
:10339000010B21688862B4F85600401EA4F856005C
:1033A000B4F856004B464FF0000200970028E8D1D1
:1033B0004FF04001204601F093FD40B1C4F88880F1
:1033C0000320BCE736F8020BC0F30800E1E7C4F8BD
:1033D00088800020B3E7FEE7D0ED0A0AD0ED031A9B
:1033E00090ED0B1A90ED020A20EEA12A01EE402A80
:1033F00021EE211A00EE801A80ED0C2A80ED0D1AC4
:1034000070472DE9F04106461D4617460C462A2016
:1034100000F026FA304600F019FA384600F016FAA5
:103420002B2000F01DFA1834A0B200F00FFA183566
:10343000A8B200F00BFABDE8F0412C2000F010BA61
:1034400010B514460B460246FFF7DBFF2046BDE8E9
:10345000104000F0FBB92DE9F04780461F46581E8A
:1034600083B21646501E82B20D464046DDF82090CB
:10347000FFF7C7FF0AE0444604E0484600F0E6F9DB
:10348000641CA4B2B442F8D36D1CADB2BD42F2D3F9
:10349000BDE8F08738B5804D4FF400640022214626
:1034A0002846FEF77DFA6420FEF790F901222146B6
:1034B0002846FEF775FAC820FEF788F9112000F0BB
:1034C000CFF97820FEF782F9202000F0C9F9B12069
:1034D00000F0C6F9052000F0D7F93C2000F0D4F93F
:1034E0003C2000F0D1F9B22000F0BAF9052000F03C
:1034F000CBF93C2000F0C8F93C2000F0C5F9B3201E
:1035000000F0AEF9052000F0BFF93C2000F0BCF956
:103510003C2000F0B9F9052000F0B6F93C2000F09D
:10352000B3F93C2000F0B0F9B42000F099F9032081
:1035300000F0AAF9C02000F093F9AB2000F0A4F944
:103540000B2000F0A1F9042000F09EF9C12000F04A
:1035500087F9C52000F098F9C22000F081F90D200C
:1035600000F092F9002000F08FF9C32000F078F904
:103570008D2000F089F96A2000F086F9C42000F05F
:103580006FF98D2000F080F9EE2000F07DF9C52064
:1035900000F066F90F2000F077F9E02000F060F904
:1035A000072000F071F90E2000F06EF9082000F0FD
:1035B0006BF9072000F068F9102000F065F907208A
:1035C00000F062F9022000F05FF9072000F05CF9DA
:1035D000092000F059F90F2000F056F9252000F0DD
:1035E00053F9362000F050F9002000F04DF9082082
:1035F00000F04AF9042000F047F9102000F044F9E7
:10360000E12000F02DF90A2000F03EF90D2000F035
:103610003BF9082000F038F9072000F035F90F20B9
:1036200000F032F9072000F02FF9022000F02CF909
:10363000072000F029F9092000F026F90F2000F0FA
:1036400023F9252000F020F9352000F01DF9002095
:1036500000F01AF9092000F017F9042000F014F91D
:10366000102000F011F93A2000F0FAF8052000F0DF
:103670000BF9362000F0F4F8A82000F005F9292015
:1036800000F0EEF84FF6FF70002100905023A022CA
:103690000846FFF7E0FE38BD000800482DE9FF4F5F
:1036A00083B00746DDF8449000904FEA590A4FF086
:1036B00000085FEA4A7000D0012000EBDA0000FB4E
:1036C00009F001900498203A4844401E83B207EB69
:1036D0000A0002F0FF0B401E82B238460499FFF741
:1036E00090FE002550E0B9F10C0F28D0B9F1100F71
:1036F0002BD0B9F1180F2CD0B9F1200F47D12749A1
:1037000001EB8B100024465D129800284FF0010059
:1037100000FA04F000EA060021D020B13846069AEB
:103720000499FFF78DFE7F1C0098BFB2391A5145EE
:1037300024D10498009F401C80B2049022E01849D4
:103740000BEB4B0001EB8000DCE7164901EB0B10A3
:10375000D8E715490BEB4B0001EB0010D2E708B19D
:10376000069800E0109800F071F808F10100C0B26E
:10377000B0FBFAF280460AFB128058B1641CE4B236
:10378000082CC1D36D1CADB201988542ABD307B0F4
:10379000BDE8F08F4FF00008F4E70000466E000827
:1037A0001252000886560008765C00082DE9FF4F8B
:1037B00080462DED020B83B0DFED230ADDE912A771
:1037C00020EE200A7E0815460024BCEEC00A10EE4A
:1037D000100A1FFA80FB31E0281B401EC1B20A20EC
:1037E00001F0EFFCBBFBF0F00A21B0FBF1F201FBB2
:1037F0001209A81E844210D10021CDF800A0CDE905
:10380000017100FB068080B22E22089B0699FFF70B
:1038100045FF641C6D1CE4B2EDB20021CDF800A0A0
:1038200009F13000CDE90171C2B204FB068080B21B
:10383000089B0699FFF732FF641CE4B2AC42CBD37D
:1038400009B0BDE8F08F00000000C84210B5044682
:10385000000A00F019F8E0B2BDE8104000F014B81A
:1038600070B5084C0546002204212046FEF798F862
:10387000284600F009F82046BDE8704001220421E6
:10388000FEF78EB8000C004831B54FF400444FF0FD
:103890009045002221462846FEF782F801231A4669
:1038A00069460448FEF7A8FE012221462846FEF795
:1038B00077F838BD9000002000EB8100006E00F02A
:1038C000F840704700EB8100006E00F0F840704750
:1038D0008068C0F3C00070478068C0F3C0007047C4
:1038E0008068C0F3000070478068C0F30000704734
:1038F0008068C0F3800070478068C0F38000704724
:10390000C06810F4406F01D000207047012070475C
:10391000042303EAD15310B518444369C1F3045199
:1039200007248C40A3438A401343436110BD042302
:1039300003EAD15310B518444369C1F30451072475
:103940008C40A3438A401343436110BD00EB8100C8
:10395000016E21F0004111430166704700EB8100C8
:10396000016E21F000411143016670471CB50E4CF9
:1039700020880A2810D0142815D110214FF6FF7086
:10398000CDE9000109480023052290ED300A1846D0
:10399000FFF70CFF0A2005E06088142803D30020FD
:1039A0006080142020801CBD140000202002002014
:1039B000074908880A2803D0142808D10A2005E0FE
:1039C0004888C82803D30020488014200880704706
:1039D0001000002070B598B020210FA8FCF752FC11
:1039E0003C216846FCF74EFC4448434900240160F2
:1039F0004FF44031C0E90114042585610121C46000
:103A0000C0E90441047744770321016280F824402F
:103A1000C462046380F83840C46380F84040FDF716
:103A200077FD08B172B6FEE735480F9010A9062061
:103A30007F2681E85100CDE913540FA92F48FDF7E7
:103A400021FA08B172B6FEE72E480F900C201090B4
:103A50000FA92A48FDF716FA08B172B6FEE72A4800
:103A60000F90122010900FA92448FDF70BFA08B10F
:103A700072B6FEE72548009001A9092081E85100AF
:103A8000CDE904548DF824408DF8254008958DF833
:103A900026400A940B948DF8304069461748FCF78D
:103AA000AFFE08B172B6FEE71948009040F20F1061
:103AB000019069461148FCF7A3FE08B172B6FEE713
:103AC0001448009040F21520019069460B48FCF71D
:103AD00097FE08B172B6FEE70F48009040F21B3027
:103AE000019069460548FCF78BFE002801D072B6AC
:103AF000FEE718B070BD0000000100502400002057
:103B00002000F0141000C010002090360800900C27
:103B1000000052470008302E001060322DE9F04FAF
:103B200087B014216846FCF7ADFB4048C16C41F0FA
:103B30000401C164C16C01F004010591C16C41F044
:103B40002001C164C16C01F020010591C16C41F0FC
:103B50000101C164C16C01F001010591C16C41F02A
:103B60000201C164C16C01F002010591C16C41F018
:103B70000801C164C06CDFF8B88000F008004FF4A1
:103B800060440590012221464046FDF709FF4FF0B1
:103B90009049002207214846FDF702FFDFF894A074
:103BA000002201215046FDF7FBFE0122D1034846C9
:103BB000FDF7F6FE4FF40067002239464046FDF758
:103BC000EFFEDFF874B0002204215846FDF7E8FE4E
:103BD000009401240025CDE901456946404603953E
:103BE000FDF706FE48F2070003268DE871006946DE
:103BF0004846FDF7FDFD01AA009482E87000694681
:103C00005046FDF7F5FD01AA009782E8700069466D
:103C10004046FDF7EDFD04208DE8710069465846E9
:103C2000FDF7E6FD07B0BDE8F08F00000010024090
:103C30000008004800040048000C0048124810B575
:103C4000104901604FF4827141604FF4004181607E
:103C50004FF4E061C16000214FF400720161C0E9DE
:103C600005121022C0E9072107224162C0E90A12A9
:103C7000016308214163FEF715FC002801D072B6EC
:103C8000FEE710BD003C00409000002010B59CB045
:103C9000002419941A9417941894149415941C21C0
:103CA00068461694FCF7EEFA342107A8FCF7EAFA06
:103CB00039483849C0E900142021816041F29A0155
:103CC000C0E903140121416180218161FEF711FEE9
:103CD00008B172B6FEE74FF48050179017A92E482E
:103CE000FEF792FE08B172B6FEE72B48FFF76BF9BC
:103CF00008B172B6FEE71494159414A926481694D8
:103D0000FEF7A8FD08B172B6FEE77020CDE9000409
:103D10000294039404940594002269461E48069474
:103D2000FFF7BFF808B172B6FEE7042269461A48E9
:103D3000FFF7B7F808B172B6FEE7082269461648E1
:103D4000FFF7AFF808B172B6FEE70C2269461248D9
:103D5000FFF7A7F808B172B6FEE707940894099434
:103D60004FF400500A94CDE90B400D9400030E94DB
:103D7000CDE90F401194129407A907481394FEF758
:103D800017FD08B172B6FEE70348FFF75FF81CB0F5
:103D900010BD0000002C0140F400002010B58CB0D4
:103DA00024216846FCF76EFA0024164809940A9408
:103DB00013490B94C0E9001440F6FF71C0E90241B9
:103DC000046184610320CDE900040120CDE90204EF
:103DD0000494CDE90540079469460A480894FEF723
:103DE00093FE08B172B6FEE7099409A905480B9441
:103DF000FEF730FD002801D072B6FEE70CB010BD12
:103E00000004004040010020164810B5144901602C
:103E100015494160002181600C22C160C0E9041293
:103E20008161C161016241628162FFF709FA08B1F3
:103E300072B6FEE700210B48FFF7DCF908B172B655
:103E4000FEE700210748FFF7AFF908B172B6FEE7B9
:103E50000448FFF78AF9002801D072B6FEE710BDCA
:103E6000003801408C01002000941100FEE70000A2
:103E700044480021012200F8341B00F8331C02776B
:103E80009FED410AB0EE001A80ED140A9FED3F0A43
:103E9000F1EE040A80ED130A02723222427240F6F9
:103EA000FF7202610183817642F23411A0F8901012
:103EB00041F67861A0F89210A0F8DE219FED340A57
:103EC000A0F8B02180ED730A9FED320AB1EE082A06
:103ED00080ED700A9FED300AF9EE081A80ED1D0A98
:103EE00080ED1E0A9FED2D0A80ED1B0A80ED1C0A55
:103EF00080ED3B0A80ED2A0A80ED3C1A80ED2B1AFA
:103F0000C0ED410AC0ED300ADFED250AC0ED380AE8
:103F1000C0ED390A80ED3A0A80ED442ADFED210A2E
:103F2000C0ED451AC0ED270AC0ED280A80ED290A28
:103F300080ED332AC0ED341AC0ED490AC0ED580AAD
:103F4000C0ED590ADFED180AC0ED4A0A80ED551A96
:103F5000F8EE000AC0ED560ADFED140AC0ED520A71
:103F6000F6EE000AC0ED5A0A80ED5B0A80ED5C0AAD
:103F70009FED0F0A80ED660A9FED0E0A80ED670A3D
:103F800070470000200200200000843C8906933C1A
:103F9000CDCC4C3D00801243CDCCCC3D0000000088
:103FA0006F12833A0AD7A33B6F12033A00004843CB
:103FB00000C05A4600C05AC610B5FFF759FF00F0BE
:103FC000B7FABDE8104000F0B5BA000070B51D4862
:103FD0000546FCF743FA2846FCF76CFA194C503CAE
:103FE000217821B194F8510001280CD016E0284620
:103FF000FCF701FA00F02EF894F85100012801D1E5
:104000000420207070BD1049606F104A0144914235
:1040100002D30F49884201DB022020702078022859
:1040200001D0042803D0BDE8704000F013B8054863
:104030001438FCF72AFA00F07DFABDE8704000F071
:1040400089B90000700200200000C0BFCDCCFC0088
:104050000000C8410348002120F8C81F418081802A
:10406000C180704720020020FEE790ED030AD0EDEA
:10407000050A70EE600AC0ED070A90ED090AF4EE39
:10408000C00AF1EE10FA01DB80ED070AD0ED070A55
:10409000B1EE400AF4EEC00AF1EE10FA01D880ED5C
:1040A000070AD0ED060A90ED0C1A90ED0D0AF4EE19
:1040B000C10AF1EE10FA0CD2F4EEC00AF1EE10FAD9
:1040C00007DDD0ED0B0AD0ED071A70EEA10AC0EDA6
:1040D0000B0AD0ED001AD0ED070A90ED012AD0EDC1
:1040E0000B2A61EEA01A42EE221A90ED082AD0EDBA
:1040F000022A30EEC22A42EE821AC0ED061AF4EE0F
:10410000C11AF1EE10FA02DAB0EE611A01E080EDA8
:10411000061AB4EEC01AF1EE10FA01D880ED060AC4
:10412000C0ED080A7047D0ED000AD0ED031A90EDFB
:10413000011A90ED020A20EEA12A01EE002A21EEDA
:10414000211A00EEC01A80ED042A80ED051A70478E
:104150007047F8B515460E460B46009204460022FD
:104160004FF4C05100F01AF888B93346002280217C
:104170002046009500F080F848B9334600224FF4FD
:10418000C0612046009500F009F8002804D0206E98
:1041900040F0200020660320F8BD00002DE9FC5F00
:1041A0004FF0000B984616460F4604460C9D8DF8BE
:1041B00004B0FDF7FBFB411BA8EB0105FDF7F6FB87
:1041C0008246206800F10C092A480068C0EBC00054
:1041D00000EB8000000D684343E0B7F5C06F06D1E7
:1041E0002EB999F800008DF804009DF80400B8F18C
:1041F000FF3F37D0FDF7DAFBA0EB0A00A84203D25D
:1042000015B1009858B32BE02068416821F0E00117
:1042100041606068B0F5827F0BD1A068B0F5004FB7
:1042200002D0B0F5806F04D12068016821F0400110
:104230000160A06AB0F5005F09D12068016821F42F
:10424000005101602068016841F4005101600120C3
:1042500084F85D0084F85CB00320BDE8FC9F002575
:10426000401E0090206880683840B042B5D10020E0
:10427000F3E700000C0000202DE9F8431E469146AC
:1042800088460446089DFDF791FB401B351AFDF753
:104290008DFB074625480068C0F3CB30684338E003
:1042A000701C37D0FDF782FBC01BA84203D215B1AA
:1042B000009860B32CE02068416821F0E001416083
:1042C0006068B0F5827F0BD1A068B0F5004F02D0D6
:1042D000B0F5806F04D12068016821F040010160D1
:1042E000A06AB0F5005F09D12068016821F400518F
:1042F00001602068016841F400510160012084F8E8
:104300005D00002084F85C000320BDE8F8830025F0
:10431000401E00902068816838EA010004D0002027
:104320004845BDD10020F0E70120F9E70C0000204E
:104330007047B4EEE00AF1EE10FA02D2B0EE600A75
:104340007047B4EEC10AF1EE10FAF9DDB0EE410AA1
:10435000704700002DE9F041714C2DED028BB7EE56
:10436000008A94ED1D0A84ED300A6078DFED6D8AD5
:1043700004F1880790B1254605F1940205F58A7687
:10438000111FD035F6EE000A022843D02346032839
:1043900093ED120A7DD0042814D1BCE0C4ED2D8A1F
:1043A000C4ED248AC4ED258A94F84E00DFED5E0A40
:1043B0005B4991ED2C0A30EE200AD1ED0E0A10B1C6
:1043C000012811D09DE0B4EEE00A84ED2C0AF1EE54
:1043D00010FA84ED248A06DBC4ED2C8AC4ED248A0D
:1043E000012084F84E008CE0B4EEE00A84ED2C0A43
:1043F000F1EE10FA84ED258A0BDB34F8400FA08132
:104400000020A073C4ED1C8AC4ED158A032004F8B3
:104410003F0C76E04548C4ED370AF1EE040A90ED12
:10442000000A30EE200A80ED000AD4ED110AB8EE41
:10443000E01AB4EEC01AF1EE10FA05D8B8EEE01AA0
:1044400030EE410A80ED000AB5EEC00AF1EE10FA36
:1044500005D2F8EEE00A30EE800A80ED000ABDEEEB
:10446000C00A10EE100AFCF743F894ED1B0A384618
:1044700084ED220A94ED1C0A84ED230AFFF753FE13
:1044800094ED260AD4ED2A0A94ED281A20EE200A8B
:1044900000E028E078EE600A304601EE200A84ED64
:1044A000280A94ED271AD4ED2B0AD4ED291A21EE0F
:1044B000201A78EE600A01EEA01A84ED291A84ED24
:1044C0004A0AFFF7D2FD94ED290A284684ED390AFD
:1044D000FFF7CBFD94ED4B0A84ED2C0A94ED3A0ADC
:1044E00084ED2D0A0DE0B8EEC00ABDEEC00A10EE54
:1044F000100AFBF7FDFFB0EE080A84ED2C0AC4EDAC
:104500002D8A3846FEF768FFBDEC028B3846BDE8C1
:10451000F041FCF76DB8C4ED370AB8EEC00A9EE76B
:10452000200200200000000017B7D1381C00002036
:104530007047000010B50B4C94ED491A94ED480AF1
:10454000F1EE410AFFF7F5FE84ED480A94ED491AB1
:1045500094ED370AF1EE410AFFF7EBFE84ED370ADE
:1045600010BD000020020020FDF726BA10B594B05F
:1045700038216846FBF786FE14210EA8FBF782FE61
:104580000020FDF7ABFA0120009000040324042171
:104590000190CDE9084102205521CDE90A1007908C
:1045A0000C900D906846FDF783FD08B172B6FEE7EA
:1045B0000F20CDE90E0400201090119012900421DC
:1045C0000EA8FDF73FFC002801D072B6FEE714B03C
:1045D00010BD00000248016841F47001016070479D
:1045E00088ED00E00148FEF75FBB0000F40000200A
:1045F0002DE9F0430268264C264D274E274B4FF0FD
:104600008049A04207D0484505D0A84203D0B04217
:1046100001D0984203D122F070074A683A43204FF4
:10462000DFF880C0DFF88080A0420DD048450BD075
:10463000A84209D0B04207D0984205D0B84203D072
:10464000604501D0404503D122F44075CA682A4331
:104650004D6922F080022A4302608A68C2620A68B9
:104660008262A04207D0984205D0B84203D060458C
:1046700001D0404501D1096901630121416101690E
:10468000C90703D0016921F001010161BDE8F08390
:10469000002C0140000400400008004000340140AC
:1046A00000400140004401400048014010B501F0C5
:1046B0001F010123046A8B409C430462036A8A4001
:1046C0001343036210BD10B5846842EA032224F448
:1046D0007F440A432243826010BD00008268034B7E
:1046E0001A400A4342F00701816070478FFFCFFFF5
:1046F0002DE9F043056A026A22F001020262426873
:1047000083691C4C25F0020523400C6823F0030349
:104710001C438B68194E2B43174D194FDFF864C0AB
:10472000DFF86490A84207D0B04205D0B84203D069
:10473000604501D0484506D123F00808CB6843EA1C
:10474000080323F00403A84207D0B04205D0B842C2
:1047500003D0604501D0484505D14D6922F440722F
:1047600015438A692A434260846149684163036250
:10477000BDE8F0838FFFFEFF002C014000340140B4
:10478000004001400044014000480140F0B5046A87
:10479000026A22F01002026242688369194D1B4EC0
:1047A0002B400D6823F4407343EA052524F02003D1
:1047B0008C6843EA0413144CA04201D0B04206D1E5
:1047C000CF6823F0800343EA071323F04003A0429D
:1047D0000AD0B04208D00E4CA04205D00D4CA042E9
:1047E00002D00D4CA04207D14C6922F4406242EA4B
:1047F00084028C6942EA840242608561496881636F
:104800000362F0BDFF8FFFFE002C01400034014029
:10481000004001400044014000480140F0B5056AF5
:10482000026A22F4807202624268C369194C1B4E0C
:1048300023400C6823F003031C4325F400738D68A8
:1048400043EA0523144DA84201D0B04206D1CF68F7
:1048500023F4006343EA072323F48063A8420AD0C9
:10486000B04208D00E4DA84205D00E4DA84202D04D
:104870000D4DA84207D14D6922F4405242EA05127B
:104880008D6942EA05124260C4614968C1630362EE
:10489000F0BD00008FFFFEFF002C014000340140FE
:1048A000004001400044014000480140F0B5046A66
:1048B000026A22F4805202624268C369194D1B4E9B
:1048C0002B400D6823F4407343EA052524F400537C
:1048D0008C6843EA0433144CA04201D0B04206D1A4
:1048E000CF6823F4004343EA073323F48043A04214
:1048F0000AD0B04208D00E4CA04205D00D4CA042C8
:1049000002D00D4CA04207D14C6922F4404242EA49
:1049100084128C6942EA84124260C561496801646C
:104920000362F0BDFF8FFFFE002C01400034014008
:1049300000400140004401400048014030B5046A95
:10494000026A22F4803202624268036D114D2B40EC
:104950000D681D4324F400330C8943EA04430E4CD4
:10496000A0420BD00D4CA04208D00D4CA04205D067
:104970000C4CA04202D00C4CA04204D14C6922F451
:10498000803242EA0422426005654968816403621C
:1049900030BD00008FFFFEFF002C014000340140BD
:1049A00000400140004401400048014030B5046A25
:1049B000026A22F4801202624268036D114D24F4EF
:1049C00000142B400D6843EA05230D8944EA055481
:1049D0000D4DA8420BD00D4DA84208D00C4DA84259
:1049E00005D00C4DA84202D00B4DA84204D14D6910
:1049F00022F4802242EA8522426003654968C1644C
:104A0000046230BDFF8FFFFE002C014000340140E6
:104A100000400140004401400048014010B5046AD4
:104A2000036A23F001030362836923F0F00343EA7E
:104A3000021324F00A020A438361026210BD10B51A
:104A4000036A046A24F010040462846923F0A0035A
:104A500024F4704444EA023243EA011182610162A3
:104A600010BD000030B5416EB9B10268916892681E
:104A7000C1F342610B4C520FA35CDD0004F108034B
:104A80009A5CB5FBF2F2A0F86A20625C595CD20035
:104A9000B2FBF1F1A0F8681030BD0121A0F86A1056
:104AA000F8E70000EA51000890F82810090706D539
:104AB00001684A68836B22F400421A434A6090F806
:104AC0002810C90706D001684A68C36A22F4003278
:104AD0001A434A6090F82810890706D501684A6889
:104AE000036B22F480321A434A6090F82810490779
:104AF00006D501684A68436B22F480221A434A6053
:104B000090F82810C90606D501688A68C36B22F49C
:104B100080521A438A6090F82810890606D50168E9
:104B20008A68036C22F400521A438A6090F82810B5
:104B3000490611D501684A68436C22F480121A4371
:104B40004A60416CB1F5801F06D101684A68836CE8
:104B500022F4C0021A434A6090F82810090606D5CC
:104B600001684A68C06C22F4002202434A60704720
:104B70002DE9F84300250446C0F89050FCF716FFD5
:104B80008046206800684FF0200600076FF07E47DF
:104B900013D54346002231042046009700F0A0F9C7
:104BA00058B1206850E8001F21F0800140E8001251
:104BB000002AF6D1C4F8886021E020680068400728
:104BC00022D5434600224FF480012046009700F092
:104BD00087F9C8B1206850E8001F21F4907140E8BF
:104BE0000012002AF6D12068083050E8001F21F09A
:104BF000010140E80012002AF5D1C4F88C6084F865
:104C000084500320BDE8F883C4F88860C4F88C6041
:104C100044F86C5F656025760020F3E710B5016805
:104C200051E8002F22F4907241E80023002BF6D1C6
:104C30000E4B0168083151E8002F1A4041E800246A
:104C4000002CF6D1C16E012908D1016851E8002F6E
:104C500022F0100241E80023002BF6D12021C0F8F9
:104C60008C100021C166416710BD0000FEFFFFEF00
:104C70002DE9F041044600682269A168E669114304
:104C800062690025324311438A4B02688A4E3240E2
:104C90000A43026020684168E26821F440511143F0
:104CA00041602168A069994201D0226A10438A6854
:104CB000824E324002438A602068C16A626A21F0F3
:104CC0000F011143C1627E4922687E488A420DD19C
:104CD000D0F8880010F0030006D0012855D0022833
:104CE00042D003283FD152E001203DE076498A427C
:104CF0000BD1D0F8880010F00C0035D0042833D048
:104D0000082840D00C282ED141E070498A420BD1AE
:104D1000D0F8880010F0300026D0102835D0202898
:104D200031D030281FD132E069498A420BD1D0F806
:104D3000880010F0C00017D0402826D0802822D04C
:104D4000C02810D123E09A420DD1D0F8880010F489
:104D5000406009D0B0F5806F17D0B0F5006F12D069
:104D6000B0F5406F13D010205A495B4E00274FF426
:104D7000004C9A423BD160B1022813D004280BD0DA
:104D8000082872D10DE00220EEE70420ECE70820AD
:104D9000EAE7FDF73DF901E0FDF75EF9010001D119
:104DA0007CE06146606A36F810206668B1FBF2F07C
:104DB00006EB4603834270D8B0EB063F6DD8002364
:104DC00008461946FBF726FA090241EA1061020279
:104DD00070081018794132460023FBF71BFA3F4A4E
:104DE000A0F54071914258D82168C86056E0E26948
:104DF0004FF6EF7862452CD109284ED2DFE800F05B
:104E00000508114D0D4D4D4D1000FDF701F901E064
:104E1000FDF710F9010004D140E0FDF71DF9F9E7B5
:104E20006146606A36F81000B1FBF0F0410060683E
:104E300001EB5001B1FBF0F0A0F1100141452CD87D
:104E40004FF6F0710140C0F3420001432068C16099
:104E500024E0092821D2DFE800F0050912200E2005
:104E600020201100FDF7D4F802E016E0FDF7E2F88B
:104E7000010004D112E0FDF7EFF8F9E76146606A3E
:104E800036F81000B1FBF0F1606801EB5001B1FBA6
:104E9000F0F0A0F1100141450AD901250120A4F844
:104EA0006A0024F8680F2846E7602761BDE8F081B2
:104EB00080B299E700800040F369FFCFFFF4FF1153
:104EC000003801400010024000440040004800400B
:104ED000004C00400024F400D2510008FFFC0F00F9
:104EE0002DE9F0471F4690460D4604464FF0000955
:104EF000089E32E0701C30D0FCF758FDC01BB04259
:104F000018D8BEB120680168490726D5802D24D065
:104F1000402D22D0C169C94309070DD40825056277
:104F20002046FFF77BFEC4F8905084F8849001205F
:104F3000BDE8F0870320FBE7C069C04300050CD43F
:104F400021684FF4006008622046FFF767FE2020CA
:104F5000C4F8900084F88490ECE72068C06935EAD2
:104F6000000004D000204045C4D00020E0E701202C
:104F7000F9E7FEE71CB50F4C20880A2811D0142849
:104F800016D10D48B0F84C2090F83D10CDE9001234
:104F900010F83C3FC268416808A000F017F80A20EA
:104FA00005E06088C82803D300206080142020809A
:104FB0001CBD0000180000202002002025642C25C4
:104FC000642C25642C25642C25640A000FB4054B41
:104FD00010B503A9044A029800F028F810BC5DF847
:104FE00014FB000081510008200000200907090E71
:104FF000002804DB00F1E02080F80014704700F086
:105000000F0000F1E02080F8141D704702E008C88E
:10501000121F08C1002AFAD170477047002001E032
:1050200001C1121F002AFBD1704700002DE9FF4F7C
:1050300089B09B460446002506E025280BD05A4639
:105040000B999047641C6D1C20780028F5D10DB099
:105050002846BDE8F08F0027B8460122474900E006
:10506000074314F8013F203B02FA03F00842F7D14E
:1050700020782E2819D114F8010F47F004072A28A8
:105080000ED06FF02F022078A0F1300109290CD842
:1050900008EB880102EB410100EB0108641CF2E718
:1050A0000A98641C50F8048B0A9020780028CED00F
:1050B000642808D0692806D075281ED05A460B9956
:1050C00090476D1C58E00A994FF00A0901C90A91EE
:1050D000002802DA40422D2102E0390504D52B21B7
:1050E0008DF82010012103E0F90704D02021F7E713
:1050F0008A4608AE0DE00021FAE70A994FF00A0946
:1051000001C90A91F7E74946FBF7C7F8303106F8BD
:10511000011D0028F7D1ADEB060000F1200978074A
:1051200001D44FF00108C84502DDA8EB090000E0FA
:1051300000208046002706E008A85A46C05D0B996B
:1051400090476D1C7F1C5745F6DB04E030205A4623
:105150000B9990476D1CB8F10001A8F10108F5DC2E
:1051600005E016F8010B5A460B9990476D1CB9F1F2
:105170000001A9F10109F4DC641C65E709280100BC
:1051800013B54FF6FF73012269460248FEF7CCF8CB
:1051900000981CBD8C010020FCF716FCFFF7E6F917
:1051A000FEF7BCFCFEF716FCFEF770FDFEF7F6FD01
:1051B000FEF744FDFEF728FEFBF7D0FAFBF716FBDF
:1051C000FCE70346012000E05843491EC9B2FBD268
:1051D0007047010002000400060008000A000C00ED
:1051E00010002000400080000001010101030701C0
:1051F0000000080402040801010100000000000092
:105200000000010203040607080900000000010273
:105210000304000000000000000000000000000087
:105220000404040404000004000014140A00000034
:1052300000000000000000000A0A1F0A0A1F0A0AF4
:10524000000000040E1505060C14150E04000000E5
:1052500012150D152E2C2A1200000000040A0A3621
:1052600015152916000002020100000000000000D0
:1052700000001008080404040404080810000204D4
:105280000408080808080404020000000004150EC1
:105290000E150400000000000008083E0808000089
:1052A00000000000000000000000020201000000F9
:1052B0000000003F000000000000000000000000AF
:1052C0000000000200000020101008080404020280
:1052D000010000000E1111111111110E000000004B
:1052E000040604040404040E000000000E1111085A
:1052F0000402011F000000000E11100C1010110E0E
:1053000000000000080C0C0A091F081C0000000027
:105310001F01010F1110110E000000000C12010DF1
:105320001311110E000000001E10080804040404EC
:10533000000000000E11110E1111110E00000000EE
:105340000E111119161009060000000000000400DB
:105350000000000400000000000000040000000441
:1053600004000000100804020204081000000000FD
:1053700000003F003F000000000000000204081091
:1053800010080402000000000E11110804040004BB
:10539000000000001C22292D2D1D221C00000000F1
:1053A00004040C0A0A1E1233000000000F12120E31
:1053B0001212120F000000001E1101010101110E56
:1053C000000000000F1212121212120F0000000053
:1053D0001F120A0E0A02121F000000001F120A0EFE
:1053E0000A020207000000001C1201013911120C10
:1053F000000000003312121E1212123300000000CF
:105400001F0404040404041F000000003E080808F0
:10541000080808080907000037120A060A1212379E
:1054200000000000070202020202223F000000000A
:105430003B1B1B1B15151535000000003B121616F3
:105440001A1A1217000000000E1111111111110E7D
:10545000000000000F12120E0202020700000000FE
:105460000E1111111117190E180000000F12120E53
:105470000A121237000000001E1101060810110F59
:10548000000000001F1504040404040E00000000C6
:10549000331212121212120C000000003312120A00
:1054A0000A0C040400000000151515150E0A0A0A5E
:1054B000000000001B0A0A04040A0A1B0000000086
:1054C0001B0A0A0A0404040E000000001F09080455
:1054D0000402121F00001C04040404040404040455
:1054E0001C000002020404040808081010000E0842
:1054F00008080808080808080E00040A0000000050
:10550000000000000000000000000000000000009B
:10551000003F020400000000000000000000000046
:105520000000000C121C123C000000030202020EDC
:105530001212120E000000000000001C1202120CD9
:10554000000000181010101C1212123C0000000085
:105550000000000C121E021C000000182404041E8F
:105560000404041E000000000000003C120C021C99
:10557000221C00030202020E121212370000000465
:10558000040000060404040E000000080800000CDB
:1055900008080808080700030202021A0A060A138C
:1055A00000000007040404040404041F00000000B9
:1055B0000000000F15151515000000000000000F79
:1055C00012121237000000000000000C1212120C20
:1055D000000000000000000F1212120E020700006F
:1055E0000000001C1212121C103800000000001BEA
:1055F00006020207000000000000001E020C101E40
:10560000000000000004041E0404041C000000004C
:105610000000001B1212123C000000000000001BE2
:105620000A0A04040000000000000015150E0A0A12
:10563000000000000000001B0A040A1B000000001C
:105640000000003312120C08040300000000001ECA
:105650000804041E000018080808080C08080808B8
:1056600018000808080808080808080808080604B8
:1056700004040408040404040600160900000000E1
:10568000000000000000000000000000000000001A
:1056900000000000000000000008080808080808D2
:1056A00000001818000000486C24120000000000E0
:1056B0000000000000000000002424247F121212C9
:1056C0007F12121200000000081C2A2A0A0C182857
:1056D000282A2A1C080800000022251515152A581A
:1056E0005454542200000000000C1212120A7625B5
:1056F0002911916E0000000606040300000000005E
:1057000000000000000000402010100808080808F1
:10571000081010204000000204080810101010109B
:105720001008080402000000000008086B1C1C6B35
:1057300008080000000000000000080808087F08B2
:105740000808080000000000000000000000000041
:105750000000060604030000000000000000FE0038
:105760000000000000000000000000000000000039
:1057700000000606000000008040402020101008B5
:10578000080404020200000000182442424242427F
:10579000424224180000000000080E08080808080B
:1057A0000808083E00000000003C42424220201051
:1057B0000804427E00000000003C424220182040C5
:1057C0004042221C00000000002030282424222215
:1057D0007E20207800000000007E0202021A26408F
:1057E0004042221C0000000000382402021A264217
:1057F0004242241800000000007E222210100808F7
:105800000808080800000000003C42424224182416
:105810004242423C000000000018244242426458C8
:105820004040241C00000000000000001818000088
:105830000000181800000000000000000008000030
:1058400000000008080400000040201008040204C2
:105850000810204000000000000000007F00000051
:105860007F0000000000000000020408102040201B
:105870001008040200000000003C42424640201094
:105880001000181800000000001C225A55555555EC
:105890002D42221C00000000000808181414243CAB
:1058A000224242E700000000001F2222221E224264
:1058B0004242221F00000000007C4242010101011F
:1058C0000142221C00000000001F224242424242CC
:1058D0004242221F00000000003F4212121E12121C
:1058E0000242423F00000000003F4212121E12120C
:1058F0000202020700000000003C222201010171A7
:105900002122221C0000000000E7424242427E4267
:10591000424242E700000000003E0808080808086C
:105920000808083E00000000007C10101010101045
:1059300010101010110F0000007722120A0E0A1228
:105940001222227700000000000702020202020277
:105950000202427F000000000077363636362A2ADF
:105960002A2A2A6B0000000000E346464A4A5252A7
:105970005262624700000000001C22414141414147
:105980004141221C00000000003F424242423E02D0
:105990000202020700000000001C22414141414177
:1059A0004D53321C60000000003F4242423E121242
:1059B000222242C700000000007C4242020418205C
:1059C0004042423E00000000007F490808080808E5
:1059D0000808081C0000000000E742424242424220
:1059E0004242423C0000000000E7424222242414CC
:1059F0001418080800000000006B49494949555532
:105A0000362222220000000000E742242418181841
:105A1000242442E700000000007722221414080822
:105A20000808081C00000000007E21201010080457
:105A30000442423F000000780808080808080808E7
:105A4000080808087800000002020404080808108A
:105A5000102020204040001E1010101010101010B8
:105A6000101010101E00003844000000000000005C
:105A70000000000000000000000000000000000026
:105A80000000000000FF0006080000000000000009
:105A9000000000000000000000000000003C427810
:105AA000444242FC0000000000030202021A2642A7
:105AB0004242261A000000000000000000384402A4
:105AC0000202443800000000006040404078444238
:105AD000424264D80000000000000000003C427E0A
