:020000040800F2
:1000000080090020F1010008BD440008D536000831
:10001000FD3F0008C9030008C35E0008000000009F
:10002000000000000000000000000000214900085E
:10003000B9080008000000005F46000829540008C5
:100040000B0200080B0200080B0200080B0200085C
:100050000B0200080B0200080B0200080B0200084C
:100060000B0200080B0200080B0200080B0200083C
:100070000B0200080B0200080B0200080B0200082C
:100080000B02000800000000FD0200080B0200083F
:100090000B0200080B0200080B0200080B0200080C
:1000A0000B020008A55400080B0200080B02000810
:1000B0000B0200080B0200080B0200080B020008EC
:1000C0000B0200080B0200080B0200080B020008DC
:1000D0000B0200080B0200080B0200080B020008CC
:1000E0000B0200080B0200080B0200080B020008BC
:1000F0000B0200080B0200080B02000800000000C1
:10010000000000000B020008000000000B020008C5
:100110000B020008000000000B0200080B020008A0
:100120000B0200080B0200080B0200080B0200087B
:100130000B02000800000000000000000B02000895
:100140000B0200080B020008000000000000000085
:10015000000000000000000000000000000000009F
:100160000000000000000000000000000B0200087A
:100170000B0200080000000000000000000000006A
:10018000000000000B02000800000000000000005A
:10019000000000000000000000000000000000005F
:1001A00000000000000000000B0200080B02000825
:1001B0000B0200080B0200080B0200080000000000
:1001C000000000000B02000800000000000000001A
:1001D0000B0200080B020008DFF810D000F07CF8DA
:1001E00000480047275F0008AFF300808009002027
:1001F0000648804706480047FEE7FEE7FEE7FEE7C1
:10020000FEE7FEE7FEE7FEE7FEE7FEE7955400089F
:10021000D90100082DE9F05F0546002092469B4673
:1002200088460646814640241BE02846414647460C
:10023000224600F041F853465A46C01A914110D365
:1002400011461846224600F028F82D1A67EB0108DF
:100250004F4622460120002100F01FF817EB00094D
:100260004E41201EA4F10104DFDC484631462A46F7
:100270004346BDE8F09FD2B201E000F8012B491ED1
:10028000FBD270470022F6E710B513460A46044633
:100290001946FFF7F0FF204610BD202A04DB203A64
:1002A00000FA02F1002070479140C2F1200320FAC9
:1002B00003F3194390407047202A04DB203A21FAC7
:1002C00002F00021704721FA02F3D040C2F120026F
:1002D0009140084319467047064C074D06E0E06818
:1002E00040F0010394E8070098471034AC42F6D37D
:1002F000FFF776FF64CC000884CC0008014801F0C9
:10030000CBB8000028000020F8B50446002000907B
:10031000206803F0B1FBE8BB20688168214A1142E4
:100320002ED18168D6433140491C81601E488068C7
:1003300000F0E07000020DD51C481D490068B0FBBC
:10034000F1F0401C00EB4000800000E0401E0090F7
:100350000028FBD101F02CFC05461CE003F08CFBCF
:1003600020B9206881683140491C816001F020FC7F
:10037000401B02280FD920680068C043C0070AD07C
:10038000E06D40F01000E065206E40F00100206656
:100390000120F8BD04E020680168C943C907DDD128
:1003A0000020F6E73F000080000300500C00002012
:1003B000400D030003688B4201DD194600E0016037
:1003C000914200DB02607047FEE74288002192B153
:1003D000B2F5806F15D28269816811448160026A2A
:1003E00001691144016142694168114441604188D9
:1003F000491C4180704741708160016141604180CA
:10040000E9E7826892128260026992120261426890
:10041000921200EE102A4260D0ED0F0AB8EEC00A28
:1004200020EE200A80ED0D0A4180012141707047C5
:1004300090ED050AD0ED0F0AB8EEC00A20EE200AB2
:1004400080ED0C0AD0ED0D0A30EE600A80ED0E0A48
:10045000704702788168012A426801D18A1A426095
:10046000438AD21A83785A4392FBF1F301FB132299
:10047000C260002A01DA1144C16070478268816954
:10048000D0ED100A8A1A90F900104A4300EE102AA3
:10049000B8EEC00A20EE200A80ED090A0369026A5C
:1004A000B1EE400AD21A4A4301EE102AB8EEC11A40
:1004B00061EE200AC0ED0B0A30EE600A80ED0A0AF8
:1004C0007047D0E901128A1AC0E9021200EE102A20
:1004D0004188F6EE000AB8EEC01A00EE101AB8EE27
:1004E000400A20EE200AB4EEC01AF1EE10FA01DB49
:1004F000521AC26000EE102A4B42B8EEC01A00EE4B
:10050000103AB8EEC00A20EE200AB4EEC01AF1EE9E
:1005100010FA01D81144C160D0E9032111440161EE
:100520007047000030B59FED7A3AD0ED100AD0ED5B
:100530000F1ADFED783AF6EE002A21EEA30A00EE5C
:10054000E20A9FED751AF5EEC00A21EE811A00EE5F
:10055000E21AF1EE10FA01DD012300E00023B5EE0E
:10056000C00AF1EE10FA01DD012200E00022B5EE32
:10057000C01AF1EE10FA01DD012100E0002189002E
:1005800001EB4201CC18B0F8481000EE101AB8EE9A
:10059000400A9FED621A90ED112A072C20EE010A05
:1005A00020EE201A60EEA30AFFEE083A81EE020A5E
:1005B000B7EE081A61EEA33A21EE814A01EE101A55
:1005C00001EE901AB8EE411AF8EE611A24EE014AD3
:1005D00063EEA13A01EE101A01EE901AB8EE411A3C
:1005E000F8EE611A00EE814A40EEA13A84EE021A5A
:1005F000C3EE821A21D2DFE804F020071B04110C9D
:100600001600F1EE610A1CE0F0EE610AB0EE410A5C
:1006100017E0F0EE400AB1EE410A12E0F1EE400AB6
:10062000B0EE610A0DE0F1EE410AB1EE610A08E0B8
:10063000F0EE410AB1EE400A03E0F0EE430AB0EEFC
:10064000430AB0F84A2030EE801A01EE902AF8EE04
:10065000611AB4EEE11AF1EE10FA0FDD01EE902A04
:10066000F8EE611A61EEA01AC1EE810A01EE902A3D
:10067000F8EE611A61EE801A81EE810A01EE101A1D
:10068000F5EE001A072CB8EE411A31EE601A31EE81
:10069000401A21EE211ABCEEC11A11EE101A8AB2CC
:1006A00001EE102AB8EE411A00EEA21AFCEEC10AC1
:1006B00010EE901A89B200EE901AF8EE600A40EE41
:1006C000220ABCEEE00A10EE103A9BB205D2DFE837
:1006D00004F004081A04110D150020F84C2F418075
:1006E00002E020F84C1F4280838030BD20F84C3F50
:1006F00042800BE020F84C3F418002E020F84C1F84
:100700004380828030BD20F84C2F4380818030BDF3
:10071000000000002DB25D3F2DB25DBF2DB2DD3F68
:1007200037B514460D4640F6FF7200216846FFF7C4
:1007300041FE9DED000AF5EE000A374AB8EEC00A08
:1007400020EE200ABDEEC00A10EE100A009010F450
:10075000407109D0B1F5807F14D0B1F5007F30D061
:10076000B1F5407F1ED142E0C0B232F8100000EE79
:10077000100AB8EE400A85ED000A0098C0B2C0F138
:10078000FF0042E0C0B2C0F1FF0032F8100000EEFE
:10079000100AB8EE400A85ED000A0098C0B21EE0CB
:1007A00084ED000AD5ED000A9FED1C0A60EE800A78
:1007B000C5ED000AD4ED000A20EE800A84ED000A9F
:1007C0003EBDC0B232F81000404200EE100AB8EE52
:1007D000C00A85ED000A0098C0B2C0F1FF0032F8EF
:1007E0001000404200EE100AB8EEC00AD8E7C0B2CE
:1007F000C0F1FF0032F81000404200EE100AB8EEDF
:10080000C00A85ED000A0098C0B232F8100000EE70
:10081000100AB8EE400AC3E762CA000840DAFF37A0
:10082000D0E902128A1AC0E9031200EE102A818868
:10083000F6EE000AB8EEC01A00EE101AB8EE400A42
:1008400020EE200AB4EEC01AF1EE10FA01DB521AC3
:10085000026100EE102A4B42B8EEC01A00EE103AC8
:10086000B8EEC00A20EE200AB4EEC01AF1EE10FA7B
:1008700001D81144016190ED040AD0ED050AB8EEEB
:10088000C00A20EE200A80ED060A704790ED000AAB
:10089000DFED070A80ED030A9FED061A20EE200A1D
:1008A000D0ED010A00EE810A80ED040A70470000D5
:1008B0003ACD133F39CD933F7047000090ED050AC4
:1008C0009FED151AD0ED060A20EE010A9FED131ACE
:1008D00020EE011A90ED020AF8EEC01A41EE210A4C
:1008E000B8EEC01AC0ED060AF4EEC10AF1EE10FA35
:1008F00005DBB8EEC01A70EEC10AC0ED060AF5EECF
:10090000C00AF1EE10FA05D2B8EEC00A30EE800A45
:1009100080ED060A7047000017B751388D7A883C81
:1009200072B6FEE710B54FF4FA7001F049F802F024
:1009300025FF03F055FD3C211B4802F06DFA1B48D2
:10094000002102685163026891630268D163006804
:100950000164164802F06CFC0421144802F068FCA3
:100960000821124802F064FC0C21104802F060FCDF
:100970000E4802F00FF9012211460D4801F012F95C
:100980004FF0904401220221204601F00BF9012290
:100990000421204601F006F920460122BDE810405E
:1009A000114601F0FFB8000044010020F8000020CB
:1009B0000004004810B503F0B9F803F0A3F8BDE84F
:1009C000104005F07FBA70472DE9F84F4FF000084E
:1009D0000446CDF800800D4694F85820DFF80094C6
:1009E000616947464046012A0AD00126FD4A84F83B
:1009F000586041B1296A012905D0A36EEBB129E005
:100A00000220BDE8F88F6868092838D1A96A4FF438
:100A1000785041B12B6801F07C0100EA5340084353
:100A2000E96A084302E0296800EA51402168CB6C7A
:100A300013400343CB64606621E0C4E91971A96ADD
:100A4000286A31B101F07C01401E0843E96A08437D
:100A500000E0401E2968C1F38463297901F01F0179
:100A60008B400343A06E401EA066616E41EA030105
:100A7000616604D12068C36C13400B43C3642068D3
:100A800002F0F6FF58B995F8250098B12068C168C2
:100A900095F8262021F4401141EA4251C1602068B6
:100AA00002F0F6FF8246206802F0E2FF5AEA0001F7
:100AB0000DD0FAE095F8260095F82410400540EA9C
:100AC00001512068C26822F440121143E6E7A86A87
:100AD00030B1E86A20B195F8250001285DD003E027
:100AE00095F82500012804D02068C16821F0007124
:100AF00003E02068C16841F00071C16095F83000E2
:100B0000012851D02068016921F002010161AA6821
:100B100029682068B2F1004F37D002F0D4FF206876
:100B2000416921F00041416120686A69C168C1F3EF
:100B3000C10149008A402969042943D000EB8100A2
:100B40002B68016EDFF8A0C203F0F84301EA0C0144
:100B50001343194341F00041016622682869A969DD
:100B600002EB8000026E22F080720A430266297F47
:100B700022682869012922D0002102EB8000026E40
:100B800022F000720A4302668FE0002202F09BFF0F
:100B90002068416941F00041C5E7E06D40F0200068
:100BA000E0654FF00108A9E7D5E90D100143206881
:100BB000026922F4FF7242F002021143A6E74FF0ED
:100BC0000071DAE7002102F049FF400320684FF08E
:100BD000000171D002F042FF90FAA0F0B0FA80F16B
:100BE000286842036DD090FAA0F0B0FA80F08142FC
:100BF00004D100221146206802F07CFF0121206808
:100C000002F02CFF400320684FF001015CD002F09D
:100C100025FF90FAA0F0B0FA80F12868420358D07E
:100C200090FAA0F0B0FA80F0814204D100220121B4
:100C3000206802F05FFF0221206802F00FFF4003EE
:100C400020684FF0020147D002F008FF90FAA0F0B0
:100C5000B0FA80F12868420343D090FAA0F0B0FACD
:100C600080F0814204D100220221206802F042FF7C
:100C70000321206802F0F2FE400320684FF00301D8
:100C800032D002F0EBFE90FAA0F0B0FA80F12868C2
:100C900042032ED090FAA0F0B0FA80F0814204D145
:100CA00000220321206802F025FF206802F0E8FE00
:100CB00010B3B3E000E004E002F0D0FEC0F38461C2
:100CC0008EE7C0F3846092E702F0C8FEC0F384614F
:100CD000A3E7C0F38460A7E702F0C0FEC0F384611D
:100CE000B8E7C0F38460BCE702F0B8FEC0F38461EB
:100CF000CDE7C0F38460D1E721682A7B286851F8EA
:100D0000B03FC0F3120C23EA0C0302F0180C374A70
:100D100022FA0CF2024013430B60E96849457DD189
:100D2000286841031AD090FAA0F1B1FA81F1491C68
:100D300001F01F0109294FEA403130D8002910D0B5
:100D400090FAA0F1B1FA81F101F1010101F01F0166
:100D500006FA01F608D1C0F3846109E0C0F38461AA
:100D6000E5E7C0F38461EFE790FAA0F1B1FA81F111
:100D700001F1010101F01F0146EA816102D1C0F3D6
:100D8000846003E090FAA0F0B0FA80F000F1010076
:100D900000F01F0000EB400041EA00513AE000295A
:100DA0000DD090FAA0F1B1FA81F101F1010101F049
:100DB0001F0106FA01F605D1C0F3846106E0C0F315
:100DC0008461F2E790FAA0F1B1FA81F101F1010139
:100DD00001F01F0146EA81610BD1C0F384600CE091
:100DE00000007F400040100400F0FF03FFFF0700F9
:100DF00014E090FAA0F0B0FA80F000F1010000F0E9
:100E00001F002B4A00EB400002EB005041EA0001BA
:100E100041F00071AA68206802F055FE2548296853
:100E2000014240D0244A9068244B00F0E07099427F
:100E300002D0234B99421BD1030219D42168B1F18E
:100E4000A04F30D1916840F4000021F0E0710143DF
:100E500091601C481C490068B0FBF1F0801C00EB5D
:100E60004000800000E0401E00900028FBD11AE006
:100E7000164D174BA94207D1C50105D421689942E7
:100E800011D040F0807009E0124DA9420BD141020F
:100E900009D42168994206D040F48000916821F07D
:100EA000E0710143916084F858704046A9E5000064
:100EB000000020FE0000088000030050000021C355
:100EC0001000C0900C000020400D0300000052C72D
:100ED00000010050000084CB10B54FF0A040D0F8C6
:100EE0008011164C2167D0F88411A167D0F88811C1
:100EF000E166134909682164D0F88C1100EE101ADC
:100F0000B8EE400A84ED7E0AD0F88C014042C4F865
:100F1000340203F067FA0B48B4F8E8100268516332
:100F20000268B4F8EA1091630268B4F8EC10D16377
:100F3000006840F66501016410BD00002402002035
:100F400024040040F8000020704700002DE9F04123
:100F500004464548806800F01F05206802F088FDBF
:100F600008BB2068C168C06C01F0004110F4C07F6C
:100F700000D191B194F85800012814D0012084F8D0
:100F800058002046FFF7C0F901004FF000070CD0D1
:100F900084F858700846BDE8F081E06D40F020000C
:100FA000E0650120F7E70220F5E7E06DC00504D514
:100FB000206E20F00800206600E02766E06D42F217
:100FC0000102904340F48050E065284B20684FF0C8
:100FD000A046984201D1324600E00246824200D04B
:100FE0001DB9E26D22F48012E2656022026084F88D
:100FF00058702068C268920203D5426842F4806249
:101000004260A06908282068426807D022F04002A8
:1010100042602068426842F0200206E022F020028E
:1010200042602068426842F0400242602068984274
:1010300001D1324600E00246824209D045B1062D78
:1010400006D0072D04D0E06D40F48010E065A1E7E4
:10105000C26812F0007F9DD18268054B1A4042F0B1
:101060000802826096E70000000300500001005073
:10107000C0FFFF7F704770472DE9F84F00270446F7
:10108000009790F85800DFF8D8930D46B84601282D
:1010900010D0012684F85860206802F0F5FC58B1A1
:1010A000E06D40F02000E065012784F85880384664
:1010B000BDE8F88F0220FBE7D5E900210C2320686A
:1010C00003EA91131844036B01F01F014FF01F0C4A
:1010D0000CFA01FCC2F3846223EA0C038A40134336
:1010E0000363206802F0D0FC8246206802F0BCFC5A
:1010F0005AEA00013CD1AA6829682068B2F1004F81
:1011000037D002F0D1FC2068416921F000414161F3
:1011100020686A69C168C1F3C10149008A40296930
:10112000042931D000EB81002B68016EDFF834C355
:1011300003F0F84301EA0C011343194341F0004165
:10114000016622682869A96902EB8000026E22F01C
:1011500080720A430266297F22682869012910D01B
:10116000002102EB8000026E22F000720A43026648
:101170007DE0002202F098FC2068416941F00041C6
:10118000C5E74FF00071ECE7002102F061FC40037D
:1011900020684FF0000171D002F05AFC90FAA0F0E4
:1011A000B0FA80F1286842036DD090FAA0F0B0FA4E
:1011B00080F0814204D100221146206802F092FCA6
:1011C0000121206802F044FC400320684FF0010137
:1011D0005CD002F03DFC90FAA0F0B0FA80F12868F3
:1011E000420358D090FAA0F0B0FA80F0814204D1C6
:1011F00000220121206802F075FC0221206802F023
:1012000027FC400320684FF0020147D002F020FC89
:1012100090FAA0F0B0FA80F12868420343D090FA27
:10122000A0F0B0FA80F0814204D1002202212068AF
:1012300002F058FC0321206802F00AFC40032068F9
:101240004FF0030132D002F003FC90FAA0F0B0FAA4
:1012500080F1286842032ED090FAA0F0B0FA80F016
:10126000814204D100220321206802F03BFC206867
:1012700002F002FC10B3AAE000E004E002F0E8FB98
:10128000C0F384618EE7C0F3846092E702F0E0FB74
:10129000C0F38461A3E7C0F38460A7E702F0D8FB42
:1012A000C0F38461B8E7C0F38460BCE702F0D0FB10
:1012B000C0F38461CDE7C0F38460D1E721682A7B65
:1012C000286851F8B03FC0F3120C23EA0C0302F077
:1012D000180C654A22FA0CF2024013430B60E968CD
:1012E000494574D1286841031AD090FAA0F1B1FAA7
:1012F00081F1491C01F01F0109294FEA403130D822
:10130000002910D090FAA0F1B1FA81F101F10101A8
:1013100001F01F0106FA01F608D1C0F3846109E06B
:10132000C0F38461E5E7C0F38461EFE790FAA0F1D0
:10133000B1FA81F101F1010101F01F0146EA816179
:1013400002D1C0F3846003E090FAA0F0B0FA80F01C
:1013500000F1010000F01F0000EB400041EA0051E5
:1013600031E000290DD090FAA0F1B1FA81F101F13C
:10137000010101F01F0106FA01F605D1C0F38461F5
:1013800006E0C0F38461F2E790FAA0F1B1FA81F1CE
:1013900001F1010101F01F0146EA816102D1C0F3B0
:1013A000846003E090FAA0F0B0FA80F000F1010050
:1013B00000F01F002D4A00EB400002EB005041EA14
:1013C000000141F00071AA68206802F06DFB284816
:1013D000296801423FF469AE264A9068264B00F026
:1013E000E070994202D0254B99421CD103021AD4D5
:1013F0002168B1F1A04F7FF458AE916840F400002D
:1014000021F0E071014391601D481E490068B0FB66
:10141000F1F0401C00EB4000800000E0401E009016
:101420000028FBD141E6184D184BA94207D1C50150
:1014300005D421689942F5D040F0807009E0144D40
:10144000A942EFD14102EDD421689942EAD040F49B
:101450008000916821F0E0710143916025E6000071
:1014600000007F4000F0FF03FFFF0700000020FEA8
:101470000000088000030050000021C31000C0904D
:101480000C000020400D0300000052C70001005076
:10149000000084CB704770472DE9F05F0446006878
:1014A00006684568DFF854B2DBF8080000F01F0753
:1014B000B0070ED5A8070CD5E06DC00603D4E06DCB
:1014C00040F40060E0652046FFF77DFA21680220C5
:1014D0000860DFF82CA270074FF0A04801D568071C
:1014E00003D4300737D5280735D5E06DC00603D4BF
:1014F000E06D40F40070E065206802F0CDFA20B3A2
:101500002068504501D1414600E00146814208D0A3
:101510003FB1052F05D0092F03D0504503D14146D7
:1015200002E0C16801E00146C96889040DD4016880
:1015300009070AD502F0A8FA58B3E06D40F0100090
:10154000E065206E40F0010020662046FFF7A2FF14
:1015500021680C200860B00601D5A80603D47006E7
:1015600058D5680656D5E06DC00603D4E06D40F44A
:101570000050E0652068C16C11F4C07F1AD00021D2
:10158000894602F089FA02462068504514D1414646
:1015900013E02068416821F00C014160E06D20F407
:1015A0008070E065E06DC004CFD4E06D40F00100D4
:1015B000E065CAE70121E3E70146814208D03FB177
:1015C000062F05D0072F03D0504503D1414602E036
:1015D000C16801E00146C968B9F1000F14D08B0160
:1015E00002D58AB18A040FD4026852060CD589024A
:1015F0000AD402F039FAE8B3E06D40F01000E0657B
:10160000206E40F0010020662046FFF765FC21684F
:101610006020086030060BD5280609D5E06D40F43F
:101620008030E065204600F065F921688020086080
:10163000F0050CD5E8050AD5E06D40F40030E06512
:101640002046FFF717FD21684FF480700860B00551
:101650000CD5A8050AD5E06D40F48020E065204651
:10166000FFF709FD21684FF400700860F0062ED5E1
:10167000E80600E008E02AD5E06BD0B1AFB1DBF8B6
:10168000080000F4604013E02068416821F0600128
:101690004160E06D20F48050E065E06DC005B3D49A
:1016A000E06D40F00100E065AEE72068C068C0076B
:1016B00050B1E06D40F48060E065206E40F00200C3
:1016C00020662046FFF7E7FE2168102008607005BD
:1016D00012D5680510D5E06D40F48040E065206EBD
:1016E00040F00800206621684FF4806008602046C2
:1016F000BDE8F05FFFF728BCBDE8F09F0003005095
:1017000000010050F8B54FF0000504002E4600958A
:1017100002D0E06D10B107E00120F8BD204600F0D6
:10172000EBF8266684F8586020688168C1F3407140
:1017300019B18168674A1140816020688168C1F3EE
:10174000007189B98168644A114041F0805181601B
:10175000624863490068B0FBF1F04000801C00E083
:10176000401E00900028FBD120688168C1F3007101
:1017700041B9E16D41F01001E165216E41F00101D7
:101780002166012502F080F9E16DC90600D430B16F
:10179000E06D40F01000E06501252846F8BDE06DE1
:1017A00020F4807040F00200E065206802F064F9E7
:1017B00088B94FF0A04080684A49C0F300008968AA
:1017C000C1F30001084306D1474960688A6822F4E2
:1017D0007C1202438A60E168E06B627F0843A16883
:1017E00041EA4231084394F8241040EA01400129BB
:1017F00004D1218D3D4A02EB41410843E16A29B100
:1018000001F47871226B014342EA01002168CA6841
:10181000374B1A400243CA6020680169626B21F0AD
:10182000406111430161206802F01EF970BB207F06
:1018300094F83810800340EA41012068C26844F2FD
:1018400002039A430A43C2602069002820680169A4
:101850000AD041F480310161206850F8C01F22692C
:101860006FF30D01114307E021F48031016120681D
:1018700050F8C01F6FF30D01016094F8400001287B
:101880000CD02068016921F0010101616069012823
:101890002068016B21F00F0110D012E0D4E9111083
:1018A0000143D4E91302104301432068026940F266
:1018B000FC739A43114341F00101E6E7226A521E8C
:1018C00011430163E06D20F0020040F00100E0658B
:1018D00063E70000C0FFFF5FC0FFFF7F0C00002038
:1018E000400D030000010050000300500000FEFF07
:1018F0000740F0FF7047000030B597B00446142150
:101900006846FEF7BFFC442105A8FEF7BBFC28494A
:10191000206888424AD1C00105908003149005A830
:1019200000F044FA08B1FEF7FBFF2248C16C41F415
:101930000051C164C16C01F400511691C16C41F0B9
:101940000101C164C16C01F001011691C16C41F04B
:101950000401C164C16C01F004011691C16C41F035
:101960000201C164C06C032400F002001690F02054
:1019700000258DE8310069464FF0904000F032F8C4
:1019800030208DE8310069460B4800F02BF8042028
:101990008DE831006946094800F024F80022012151
:1019A000122000F06BF9122000F05AF917B030BD88
:1019B00000010050001002400008004800040048E8
:1019C00070B5044600F0F4F80546601C02D00448E7
:1019D0004068044400F0ECF8401BA042FAD370BD0C
:1019E000000000202DE9F84FDFF888910022A9F1CE
:1019F000040B03274FF00F0C09F1040AABF1040E9E
:101A0000B1E0012595402B4073D00C7904F003041C
:101A1000012C01D0022C15D18668540007FA04F875
:101A200026EA0806D1F80C8008FA04F848EA060805
:101A3000C0F808804468AC430D79C5F300159540A3
:101A4000254345600C79E443A40708D0C5685400D9
:101A500007FA04F6B5438E68A6402E43C6600C799B
:101A600004F00304022C11D1D40800EB8406356A7B
:101A70005407E40E0CFA04F825EA0805D1F81080A2
:101A800008FA04F848EA0508C6F8208005685400FA
:101A900007FA04F6B5430E7906F00306A6402E4376
:101AA00006604C6814F4403F5CD0334C256E45F022
:101AB00001052566246E22F0030504F0010400945C
:101AC0002E4C05EB0408D8F808509407260F0CFAA2
:101AD00006F4A543B0F1904F04D0294CA04203D1A5
:101AE000012417E0002415E0264CA04202D1022474
:101AF00010E037E0244CA04201D103240AE0234C3B
:101B0000A04201D1042405E0214CA04201D10524CA
:101B100000E00624B4402C43C8F80840D9F800403F
:101B20004D464E689C43F60200D51C432C60DAF803
:101B3000004055464E689C43B60200D51C432C60BD
:101B4000DBF800405D464E689C43B60300D51C435D
:101B50002C60DEF8004075464E689C43F60300D5C5
:101B60001C432C60521C0B6833FA02F47FF449AF1B
:101B7000BDE8F88F08040140001002400000014059
:101B80000004004800080048000C0048001000480D
:101B900000140048426921EA02030A4043EA024174
:101BA000816170470AB181617047816270470000AE
:101BB00001488068704700000000002002488168EA
:101BC00042681144816070470000002010B5002475
:101BD000032000F073F80F2000F008F808B101248A
:101BE00001E000F025F8204610BD000070B50E4E53
:101BF00005460024706898B14FF47A71B1FBF0F09B
:101C00000A490968B1FBF0F000F0BDFE40B9102DA3
:101C100006D200222946501E00F030F8356000E060
:101C20000124204670BD0000000000200C000020B0
:101C30000A4882B0016E41F001010166016E01F0B7
:101C400001010091816D41F080518165806D00F04E
:101C50008050009002B000F0A1B8000000100240D7
:101C6000002809DB00F01F0201219140400980009B
:101C700000F1E020C0F8001170470000F0B40E4BF6
:101C80001B68C3F30223C3F10704042C00D9042406
:101C90001D1D072D01D2002300E0DB1E012606FAE0
:101CA00004F56D1E0D409D409E40761E164045EA8F
:101CB0000601F0BC04F018B90CED00E0064A00F093
:101CC000070110684FF6FF03184040EA012003495E
:101CD00008431060704700000CED00E00000FA05BA
:101CE0002B492C4B0A6832214A432B4940B1B0F5AD
:101CF000007F086829D020F4C06040F480602CE0A8
:101D00000868C0F34120022804D051F8800F20F465
:101D1000807022E0D1F8800020F48070C1F880004B
:101D2000086820F4C06040F400700860B2FBF3F073
:101D3000401C00E0401E4A69520501D50028F9D137
:101D4000486940050AD503207047C0F341200228A6
:101D500006D051F8800F40F4807008600020704772
:101D6000D1F8800040F48070C1F88000086820F449
:101D7000C06040F400700860B2FBF3F0401C00E06B
:101D8000401E4A695205DBD50028F9D1D8E700008A
:101D90000C00002040420F000070004002488168A3
:101DA00041F4804181607047007000402DE9F84F98
:101DB000044600260068A24D374600035CD5A86D96
:101DC0004FF00009C00009D4A86D40F08050A8650C
:101DD000A86D4FF0010900F080500090DFF864A278
:101DE000DAF8001041F48071CAF80010FFF7E0FE45
:101DF000804607E0FFF7DCFEA0EB0800022801D9CF
:101E0000032631E0DAF80000C005F3D566BBD5F84B
:101E1000900010F4407014D0216C814211D0D5F89C
:101E20009000D5F8901020F4407041F48031C5F84E
:101E30009010D5F8901021F48031C5F89010C5F8B5
:101E40009000C0074ED0FFF7B3FE804641F2883ABB
:101E500005E0FFF7ADFEA0EB08015145D0D8D5F85D
:101E600090008007F5D5EEB33746B9F1000F03D0E7
:101E7000A86D20F08050A8652078C00707D0D5F85D
:101E80008800616820F003000843C5F888002078C6
:101E9000800707D5D5F88800A16820F00C0008431A
:101EA000C5F888002078400707D5D5F88800E16894
:101EB00020F030000843C5F888002078000707D5D7
:101EC000D5F88800216920F0C0000843C5F88800D3
:101ED0002078800609D5D5F88800616920F4406033
:101EE000084300E03DE0C5F888002078400607D5AB
:101EF000D5F88800A16920F440500843C5F888004F
:101F00002078000607D5D5F88800E16920F4404024
:101F10000843C5F888002088C00507D5D5F8880093
:101F2000216A20F440300843C5F8880020888005E5
:101F300007D5D5F88800616A20F440200843C5F829
:101F400088002088400519D5D5F88800A16A20F4BA
:101F500040100843C5F88800A06AB0F5801F09D07A
:101F60000CE0D5F89000216C20F440700843C5F8CF
:101F700090007AE7E86840F48010E8602088000567
:101F80000FD5D5F88800E16A20F440000843C5F871
:101F90008800E06AB0F5800F03D1E86840F4801053
:101FA000E8602088C0040FD5D5F88800216B20F0A8
:101FB00040700843C5F88800206BB0F1807F03D1E2
:101FC000E86840F48010E860208881044FF00060E9
:101FD0000ED5D5F88810626B21F040611143C5F829
:101FE0008810616B814203D1E96841F48011E96096
:101FF000218849040ED5D5F88810A26B21F04061E4
:102000001143C5F88810A16B814203D1E86840F400
:102010008010E860208800040FD5D5F88800E16BB7
:1020200020F040500843C5F88800E06BB0F1805FB5
:1020300003D1E86840F48030E8603846BDE8F88FA6
:1020400000100240007000402DE9F0470D460400EA
:102050004FF0000725D0DFF8A091D9F8000000F07C
:102060000F00A8420CD2D9F8001021F00F0129432B
:10207000C9F80010D9F8000000F00F00A84210D1F4
:1020800021685E4EC80741F2883A52D06068DFF896
:102090007081032808D00228306826D04005002827
:1020A00025DB0120BDE8F08730688001F9D5F068B4
:1020B000F068544BC0F30310401CB3FBF0F0F2681F
:1020C000C2F306225043F268C2F34162521C52002E
:1020D000B0FBF2F0404515D9B06810F0F00F0AD00F
:1020E00088070FD5A06830B10CE08003D7E700F077
:1020F000B5F8404506D9B06820F0F00040F0800007
:10210000B0608027B068616820F003000843B060C9
:10211000FFF74EFD804605E0FFF74AFDA0EB080102
:1021200051453BD8B068616800F00C00B0EB810FFE
:10213000F2D12068810714D5400703D5B06840F478
:10214000E060B0602078000705D5B06820F46050EA
:1021500040F4E060B060B068A16820F0F00008438F
:1021600004E0802F03D1B06820F0F000B060D9F80F
:102170000010484601F00F01A94217D90168C8466E
:1021800021F00F0129430160FFF712FD0746D146F8
:1021900006E0FFF70DFDC11B494501D9032081E78A
:1021A000D8F8000000F00F00A842F2D120784007D4
:1021B00005D5B068E16820F4E0600843B06020789D
:1021C000000706D5B068216920F4605040EAC100DC
:1021D000B06000F043F8B1680B4AC1F30311515CE1
:1021E00001F01F01C8400949086009480068BDE8BE
:1021F000F047FFF7FBBC0000002002400010024047
:1022000000B4C4040024F400785F00080C0000202F
:10221000000000200548064900688968054AC1F3A6
:102220000221515C01F01F01C84070470C000020E2
:1022300000100240885F0008054806490068896868
:10224000054AC1F3C221515C01F01F01C84070472B
:102250000C00002000100240885F0008134A9068BC
:10226000C0F38101124801290AD09168C1F38101AC
:10227000022905D09168C1F38101032901D0002012
:102280007047D16801F00303D168C1F30311491C01
:10229000B0FBF1F0D168C1F306214843D168C1F326
:1022A0004161491C4900B0FBF1F070470010024049
:1022B0000024F4002DE9F843040078D02078F54D8F
:1022C000C00745D0A868E96800F00C0001F00301E0
:1022D0000C2802D0082817D001E0032914D0606828
:1022E000B0F5803F17D0B0F5A02F286817D020F4A4
:1022F00080302860286820F4802028606068D8B189
:10230000FFF756FC064613E02868800320D5606876
:102310000028D2D01CE0286840F48030EDE740F47B
:1023200080202860F7E7FFF743FC801B64286ED805
:1023300028688003F7D50BE0FFF73AFC064604E077
:10234000FFF736FC801B6428F1D828688003F7D497
:10235000207880074BD5A868E96800F00C0001F0F0
:1023600003010C2802D004280DD001E002290AD074
:10237000E068002828682BD040F480702860FFF7C0
:1023800017FC064619E02868400502D5E0680028D9
:1023900093D06868217C20F0FE4040EA01606860CC
:1023A000BD480068FFF722FC002800D11FE06DE166
:1023B000FFF7FEFB801B0228B9D828684005F7D537
:1023C0006868217C20F0FE4040EA016068600EE011
:1023D00020F480702860FFF7EBFB064604E0FFF76F
:1023E000E7FB801B0228A2D828684005F7D4207894
:1023F000000728D560690028D5F8940012D040F075
:102400000100C5F89400FFF7D3FB064605E08FE016
:10241000FFF7CEFB801B022889D8D5F894008007EF
:10242000F6D510E020F00100C5F89400FFF7C0FBDE
:10243000064604E0FFF7BCFB801B022878D8D5F8DD
:1024400094008007F6D42078400761D5A86D002756
:10245000C00008D4A86D40F08050A865A86D012781
:1024600000F0805000908D480168C90511D40168C2
:10247000804641F480710160FFF79AFB064604E054
:10248000FFF796FB801B022852D8D8F80000C00541
:10249000F6D5A068012815D00528D5F8900016D0EB
:1024A00020F00100C5F89000D5F8900020F004005D
:1024B000C5F89000A06841F28838B8B1FFF778FB02
:1024C00006460EE0D5F8900040F00100F0E740F03D
:1024D0000400C5F89000F5E7FFF76AFB811B414552
:1024E00026D8D5F890008007F6D50CE0FFF760FB02
:1024F000064604E0FFF75CFB811B414518D8D5F880
:1025000090008007F6D41FB1A86D20F08050A86518
:102510002078800628D5A0690028D5F8980012D028
:1025200040F00100C5F89800FFF742FB064605E0C1
:1025300072E0FFF73DFB801B02286DD8D5F89800AC
:102540008007F6D510E020F00100C5F89800FFF7ED
:102550002FFB064604E0FFF72BFB801B02285BD80D
:10256000D5F898008007F6D4E069E8B3A968C1F30C
:10257000810103295BD00228286820F08070286040
:1025800003D0FFF715FB044649E0FFF711FB0646B1
:1025900004E0FFF70DFB801B02283DD8286880016E
:1025A000F7D4F4E908016FF00F0202EB01110843C0
:1025B000218A5204490802EB4151A26841EA0221F2
:1025C0000843217D4FF07E42490802EB41610843F8
:1025D000217B40EAC160E968314A11400843E86064
:1025E000286840F0807000E052E02860E86840F021
:1025F0008070E860FFF7DCFA044604E0FFF7D8FAE1
:10260000001B022808D828688001F7D540E0FFF7B2
:10261000CFFA001B022802D90320BDE8F8832868FE
:102620008001F4D4E8681F490840E86030E00128E0
:10263000F3D0E868226A00F00301914226D1616A72
:1026400000F0F0020901103991421FD1A26A00F492
:10265000FE41B1EB022F19D194F82C2000F0784103
:10266000B1EBC26F12D1218E00F4C00249084905B6
:10267000A1F50011914209D194F8341000F0C06026
:1026800049084906A1F10071814201D00120C4E747
:102690000020C2E70010024000000020007000404F
:1026A0000C809F01FCFFEEFE70B5040009D0606A4B
:1026B000002540B125616561A56294F85D0040B1D7
:1026C0000CE0012070BD6068B0F5827FF4D0E56158
:1026D000F2E784F85C50204600F05CF8022084F8B1
:1026E0005D002068016821F040010160E0684FF45E
:1026F000E062904201D9002101E04FF48051B0F531
:10270000706F02D0904200D0A562A088228900F4A8
:10271000827002F404421043227C02F00202104351
:10272000227D02F001021043228B02F4007210435A
:10273000227F02F03802104394F8202002F0800239
:102740001043228D02F40052104322681060A069E9
:10275000042202EA104094F8242001F4805102F08F
:102760001002104394F8342002F008021043A289AA
:1027700002F4706210430843216848602068C16910
:1027800021F40061C1612566012084F85D0000200C
:1027900070BD000010B586B0044614216846FDF7F0
:1027A00071FD1349206888421FD11248816D41F4A0
:1027B00000418165816D01F400410591C16C41F0DA
:1027C0000401C164C06C694600F0040005904FF438
:1027D000A05000900220019000200290032003905E
:1027E000062004900448FFF7FDF806B010BD000075
:1027F000003C004000100240000800482DE9F84F5E
:102800001D4617468A460446FFF7D2F9064694F855
:102810005D00012826D1BAF1000F6FD0002F6DD0D6
:1028200094F85C0001281DD04FF0010984F85C90F9
:10283000032084F85D004FF00008C4F86080C4F8FD
:1028400038A0A787E787C4F84080A4F84480A4F89C
:102850004680C4F85080C4F84C80A068B0F5004FA2
:1028600003D00CE00220BDE8F88F2068016821F059
:10287000400101602068016841F4804101602068E6
:102880000168490603D4016841F040010160E06835
:10289000B0F5E06F606822D908B1012F1BD1A06BA1
:1028A00021680088C86006E020688168890709D52A
:1028B000A16B0988C160A06B801CA063E08F401EE3
:1028C000E08708E0FFF774F9801BA84202D3681C78
:1028D00001D045E0A5B3E08F0028E5D135E008B18F
:1028E000012F2FD1E08F0128A06B03D92168008828
:1028F000C86010E021680078087314E041E0E087C8
:1029000020E020688168890713D5E18F0129A16B38
:1029100007D90988C160A06B801CA063E08F801E6E
:10292000EDE709780173A06B401CA063E08F401EA7
:10293000E5E7FFF73DF9801BA84202D3681C01D0F0
:102940000EE06DB1E08F0028DBD1324629462046EB
:1029500001F0F8FE08B120202066A06830B109E03F
:1029600084F85D9084F85C8003207CE72068C1686F
:102970008068009084F85D9084F85C80206E002868
:10298000F3D001206FE710B5401EB0F1807F01D376
:10299000012010BD4FF0E02460610F21601703F0AB
:1029A000A3FA0020A06107202061002010BD70471D
:1029B0007047704730B590F83C20012A42D0012280
:1029C00080F83C20CA688B6822F440721A434B6836
:1029D00022F480621A430B6822F400621A430B69E6
:1029E00022F480521A434B6922F400521A430B6BB3
:1029F00022F480421A430B8B22F4702242EA0342F3
:102A0000CB6922F080521A430F4D03680024AB4279
:102A100002D00E4DAB4210D10D8D22F4700242EA6D
:102A200005520D6A22F080722A434D6A22F000722C
:102A30002A43C96A22F000520A435A6480F83C4093
:102A4000002030BD022030BD002C01400034014088
:102A50007047704770470000F0B590F83C20012A9D
:102A60003AD0012580F83C50022280F83D200368CE
:102A70005A689C68194E1A4FB34201D0BB4204D128
:102A800022F4700C4A6842EA0C02DFF858C002EAED
:102A90000C02D1F800C04CEA020CC3F804C0026872
:102AA000B2420DD0B2F1804F0AD00F4B9A4207D0FC
:102AB0000E4B9A4204D0BA4202D00D4B9A4204D136
:102AC000896824F080031943916080F83D5000210B
:102AD00080F83C100846F0BD0220F0BD002C0140FB
:102AE000003401408FFFFFFD00040040000800405B
:102AF00000400140704710B5040003D094F83D0039
:102B000010B107E0012010BD002084F83C002046F1
:102B100000F022F8022084F83D00211D206802F018
:102B2000C7FC012084F8480084F83E0084F83F0088
:102B300084F8400084F8410084F8420084F843009F
:102B400084F8440084F8450084F8460084F847007F
:102B500084F83D00002010BD08B500680B4988428C
:102B600012D10B48016E41F400610166006E002233
:102B700000F40060009011461920FFF77FF8BDE8CF
:102B800008401920FFF76CB808BD0000002C014078
:102B90000010024090F83D10012901D0012070473B
:102BA000022180F83D100168CA6842F00102CA6043
:102BB0000068104988420ED0B0F1804F0BD00E490A
:102BC000884208D00D49884205D00D49884202D07C
:102BD0000C49884207D181680B4A1140062906D06A
:102BE000B1F5803F03D0016841F001010160002090
:102BF00070470000002C0140000400400008004025
:102C000000340140004001400700010070B5044657
:102C100090F83C000025012814D0012684F83C607F
:102C2000022084F83D0020688268364B1A4022F466
:102C30007F428260086870282ED010DC10F00F0FE1
:102C400003D021E04FF0020070BD4FEA2012072AA6
:102C50001AD2DFE802F0525252524A3840002A4B50
:102C6000C21A984249D009DCB0F5805F0DD0B0F5AA
:102C7000005F1CD0B0F1101F06D13EE0102A3CD0FE
:102C8000202A3AD0502A38D0012584F83D6000200F
:102C900084F83C00284670BDCB68D1E9012120684A
:102CA00002F071FC2068816841F0770109E0CB688F
:102CB000D1E90121206802F066FC2068816841F4B6
:102CC00080418160E1E7CA684968206802F006FE39
:102CD0005021206806E0CA684968206802F00FFEAB
:102CE0006021206802F05AFCCFE7CA684968206872
:102CF00002F0F4FD40212068F4E722680146104606
:102D0000F0E7000088FFCEFF200010002DE9F04121
:102D10000D46040003D094F83D0018B108E00120EE
:102D2000BDE8F081002084F83C00204600F042F825
:102D3000022084F83D00206881681D4A11408160AE
:102D4000211D206802F0B4FB206881688269066A50
:102D50002B68AF690B4340F203318A4342EA0722F2
:102D6000A968EF6911434FF6FC429143EA6841EAD2
:102D700007210A4329692F6A090141EA07311143F2
:102D80006A686D6926F0AA0646EA05152A4383603B
:102D90002068816154F8480B0262012004F81F0981
:102DA0006075A075E076207720750020B8E70000F8
:102DB000F8BFFEFF10B586B0044614216846FDF743
:102DC00061FA1249206888421DD11148816D41F095
:102DD00002018165816D01F002010591C16C41F034
:102DE0000201C164C06C002100F002000590302097
:102DF00000900220CDE901010321CDE903106946CD
:102E00000448FEF7EFFD06B010BD000000040040CE
:102E1000001002400004004870B590F83E5004468F
:102E200090F83F3090F8442090F84500022621B1F8
:102E300004290BD0012D16D10FE0012D13D1012A49
:102E400011D184F83E6084F8446016E0012B0AD169
:102E5000012808D184F83F600DE0012B03D1012A3D
:102E600001D1012801D0012070BD84F83E6084F8B2
:102E70003F6084F8446084F8456091B1042904D02F
:102E800001220021206802F071FB01220421206848
:102E900002F06CFB2068016841F001010160002034
:102EA00070BD012200212068F2E770472DE9F04152
:102EB00004460068C66805694FF00007A90713D5E6
:102EC000B10711D5F91E01610120207720688069C2
:102ED0008007204602D0FFF7E8FF04E000F0E2F8A8
:102EE000204600F0A4F92777680716D5700714D597
:102EF00021686FF004000861022020772068806953
:102F000010F4407F204602D0FFF7CFFF04E000F02E
:102F1000C9F8204600F08BF92777280715D5300728
:102F200013D521686FF0080008610420207720681D
:102F3000C0698007204602D0FFF7B7FF04E000F029
:102F4000B1F8204600F073F92777E80616D5F006A9
:102F500014D521686FF010000861082020772068E0
:102F6000C06910F4407F204602D0FFF79EFF04E0C6
:102F700000F098F8204600F05AF92777E80708D0C3
:102F8000F00706D021686FF001000861204600F0CC
:102F9000D3F9280601D4A80408D5300606D521683F
:102FA0006FF4025008612046FFF702FDE80508D5DE
:102FB000300606D521686FF4807008612046FFF75F
:102FC000F6FC680608D5700606D521686FF040004B
:102FD0000861204600F0D0F9A80608D5B00606D54D
:102FE00021686FF0200008612046FFF7E2FCE8024C
:102FF00008D5F00206D521686FF4801008612046DC
:10300000FFF727FDA80208D5B00206D521686FF4A6
:10301000001008612046FFF71BFD680208D570020A
:1030200006D521686FF4800008612046FFF712FD85
:1030300028020AD5300208D521686FF40000086123
:103040002046BDE8F041FFF755BDBDE8F081000026
:1030500010B586B0044614216846FDF713F90E49F1
:103060002068884215D10D48C16C41F00401C1644B
:10307000C06C002100F0040005900F200090022099
:10308000CDE901010321CDE9031069460448FEF7AB
:10309000A9FC06B010BD0000002C01400010024049
:1030A00000080048704770B5044690F83C000026C0
:1030B0000D4601280BD0012084F83C000C2A4AD090
:1030C00007DC82B1042A20D0082A06D131E0022090
:1030D00070BD102A53D0142A63D00126002084F832
:1030E0003C00304670BD206802F062FA20688169B9
:1030F00041F0080181612068816921F0040181614A
:10310000206881692A69114311E0206802F09EFA63
:103110002068816941F4006181612068816921F43E
:1031200080618161206881692A6941EA02218161A7
:10313000D4E7206802F0D2FA2068C16941F00801A2
:10314000C1612068C16921F00401C1612068C169C1
:103150002A69114311E0206802F008FB2068C16968
:1031600041F40061C1612068C16921F48061C161DD
:103170002068C1692A6941EA0221C161AEE720687D
:1031800002F03CFB2068016D41F0080101652068F8
:10319000016D21F0040101652068016D2A69114368
:1031A00011E0206802F062FB2068016D41F40061CB
:1031B00001652068016D21F4806101652068016D61
:1031C0002A6941EA0221016588E710B5040003D0AD
:1031D00094F83D0010B107E0012010BD002084F8F4
:1031E0003C00204600F022F8022084F83D00211D1A
:1031F000206802F05DF9012084F8480084F83E0060
:1032000084F83F0084F8400084F8410084F84200CC
:1032100084F8430084F8440084F8450084F84600AC
:1032200084F8470084F83D00002010BD70477047C7
:1032300030B5044669B104290ED008290FD00C29F5
:1032400010D0102911D094F84300012810D001208B
:1032500030BD94F83E00F8E794F83F00F5E794F8A5
:103260004000F2E794F84100EFE794F84200ECE701
:103270000220E9B3042942D0082943D00C2944D0C4
:10328000102945D084F843000122206802F06EF92D
:1032900021492068214A224B884209D0904207D018
:1032A000984205D01F4DA84202D01F4DA84203D11D
:1032B000456C45F400454564206888420CD0B0F167
:1032C000804F09D01949884206D01949884203D055
:1032D000904201D0984207D18168164A11400629D0
:1032E00008D0B1F5803F05D0016841F0010100E050
:1032F00002E00160002030BD84F83E00C4E784F89D
:103300003F00C1E784F84000BEE784F84100BBE716
:1033100084F84200B8E70000002C0140003401406E
:1033200000400140004401400048014000040040CA
:10333000000800400700010010B50A49006809684C
:1033400088420ED10848FDF701FE08480188491C53
:10335000018007490888401C088006480188491CEC
:10336000018010BDF800002028000020120000207D
:10337000160000201A000020704790F884100129E0
:1033800018D0012180F884102421C0F88810016829
:103390000A680B6823F001030B6022F00051002241
:1033A0004266036819602021C0F8881080F88420E4
:1033B000104670470220704770B5044690F88400AC
:1033C00001281DD0012084F884002420C4F888003E
:1033D00020680568026822F00102026020688268A5
:1033E00022F060620A438260204602F0E3FA20681D
:1033F00005602020C4F88800002084F8840070BD97
:10340000022070BD70B5044690F8840001281DD0DC
:10341000012084F884002420C4F88800206805680E
:10342000026822F0010202602068826822F0604295
:103430000A438260204602F0BDFA20680560202021
:10344000C4F88800002084F8840070BD022070BD9C
:1034500010B5040003D0D4F8880010B107E00120B3
:1034600010BD002084F88400204600F027F82420B6
:10347000C4F888002068016821F001010160A06A99
:1034800010B1204602F0B8FA204602F099FB01285C
:10349000E6D02068416821F490414160206881684D
:1034A00021F02A0181602068016841F0010101607A
:1034B0002046BDE8104002F003BB000010B598B0F4
:1034C0000446142111A8FCF7DDFE44216846FCF7F0
:1034D000D9FE16492068884226D101200024CDE972
:1034E00000046846FEF762FC08B1FDF719FA1048BF
:1034F000016E41F480410166016E01F48041169134
:10350000C16C41F00201C164C06C11A900F002005D
:103510001690C02011900220CDE912040720CDE9B9
:1035200014400448FEF75EFA18B010BD00380140A0
:10353000001002400004004810B5417890ED081AD0
:10354000012290ED070AB6EE003A002351BB70EE5F
:10355000410A4188491C60EE830A89B24180C0ED6E
:10356000040AF5EEC00AF1EE10FA03D2F1EE600A99
:10357000C0ED040ADFED560AB1F5C87F42D3A1F5CC
:10358000C874F1EE041AC82C16D3C83C0A2C0AD20F
:10359000C0ED031AD0ED010AD0ED041A70EEA10AB5
:1035A000C0ED010A32E0A1F26224C82C2AD3C83C43
:1035B000F9EE041AC82C02D2C0ED031A26E0A1F2DB
:1035C000F2340A2C0AD2C0ED031AD0ED020AD0ED73
:1035D000041A70EEA10AC0ED020A17E0B1F57F7F70
:1035E00010D0A1F54074FD3C10D142704380D0ED65
:1035F000020AD0ED011AF4EEE10AF1EE10FA04DD50
:10360000027003E0C0ED030A00E0037070EE010AEF
:1036100060EE830AC0ED090AD0ED0A0A90ED0B1A9C
:1036200030EE811A21EE031A80ED0C1A80ED080AA3
:10363000C0ED0B0AD0ED0F1AC0ED101A90ED131A61
:1036400080ED141AD0ED0D2A90ED0E0A32EEC00A6C
:1036500060EE030AC0ED0F0A90ED112A90ED120AF8
:1036600032EE400A20EE030A80ED130AC0ED0E2A66
:1036700080ED122A017DB1B1012913D171EEE00A6A
:1036800031EE400AC0ED150A80ED160A90ED060AEB
:10369000B5EEC00AF1EE10FA03DDB1EE400A80ED9E
:1036A000060A037510BD70EEE10A30EE410AC0ED66
:1036B000150A80ED160A90ED060AB5EEC00AF1EE85
:1036C00010FA03D2B1EE400A80ED060A027510BD71
:1036D00000000000FEE7D0ED0D0AD0ED061A90EDD7
:1036E0000E1A90ED050A20EEA12A01EE402A21EEE5
:1036F000211A00EE801A80ED0F2A80ED101A704713
:103700002DE9F04106461D4617460C462A2000F0DA
:1037100073F9304600F066F9384600F063F92B2063
:1037200000F06AF91834A0B200F05CF91835A8B2BC
:1037300000F058F9BDE8F0412C2000F05DB92DE90A
:10374000F04780461F46581E83B21646501E82B26E
:103750000D464046DDF82090FFF7D2FF0AE04446D0
:1037600004E0484600F03EF9641CA4B2B442F8D329
:103770006D1CADB2BD42F2D3BDE8F08738B5834DC4
:103780004FF40064002221462846FEF70BFA64201D
:10379000FEF716F9012221462846FEF703FAC82053
:1037A000FEF70EF9112000F027F97820FEF708F94E
:1037B000202000F021F9B12000F01EF9052000F0D2
:1037C0002FF93C2000F02CF93C2000F029F9B22020
:1037D00000F012F9052000F023F93C2000F020F958
:1037E0003C2000F01DF9B32000F006F9052000F0A0
:1037F00017F93C2000F014F93C2000F011F90520E5
:1038000000F00EF93C2000F00BF93C2000F008F924
:10381000B42000F0F1F8032000F002F9C02000F01D
:10382000EBF8AB2000F0FCF80B2000F0F9F80420D6
:1038300000F0F6F8C12000F0DFF8C52000F0F0F845
:10384000C22000F0D9F80D2000F0EAF8002000F0C6
:10385000E7F8C32000F0D0F88D2000F0E1F86A20EE
:1038600000F0DEF8C42000F0C7F88D2000F0D8F892
:10387000EE2000F0D5F8C52000F0BEF80F2000F0D3
:10388000CFF8E02000F0B8F8072000F0C9F80E20CB
:1038900000F0C6F8082000F0C3F8072000F0C0F8D8
:1038A000102000F0BDF8072000F0BAF8022000F068
:1038B000B7F8072000F0B4F8092000F0B1F80F20A5
:1038C00000F0AEF8252000F0ABF8362000F0A8F8A4
:1038D000002000F0A5F8082000F0A2F8042000F075
:1038E0009FF8102000F09CF8E12000F085F80A20F5
:1038F00000F096F80D2000F093F8082000F090F802
:10390000072000F08DF80F2000F08AF8072000F063
:1039100087F8022000F084F8072000F081F80920E1
:1039200000F07EF80F2000F07BF8252000F078F8FA
:10393000352000F075F8002000F072F8092000F042
:103940006FF8042000F06CF8102000F069F83A20BD
:1039500000F052F8052000F063F8362000F04CF833
:10396000A82000F05DF8292000F046F80020502340
:10397000A02201460090FFF7E2FE05485023009088
:103980001A460021282000F005F838BD000800483C
:10399000629800082DE9F0479846914601EB08022D
:1039A000521E93B200EB0902521E002492B2089FED
:1039B000FFF7A6FE002611E000250BE017F8140023
:1039C00000F02EF807EB4400407800F029F86D1C59
:1039D000ADB2641C4545F1D3761CB6B24E45EBD36F
:1039E000BDE8F08710B50446000A00F019F8E0B20F
:1039F000BDE8104000F014B870B5084C0546002230
:103A000004212046FEF7CEF8284600F009F82046AB
:103A1000BDE8704001220421FEF7C4B8000C004844
:103A200031B54FF400444FF090450022214628461E
:103A3000FEF7B8F801231A4669460448FEF7DEFE91
:103A4000012221462846FEF7ADF838BD940000203B
:103A500000EB8100006E00F0F840704700EB810041
:103A6000006E00F0F84070478068C0F3C0007047F7
:103A70008068C0F3C00070478068C0F300007047E2
:103A80008068C0F3000070478068C0F38000704712
:103A90008068C0F380007047C06810F4406F01D0A8
:103AA0000020704701207047042303EAD15310B56A
:103AB00018444369C1F3045107248C40A3438A404E
:103AC0001343436110BD042303EAD15310B51844D6
:103AD0004369C1F3045107248C40A3438A40134334
:103AE000436110BD00EB8100016E21F000411143E4
:103AF0000166704700EB8100016E21F00041114327
:103B000001667047084908880A2803D0142809D19B
:103B10000A2006E04888B0F5FA6F03D300204880F9
:103B200014200880704700001400002010B50B4CD2
:103B300020880A2808D014280ED14FF400410848E4
:103B4000FEF728F80A2006E06088B0F5FA6F03D384
:103B5000002060801420208010BD00001000002094
:103B60000008004870B598B020210FA8FCF78AFB28
:103B70003C216846FCF786FB444843490024016029
:103B80004FF44031C0E90114042585610121C4606E
:103B9000C0E90441047744770321016280F824409E
:103BA000C462046380F83840C46380F84040FDF785
:103BB000A9FD08B172B6FEE735480F9010A906209E
:103BC0007F2681E85100CDE913540FA92F48FDF756
:103BD00053FA08B172B6FEE72E480F900C201090F1
:103BE0000FA92A48FDF748FA08B172B6FEE72A483D
:103BF0000F90122010900FA92448FDF73DFA08B14C
:103C000072B6FEE72548009001A9092081E851001D
:103C1000CDE904548DF824408DF8254008958DF8A1
:103C200026400A940B948DF8304069461748FCF7FB
:103C3000CBFE08B172B6FEE71948009040F20F10B3
:103C4000019069461148FCF7BFFE08B172B6FEE765
:103C50001448009040F21520019069460B48FCF78B
:103C6000B3FE08B172B6FEE70F48009040F21B3079
:103C7000019069460548FCF7A7FE002801D072B6FE
:103C8000FEE718B070BD00000001005028000020C1
:103C90002000F0141000C010002090360800900C96
:103CA000000052470008302E001060322DE9F04F1E
:103CB00087B014216846FCF7E5FA4048C16C41F032
:103CC0000401C164C16C01F004010591C16C41F0B3
:103CD0002001C164C16C01F020010591C16C41F06B
:103CE0000101C164C16C01F001010591C16C41F099
:103CF0000201C164C16C01F002010591C16C41F087
:103D00000801C164C06CDFF8B88000F008004FF40F
:103D100060440590012221464046FDF743FF4FF0E5
:103D20009049002207214846FDF73CFFDFF894A0A8
:103D3000002201215046FDF735FF0122D1034846FC
:103D4000FDF730FF4FF40067002239464046FDF78B
:103D500029FFDFF874B0002204215846FDF722FF46
:103D6000009401240025CDE90145694640460395AC
:103D7000FDF738FE48F2070003268DE8710069461A
:103D80004846FDF72FFE01AA009482E870006946BC
:103D90005046FDF727FE01AA009782E870006946A9
:103DA0004046FDF71FFE04208DE871006946584625
:103DB000FDF718FE07B0BDE8F08F000000100240CC
:103DC0000008004800040048000C0048124810B5E4
:103DD000104901604FF4827141604FF400418160ED
:103DE0004FF4E061C16000214FF400720161C0E94D
:103DF00005121022C0E9072107224162C0E90A1218
:103E0000016308214163FEF74FFC002801D072B620
:103E1000FEE710BD003C00409400002010B59CB0AF
:103E2000002419941A9417941894149415941C212E
:103E300068461694FCF726FA342107A8FCF722FA04
:103E400039483849C0E900142021816041F29A01C3
:103E5000C0E903140121416180218161FEF74BFE1D
:103E600008B172B6FEE74FF48050179017A92E489C
:103E7000FEF7CCFE08B172B6FEE72B48FFF7A5F9B6
:103E800008B172B6FEE71494159414A92648169446
:103E9000FEF7E2FD08B172B6FEE77020CDE900043E
:103EA0000294039404940594002269461E480694E3
:103EB000FFF7F9F808B172B6FEE7042269461A481E
:103EC000FFF7F1F808B172B6FEE708226946164816
:103ED000FFF7E9F808B172B6FEE70C22694612480E
:103EE000FFF7E1F808B172B6FEE707940894099469
:103EF0004FF400500A94CDE90B400D9400030E944A
:103F0000CDE90F401194129407A907481394FEF7C6
:103F100051FD08B172B6FEE70348FFF799F81CB0EF
:103F200010BD0000002C0140F800002010B58CB03E
:103F300024216846FCF7A6F90024164809940A943F
:103F400013490B94C0E9001440F6FF71C0E9024127
:103F5000046184610320CDE900040120CDE902045D
:103F60000494CDE90540079469460A480894FEF791
:103F7000CDFE08B172B6FEE7099409A905480B9475
:103F8000FEF76AFD002801D072B6FEE70CB010BD46
:103F90000004004044010020164810B51449016097
:103FA00015494160002181600C22C160C0E9041202
:103FB0008161C161016241628162FFF749FA08B122
:103FC00072B6FEE700210B48FFF71CFA08B172B683
:103FD000FEE700210748FFF7EFF908B172B6FEE7E8
:103FE0000448FFF7CAF9002801D072B6FEE710BDF9
:103FF000003801409001002000941100FEE700000D
:104000002DE9F041874C02202546667995ED0E1A80
:10401000F7EE004A9FED843A95ED1F0A01232979B6
:104020000022DFED820A9C3516B1012E7ED1A2E07E
:104030009FED7F4A7B4EF7EE083A4FF47A6796ED94
:10404000222AD6ED091A41F2040651B101290FD0F6
:1040500002291FD0032936D0042943D0052958D07E
:104060006BE0C4ED350AC4ED340A2281628123710C
:10407000D4ED342A20EE225A65EE235A85EE825A78
:10408000DFED6C5A61EEA55AB4EEE55AF1EE10FA86
:1040900063DB20716089401C80B26081B84205D921
:1040A000D4ED0A2A72EE802AC4ED0A2AB04244D323
:1040B000D4ED0A2A032062EE832AC4ED0B2A628122
:1040C000C4ED0A0A2071D4ED342A20EE225A65EE9E
:1040D000233A83EE825AB4EEE15AF1EE10FA43DB52
:1040E000042020716089401C80B26081B84224D9CC
:1040F000D4ED0A1AB04231EE800A84ED0A0A1CD3CC
:1041000020EE030A052084ED0C0A6281C4ED0A0A40
:10411000207194ED0D0AD4ED0B1A31EE400A94EDA6
:104120000C1A31EE611AC0EE011A00E00CE0C4ED89
:10413000031AC4ED340A22716371C4ED2C0AC4ED74
:104140002D4A2846FFF7C7FA94ED220A284684ED47
:10415000380ABDE8F041FCF7E5B932EE840A84ED97
:10416000340A84ED0D0AE8E732EE840A84ED340A5D
:1041700084ED0E0AE1E7A1B1012921D00229DCD1A9
:1041800094ED080A20EE030A84ED040A84ED060A81
:1041900084ED050A2271C4ED080A62816271A3717F
:1041A000CBE710EE101A244EC4ED350AC4ED340AE4
:1041B000B142C2D810EE101A204EB142BDDC2371BC
:1041C00084ED341A6189DFED1E1A491C89B26181C0
:1041D00094ED0C1A21EE211AB4EEC10AF1EE10FA98
:1041E000ABDB94ED030ADFED171A94ED081A20EE0D
:1041F000210ADFED151A60EE211A00EE101AB8EE52
:10420000400A01EE801A84ED081A62812189491C56
:1042100089B221812271C4ED340A64298DD32071C1
:10422000AEE70000240200200AD7233C0000000073
:1042300017B7D1389A99193FCDCC4CBDCDCC4C3D58
:104240003333733F0C02AB3E17B75138504800214F
:1042500001704170012180F858109FED4E0A80EDE9
:10426000260A9FED4D0A072280ED250A80F83C10B2
:1042700080F83E2040F6FF72DFED480A4264C0ED50
:10428000320AC0ED330A42F23413A0F8E43041F6AA
:104290007863A0F8E630A0F81E22B0EE080A80EDA0
:1042A000820A9FED3F0AA0F8D42180ED7C0A9FEDA1
:1042B0003D0A80ED790A9FED3C0A80ED090AB2EED5
:1042C0000C0A80ED910A9FED390A80ED8E0AC0ED4F
:1042D0009C0ADFED370A80EDB50AC0EDBE0AF6EEA6
:1042E000000AC0EDBF0A9FED331ADFED331A80EDEF
:1042F000C41AC0EDA31ADFED311A80F81413C0ED13
:10430000CF1AF3EE041AC0EDD01A80EDC60A80ED84
:10431000D51A9FED2B1ADFED2B1A80ED3C1AC0ED5C
:104320003D1AB1EE082A80ED462AB9EE080A80ED62
:10433000470A80ED4A1AC0ED4B1A80ED542A80EDF1
:10434000550A9FED210A9FED211A80ED580A80ED54
:10435000641A80ED650A9FED1E0A80ED590AB2EEDF
:10436000000A80ED620ABAEE000A80ED630A9FED52
:10437000190AC0ED660A80ED670A80ED680A9FEDB4
:10438000160A80ED700A9FED150A80ED710A7047DC
:10439000240200200000843C8906933CCDCCCC3D17
:1043A000CDCC4C3D008012439A99193F17B7513834
:1043B0000000A0420AD7233C3333B33F00006144DE
:1043C000CDCC4C3E6F12033B6F12833A0AD7A33B0E
:1043D000BD3706360000000000C05A4600C05AC66D
:1043E000FFF734BF70B5304C04F1580594F859000C
:1043F000012825D12846FCF71BF82846FCF73EF893
:1044000094ED220ADFED290A9FED291A10EE100A19
:1044100060EE200A20EE011A2649C4ED910AC4ED8F
:10442000540A84ED551AC4ED460A84ED471A8842B1
:1044300004DD10EE100A2049884201DB02202070C2
:104440002178002006291CD2DFE801F00328280C7F
:104450001C242846FBF7B9FF94F85900012810D115
:1044600003200DE0FFF7CCFDA079012809D194EDE0
:10447000030A042084ED8F0A94ED060A84ED900A65
:10448000207070BD08483C30FBF7E3FFBDE870408A
:1044900000F044BEBDE8704000F044BA24F8E80FD4
:1044A0006080A08070BD00002402002036CD133F44
:1044B00036CD13BF0000404100002042FEE790EDE2
:1044C000030AD0ED040A30EE600A80ED060AD0ED52
:1044D000051A90ED0A1AD0ED0B0AF4EEC11AF1EEAE
:1044E00010FA0AD2F4EEE01AF1EE10FA05DDD0ED82
:1044F000091A71EE801AC0ED091AD0ED001A90ED7C
:10450000012AD0ED092A61EE801A42EE221A90EDBE
:10451000072AD0ED022A30EE422A42EE821AC0ED7E
:10452000051AF4EEC11AF1EE10FA02DAB0EE611AD1
:1045300001E080ED051AB4EEE01AF1EE10FA01D8B0
:10454000C0ED050A80ED070A7047000090ED090AEA
:10455000D0ED020A90ED031A90F9001020EE200A27
:10456000D0ED080AB7EE002A2F4A00EE810A00EECD
:10457000901AF8EEE00A20EE200A80ED040AD0ED51
:104580000A0A20EE801A80ED0C1AD0ED0D0AD0ED4B
:104590000B1A41EE800AC0ED0D0A71EE200AC0ED43
:1045A0000E0A90ED100AD0ED0F1A20EE801A32EEAE
:1045B000400A01EE801A80ED0F1A90ED050AD0ED49
:1045C000011A00EEA10ADFED190A10EE101A80EDB3
:1045D000050A914202DD30EE600A06E0B5EEC00A3F
:1045E000F1EE10FA03D230EE200A80ED050AB0EEAB
:1045F000402A01EE210A10EE101A80ED060A9142BF
:1046000002DD30EE600A06E0B5EEC00AF1EE10FA07
:1046100003D230EE200A80ED060A9FED050A22EE55
:10462000000A80ED070A7047D00FC940D00FC9407B
:1046300054EF2244D0ED030AD0ED061A90ED041A8F
:1046400090ED050A20EEA12A01EE002A21EE211AA2
:1046500000EEC01A80ED072A80ED081A70477047F7
:1046600090ED080AD0ED0B2A90ED002A4FF07E5312
:1046700070EE620A90ED020A314A80EE801AD0EDA7
:10468000010AF1EE600A80EE803AD0ED060A03EEF0
:10469000201A42EE010AC0ED060A90ED091AD0ED8B
:1046A0000D1A31EE611AC1EE003A90ED071A43EE91
:1046B000013A02EE231A80ED071A90ED040A70EE1B
:1046C000C00A90ED030A10EE901A994202DD80EDC7
:1046D0000A0A0AE010EE901A914202D9F1EE400A5D
:1046E00001E060EE800AC0ED0A0AD0ED050A71EE25
:1046F000600A10EE901A994208DC10EE901A91426E
:1047000002D9B1EE400A01E020EE800A80ED0C0AE9
:10471000D0ED0A0A90ED0E0A20EE801AF7EE000A9C
:1047200070EEC00A02EEA01A80ED0B1A90ED0C1A82
:1047300021EE000A01EEA00A80ED0D0A704700008C
:10474000000080BFF8B515460E460B4600920446A1
:1047500000224FF4C05100F019F888B93346002206
:1047600080212046009500F07FF848B933460022AA
:104770004FF4C0612046009500F008F8002804D0EE
:10478000206E40F0200020660320F8BD2DE9FC5F7C
:104790004FF0000B984616460F4604460C9D8DF8C8
:1047A00004B0FDF705FA411BA8EB0105FDF700FA7F
:1047B0008246206800F10C092A480068C0EBC0005E
:1047C00000EB8000000D684343E0B7F5C06F06D1F1
:1047D0002EB999F800008DF804009DF80400B8F196
:1047E000FF3F37D0FDF7E4F9A0EB0A00A84203D25F
:1047F00015B1009858B32BE02068416821F0E00122
:1048000041606068B0F5827F0BD1A068B0F5004FC1
:1048100002D0B0F5806F04D12068016821F040011A
:104820000160A06AB0F5005F09D12068016821F439
:10483000005101602068016841F4005101600120CD
:1048400084F85D0084F85CB00320BDE8FC9F00257F
:10485000401E0090206880683840B042B5D10020EA
:10486000F3E700000C0000202DE9F8431E469146B6
:1048700088460446089DFDF79BF9401B351AFDF755
:1048800097F9074625480068C0F3CB30684338E005
:10489000701C37D0FDF78CF9C01BA84203D215B1AC
:1048A000009860B32CE02068416821F0E00141608D
:1048B0006068B0F5827F0BD1A068B0F5004F02D0E0
:1048C000B0F5806F04D12068016821F040010160DB
:1048D000A06AB0F5005F09D12068016821F4005199
:1048E00001602068016841F400510160012084F8F2
:1048F0005D00002084F85C000320BDE8F8830025FB
:10490000401E00902068816838EA010004D0002031
:104910004845BDD10020F0E70120F9E70C00002058
:10492000704700002DE9F04FFF4C2DED048B87B050
:104930006378DFEDFE0A214601F1B400039001F532
:104940000070069001F13C0201F1B00B01F1F00A98
:1049500001F5947901F5E876A03801F51D789FED11
:10496000F49AF44F9FEDF48A059001F54E70019092
:10497000001F029020380490B1F8D20191EDCC0ACA
:10498000401C9C31BDEEC00A00255B1F80B2F7EED3
:10499000008A0091062B67D2DFE803F0031767F760
:1049A000F6F59FEDE60A104684ED340AC4ED140ACC
:1049B000FBF784FF94ED150A5946039ABDEEC00A31
:1049C00010EE100AFBF7ACFE4BE0C4ED4D8AC4EDCF
:1049D000140A1046FBF772FF94ED150A5946039A24
:1049E000BDEEC00A10EE100AFBF79AFE94ED1F0A06
:1049F00084ED270A94ED200A84ED280A0098FBF73D
:104A000045FF0098FFF716FE94ED2E0AD4ED320A0A
:104A100094ED301A504620EE200A78EEE00A01EEBE
:104A2000200A84ED300AD4ED2F0A94ED331AD4ED28
:104A3000311A60EE810A38EEC11A41EE810AC4EDE6
:104A4000310AC4ED400A84ED4E0AFFF738FD4846AE
:104A5000FFF735FD94ED410A84ED350A94ED4F0AD8
:104A600048E20098FEF737FEF5E1B54F4FF0010838
:104A700039789FEDB48AAC4B93ED7E0A21B10129C0
:104A800025D002297ED04CE184ED3F8A84ED4D8A09
:104A900084ED618A84ED158A84ED7F8A84F818524A
:104AA00084ED858A84ED808A10EE100A84ED818A77
:104AB000A54984EDC38A84EDC18A884204DA10EEE8
:104AC000100AA2498842DED387F8008029E184EDEC
:104AD0003F8AF1EE040AC4ED4D0AF1EE0C0A1046CD
:104AE00020EE200A84ED140AFBF7E8FE94ED150A87
:104AF0005946039ABDEEC00A10EE100AFBF710FEED
:104B000094ED140AB5EEC00AF1EE10FA02DBFF20B4
:104B100084F8D002B5EEC00AF1EE10FA01D284F8A2
:104B2000D08294ED150A8A4A10EE100A811889483D
:104B300081422DD2D4EDBB0A10EE901A114481426D
:104B400026D2B88830EE600A401CB880606C00EE57
:104B5000900AB8EEE01ADFED800A21EE201AB4EEDA
:104B6000C10AF1EE10FA13D8404201EE100AB8EE75
:104B7000C11A61EE200AB4EEE00AF1EE10FA07DB8A
:104B8000F88803E02DE01FE2B7E138E2401CF8802E
:104B9000B888B0F5967F19D300EE100AB8EE400A37
:104BA000DFED6E0AF88860EE200A00EE100AB8EE1B
:104BB000400AF4EEC00AF1EE10FA05D8022038706F
:104BC00084ED4D8A84ED158AFD80BD80388949F6D3
:104BD0004041401C80B2388188427DD33D703D8188
:104BE0009CE0A4F8D20102287AD3A4F8D25194ED23
:104BF000BB0A3046BDEEC00A84ED760AFBF710FE14
:104C000094ED7A0AD4ED7C0A94ED7B1A20EE200A0A
:104C100078EEE00A01EE200A84ED7B0A94F83E006B
:104C200000EE900AF8EE600A80EE201A84ED7D1AFC
:104C300094ED7E0AB5EEC00AF1EE10FA08DB10EE34
:104C4000101A474A914203DC9FED460A84ED7E0A22
:104C5000B5EEC00AF1EE10FA08D810EE101A424A6A
:104C6000914203D89FED410A84ED7E0AD4ED7F0A7C
:104C7000B4EE600AF1EE10FA1CD001EE100AB8EEA4
:104C8000411A60EE810AC4ED800A00EE900AF8EE47
:104C9000600A20EE200A84ED810A069800F042FEA8
:104CA00094F81802012805D194ED7E0A84ED7F0A5C
:104CB00084F8185294ED850A84ED5B0A94ED7B0A22
:104CC00084ED5C0A94ED650A84ED580A0598FFF7B7
:104CD000F6FB94ED5D0A01E023E001E084ED3F0A7C
:104CE00094EDBB0A5946039ABDEEC00A10EE100AB5
:104CF000FBF716FD788844F62061884201D2401CFB
:104D0000788080B288420CD31949D4F8EC018842EB
:104D100007DC1849884204D83D707D807878401CB3
:104D2000787094ED1F0A27E02402002000007A44E6
:104D3000DA0F4940DB0FC940DB0FC9409A99193F90
:104D40001C0000200000000000006041000060C165
:104D5000FFFF05BCFFBF6001CDCCCC3D6666663F62
:104D60000000484400004844000048C4000048C413
:104D700000007A4400007AC484ED270A94ED200AEA
:104D800084ED280A0098FBF781FD0098FFF752FC9C
:104D900094ED2E0AD4ED320A94ED301A504620EEEE
:104DA000200A78EEE00A01EE200A84ED300AD4ED04
:104DB0002F0A94ED331AD4ED311A60EE810A38EEE1
:104DC000C11A41EE810AC4ED310AC4ED400A84EDF6
:104DD0004E0AFFF774FB4846FFF771FB94ED410A5A
:104DE00084ED350A94ED4F0A84ED340A0098FEF7FD
:104DF00072FC94ED030AC44884ED8F0A94ED060A10
:104E000084ED900A94ED2A0A84ED920A94ED2B0A1F
:104E100084ED930A94ED360A84ED960A94ED370AF0
:104E200084ED970AFFF71CFC94ED990AB64884EDCF
:104E3000B60A94ED9B0A983084EDB70AFFF786FB1B
:104E400094EDBB0AB04ABDEEC00ABC32111F10EE91
:104E5000100AFBF765FC94ED220A84ED380A0098ED
:104E600007B0BDEC048BBDE8F04FFBF75BBB94F8DB
:104E7000740201280FD184F8745294EDCA0A30EEFE
:104E8000090A10EE100A84EDCA0AB84203DD30EEBA
:104E9000480A84EDCA0A94EDCC0ADDE90121BDEE91
:104EA000C00A10EE100AFBF73BFC94EDB30A84ED48
:104EB000C70A94EDB20AB1EE400A84EDC80A04981C
:104EC000FFF744FB94EDA90A504684ED400A94EDA7
:104ED000A60A84ED4E0AFFF7F2FA4846FFF7EFFA0A
:104EE00094ED410A84ED350A94ED4F0AD4EDA30AFE
:104EF00030EE200A84ED340AB3E5A4F8D20102288A
:104F00007DD3A4F8D25184ED760A3046FBF788FCB5
:104F100094ED7A0AD4ED7C0A94ED7B1A7B4A20EE5C
:104F2000200A78EEE00A01EE200A84ED7B0A94F86C
:104F30003E0000EE900AF8EE600A80EE201A84ED42
:104F40007D1AD4F8F811914203DB9FED710A84EDCC
:104F50007E0A704AD4F8F811914202D200EE101A7B
:104F600003E09FED6D0A84ED7E0AD4ED7F0AB4EE76
:104F7000600AF1EE10FA1CD001EE100AB8EE411AE8
:104F800060EE810AC4ED800A00EE900AF8EE600A35
:104F900020EE200A84ED810A069800F0C3FC94F804
:104FA0001802012805D194ED7E0A84ED7F0A84F869
:104FB000185294ED850A84ED5B0A94ED7B0A84ED2A
:104FC0005C0A94ED650A61E0A4F8D201B4F81C0211
:104FD000401C80B2A4F81C02042824D34A48A4F838
:104FE0001C5284ED880A1C38FBF76BFAD4F82C02AB
:104FF00000EE100AB8EEC00A84ED6A0A00E04EE046
:10500000D4F83412C1EBC10100EE101A072190FB55
:10501000F1F0B8EEC00A84ED690AC4F830023A48EB
:10502000A038FFF74CFAB4F8D201022837D3A4F81D
:10503000D25194EDCC0A3046BDEEC00A84ED760A1A
:10504000FBF7EEFB94ED7A0AD4ED7C0A94ED7B1A23
:1050500020EE200A78EEE00A01EE200A84ED7B0AB9
:1050600094F83E0000EE900AF8EE600A80EE201AF6
:1050700084ED7D1AD4ED6B0AC4ED5B0A84ED5C0A05
:1050800094ED650AF0EE000A20EE200A84ED580A3D
:105090000598FFF714FA94ED5D0A84ED3F0A94ED4C
:1050A0001F0A84ED270A94ED200A84ED280A00984F
:1050B000FBF7ECFB94EDCC0A5946039ABDEEC00A0F
:1050C00010EE100AFBF72CFB0098FFF7B3FA94EDF3
:1050D0002E0A404684EDA40A94ED2F0A84EDA70A17
:1050E00094ED2A0A84EDAA0A94ED2B0A84EDAE0A07
:1050F000FEF722FA94F8750200287FF4B8AE94ED1A
:10510000A00A84ED4D0AB2E65C04002000401C4574
:1051100000401C4500401CC500401CC52DE9F04F57
:10512000BB4C2DED028B04F1B40281B0111FA06CB9
:10513000FBF7F6FA204600F1F00800F5947700F549
:10514000E87600F5B07B62789C30DFF8C892DFF833
:10515000C8A20025B7EE008A0090052A46D2DFE8F3
:1051600002F00342B951F700B4F84C009FEDAB1ABE
:10517000DFEDAB0A10B1012818D034E094ED340A09
:1051800030EE010A84ED340AC4ED350A84ED2C8A30
:10519000C4ED2D0AD4ED0E1AB4EEE10AF1EE10FAC8
:1051A00021DBC4ED340A0120A4F84C0094ED340A4C
:1051B00030EE010A84ED340AC4ED350AC4ED2C0A40
:1051C00084ED2D8A94ED0E1AB4EEC10AF1EE10FAB8
:1051D00009DBB4F84000A4F84E00A4F84C50C4ED2C
:1051E000340A042060700098FEF775FA94ED220AE4
:1051F00084ED380A009801B0BDEC028BBDE8F04F99
:10520000FBF790B9B4F8D201401C80B2A4F8D201E7
:1052100002285FD3A4F8D251A06CC4F8D80130465C
:10522000FBF7FEFA94ED7A0AD4ED7C0A94ED7B1A32
:1052300020EE200A78EE600A01EE200A84ED7B0A57
:1052400094F83E0000EE900AF8EE600A80EE201A14
:1052500084ED7D1A94ED7E0AD4ED7F0AB4EE600AE7
:10526000F1EE10FA1CD001EE100AB8EE411A60EE11
:10527000810AC4ED800A00EE900A6A48F8EE600ADE
:1052800020EE200A84ED810A00F04CFB94F818020D
:10529000012805D194ED7E0A84ED7F0A84F8185226
:1052A00094ED850A84ED5B0AD4F8EC01C4F8700132
:1052B000484504D2504502DA94ED640A01E094EDC9
:1052C000650A584684ED580AFFF7F9F894ED5D0A2F
:1052D00084ED3F0A94ED1F0A84ED270A94ED200A1D
:1052E00084ED280A0098FBF7D1FA0098FFF7A2F99D
:1052F00094ED2E0AD4ED320A94ED301A404620EE99
:10530000200A78EE600A01EE200A84ED300AD4ED1E
:105310002F0A94ED331AD4ED311A60EE810A38EE7B
:10532000411A41EE810AC4ED310AC4ED400A84ED10
:105330004E0AFFF7C4F83846FFF7C1F894ED410A6A
:1053400084ED350A94ED4F0A84ED340A4BE7FFE70C
:10535000B4F81C02401C80B2A4F81C02B4F8D211AC
:10536000491CA4F8D211042823D3A4F81C52A06C21
:10537000C4F820022B481C30FBF7A3F8D4F82C0209
:1053800000EE100AB8EEC00A84ED6A0AD4F83412AE
:10539000C1EBC10100EE101A072190FBF1F0B8EE4D
:1053A000C00A84ED690AC4F830021E486838FFF765
:1053B00086F8B4F8D20102288CD3A4F8D251A06C9C
:1053C000C4F8D8013046FBF72BFA94ED7A0AD4EDF5
:1053D0007C0A94ED7B1A20EE200A78EE600A01EE3A
:1053E000200AF1EE0C0A84ED7B0A80EE201A10EE02
:1053F000100A484584ED7D1AD4ED6B0AC4ED5B0AB2
:1054000084ED5C0ABFF45BAF10EE100A52E70000B7
:10541000240200200000FAC40000FA4417B7D13873
:105420000000000024040020FCF7C8BB10B594B0B5
:1054300038216846FAF726FF14210EA8FAF722FF52
:105440000020FCF74DFC01200090000403240421FF
:105450000190CDE9084102205521CDE90A100790BD
:105460000C900D906846FCF725FF08B172B6FEE778
:105470000F20CDE90E04002010901190129004210D
:105480000EA8FCF7E1FD002801D072B6FEE714B0CB
:1054900010BD00000248016841F4700101607047CE
:1054A00088ED00E00148FDF701BD0000F800002094
:1054B0002DE9F0430268264C264D274E274B4FF02E
:1054C0008049A04207D0484505D0A84203D0B04249
:1054D00001D0984203D122F070074A683A43204F26
:1054E000DFF880C0DFF88080A0420DD048450BD0A7
:1054F000A84209D0B04207D0984205D0B84203D0A4
:10550000604501D0404503D122F44075CA682A4362
:105510004D6922F080022A4302608A68C2620A68EA
:105520008262A04207D0984205D0B84203D06045BD
:1055300001D0404501D1096901630121416101693F
:10554000C90703D0016921F001010161BDE8F083C1
:10555000002C0140000400400008004000340140DD
:1055600000400140004401400048014010B501F0F6
:105570001F010123046A8B409C430462036A8A4032
:105580001343036210BD10B5846842EA032224F479
:105590007F440A432243826010BD00008268034BAF
:1055A0001A400A4342F00701816070478FFFCFFF26
:1055B0002DE9F043056A026A22F0010202624268A4
:1055C00083691C4C25F0020523400C6823F003037B
:1055D0001C438B68194E2B43174D194FDFF864C0DD
:1055E000DFF86490A84207D0B04205D0B84203D09B
:1055F000604501D0484506D123F00808CB6843EA4E
:10560000080323F00403A84207D0B04205D0B842F3
:1056100003D0604501D0484505D14D6922F4407260
:1056200015438A692A434260846149684163036281
:10563000BDE8F0838FFFFEFF002C014000340140E5
:10564000004001400044014000480140F0B5046AB8
:10565000026A22F01002026242688369194D1B4EF1
:105660002B400D6823F4407343EA052524F0200302
:105670008C6843EA0413144CA04201D0B04206D116
:10568000CF6823F0800343EA071323F04003A042CE
:105690000AD0B04208D00E4CA04205D00D4CA0421A
:1056A00002D00D4CA04207D14C6922F4406242EA7C
:1056B00084028C6942EA84024260856149688163A0
:1056C0000362F0BDFF8FFFFE002C0140003401405B
:1056D000004001400044014000480140F0B5056A27
:1056E000026A22F4807202624268C369194C1B4E3E
:1056F00023400C6823F003031C4325F400738D68DA
:1057000043EA0523144DA84201D0B04206D1CF6828
:1057100023F4006343EA072323F48063A8420AD0FA
:10572000B04208D00E4DA84205D00E4DA84202D07E
:105730000D4DA84207D14D6922F4405242EA0512AC
:105740008D6942EA05124260C4614968C16303621F
:10575000F0BD00008FFFFEFF002C0140003401402F
:10576000004001400044014000480140F0B5046A97
:10577000026A22F4805202624268C369194D1B4ECC
:105780002B400D6823F4407343EA052524F40053AD
:105790008C6843EA0433144CA04201D0B04206D1D5
:1057A000CF6823F4004343EA073323F48043A04245
:1057B0000AD0B04208D00E4CA04205D00D4CA042F9
:1057C00002D00D4CA04207D14C6922F4404242EA7B
:1057D00084128C6942EA84124260C561496801649E
:1057E0000362F0BDFF8FFFFE002C0140003401403A
:1057F00000400140004401400048014030B5046AC7
:10580000026A22F4803202624268036D114D2B401D
:105810000D681D4324F400330C8943EA04430E4C05
:10582000A0420BD00D4CA04208D00D4CA04205D098
:105830000C4CA04202D00C4CA04204D14C6922F482
:10584000803242EA0422426005654968816403624D
:1058500030BD00008FFFFEFF002C014000340140EE
:1058600000400140004401400048014030B5046A56
:10587000026A22F4801202624268036D114D24F420
:1058800000142B400D6843EA05230D8944EA0554B2
:105890000D4DA8420BD00D4DA84208D00C4DA8428A
:1058A00005D00C4DA84202D00B4DA84204D14D6941
:1058B00022F4802242EA8522426003654968C1647D
:1058C000046230BDFF8FFFFE002C01400034014018
:1058D00000400140004401400048014010B5046A06
:1058E000036A23F001030362836923F0F00343EAB0
:1058F000021324F00A020A438361026210BD10B54C
:10590000036A046A24F010040462846923F0A0038B
:1059100024F4704444EA023243EA011182610162D4
:1059200010BD0000017E002940D190ED010AD0EDAC
:10593000000A012170EE601AF5EEC01AF1EE10FABD
:1059400013DD90ED031A90ED022A31EE021A80ED7C
:10595000031A30EE811A80ED051AB4EEC01AF1EE8A
:1059600010FA02DB80ED050A0176F5EEC01AF1EEC1
:1059700010FA14D290ED031AD0ED021A31EE611A2A
:1059800080ED031A70EE810AC0ED050AF4EEC00A3C
:10599000F1EE10FA03D880ED050A017602E0017EEF
:1059A000012903D19FED020A80ED030A7047000030
:1059B0000000000030B5416EB9B10268916892688C
:1059C000C1F342610B4C520FA35CDD0004F10803EC
:1059D0009A5CB5FBF2F2A0F86A20625C595CD200D6
:1059E000B2FBF1F1A0F8681030BD0121A0F86A10F7
:1059F000F8E70000685F000890F82810090706D54E
:105A000001684A68836B22F400421A434A6090F8A6
:105A10002810C90706D001684A68C36A22F4003218
:105A20001A434A6090F82810890706D501684A6829
:105A3000036B22F480321A434A6090F82810490719
:105A400006D501684A68436B22F480221A434A60F3
:105A500090F82810C90606D501688A68C36B22F43D
:105A600080521A438A6090F82810890606D501688A
:105A70008A68036C22F400521A438A6090F8281056
:105A8000490611D501684A68436C22F480121A4312
:105A90004A60416CB1F5801F06D101684A68836C89
:105AA00022F4C0021A434A6090F82810090606D56D
:105AB00001684A68C06C22F4002202434A607047C1
:105AC0002DE9F84300250446C0F89050FCF770F823
:105AD0008046206800684FF0200600076FF07E4780
