:020000040800F2
:10000000480A0020F101000851420008C9350008E3
:1000100075400008ED080008BF4E00080000000011
:100020000000000000000000000000003144000853
:10003000EF0800080000000053420008B744000821
:100040000B0200080B0200080B0200080B0200085C
:100050000B0200080B0200080B0200080B0200084C
:100060000B0200080B0200080B0200080B0200083C
:100070000B0200080B0200080B0200080B0200082C
:100080000B02000800000000350800080B02000801
:100090000B0200080B0200080B0200080B0200080C
:1000A0000B020008314500080B0200080B02000893
:1000B0000B0200080B0200080B0200080B020008EC
:1000C0000B0200080B0200080B0200080B020008DC
:1000D0000B0200080B0200080B0200080B020008CC
:1000E0000B0200080B0200080B0200080B020008BC
:1000F0000B0200080B0200080B02000800000000C1
:10010000000000000B020008000000000B020008C5
:100110000B020008000000000B0200080B020008A0
:100120000B0200080B0200080B0200080B0200087B
:100130000B02000800000000000000000B02000895
:100140000B0200080B020008000000000000000085
:10015000000000000000000000000000000000009F
:100160000000000000000000000000000B0200087A
:100170000B0200080000000000000000000000006A
:10018000000000000B02000800000000000000005A
:10019000000000000000000000000000000000005F
:1001A00000000000000000000B0200080B02000825
:1001B0000B0200080B0200080B0200080000000000
:1001C000000000000B02000800000000000000001A
:1001D0000B0200080B020008DFF810D000F0B2F9A3
:1001E0000048004735590008AFF30080480A002056
:1001F0000648804706480047FEE7FEE7FEE7FEE7C1
:10020000FEE7FEE7FEE7FEE7FEE7FEE72145000822
:10021000D90100082DE9F05F0546002092469B4673
:1002200088460646814640241BE02846414647460C
:10023000224600F0E2F853465A46C01A914110D3C4
:1002400011461846224600F0C9F82D1A67EB01083E
:100250004F4622460120002100F0C0F817EB0009AC
:100260004E41201EA4F10104DFDC484631462A46F7
:100270004346BDE8F09FD2B201E000F8012B491ED1
:10028000FBD270470022F6E710B513460A46044633
:100290001946FFF7F0FF204610BD2DE9FE4F81EA19
:1002A000030404F0004421F0004100944FF0000BDF
:1002B00023F0004350EA01045ED052EA03045BD00D
:1002C000C3F30A54C1F30A552C44A4F2F334019445
:1002D000A0FB0254C1F3130141F48011C3F31303D3
:1002E00043F4801301FB024400FB034E840A970A87
:1002F00044EA815447EA8357A4FB076802958D0AB4
:1003000005FB07854FEA932C04FB0C542705029D3F
:100310004FEA065847EA1637B5EB08056EEB070CAF
:10032000870E920E47EA811742EA8312A7FB020169
:10033000B6EB0B0164EB00042B0D43EA0C335E18A3
:1003400044EB1C50DA465146E7FB0201C5F31304A7
:100350004FEA0B3343EA14534FEA0432019C43EA59
:100360000603A4F10C040294009CCDE900B400F053
:100370009AF803B0BDE8F08F00200146F9E700F0DD
:10038000004230F000400AD0C10D01F56071C0F3A9
:10039000160042EA0151C20840071143704700208D
:1003A0000146704701F0004330B421F0004150EAAB
:1003B000010206D00A0DA2F56072C1F31301002AF2
:1003C00002DC30BC00207047440F44EAC104C10085
:1003D000E01830BC00EBC25000F01FB8202A04DB4C
:1003E000203A00FA02F1002070479140C2F1200348
:1003F00020FA03F3194390407047202A04DB203A87
:1004000021FA02F00021704721FA02F3D040C2F134
:10041000200291400843194670470029A8BF704741
:10042000401C490008BF20F00100704710B4B0FA2A
:1004300080FC00FA0CF050EA010404BF10BC7047C5
:1004400049B1CCF1200421FA04F411FA0CF118BFDF
:10045000012121430843A3EB0C01CB1D4FEA0061AE
:100460004FEA102042BF002010BC704700EBC35081
:1004700010440029A4BF10BC7047401C490008BFAD
:1004800020F0010010BC704710B5141E73F1000479
:1004900008DA401C41F1000192185B411A4301D176
:1004A00020F0010010BD2DE9F04D92469B4611B1A0
:1004B000B1FA81F202E0B0FA80F220329046FFF702
:1004C0008DFF04460F4640EA0A0041EA0B015346FD
:1004D0005A46084313D0114653EA010019D0C8F117
:1004E00040025046FFF789FF05460E4650465946E2
:1004F0004246FFF773FF084305D0012004E0204681
:100500003946BDE8F08D0020054346EAE0762C43ED
:1005100037430A986305E40AA0EB08000022FD0AAD
:1005200044EA47540A3002D500200146E9E70105B4
:1005300010196941DDE9084500196941BDE8F04D30
:10054000A2E70000064C074D06E0E06840F001031A
:1005500094E8070098471034AC42F6D3FFF740FE0A
:10056000A0930008C09300082DE9FE4F804681EA61
:100570000300C00F0C46009021F0004123F000451D
:10058000B8EB0200A94105D24046214690461C46E0
:100590000B46024623F00040104347D0270DC7F317
:1005A0000A00C3F30A510290401A019040286BDA06
:1005B000C3F3130040F4801B0098924620B100233F
:1005C000D2EB030A63EB0B0B01985946C0F14002D2
:1005D0005046FFF703FF06460D4650465946019A1E
:1005E00000F015F910EB08006141002487EA115270
:1005F00084EAE7731A4340D0009A62B3019A012A51
:100600004FEA075215DC001B61EB02014FF000427C
:1006100002EA0752CDE90042001C41F58011324642
:100620002B46FFF740FF03B0BDE8F08F4046214660
:10063000F9E7001B61EB0201001C41F58013001873
:100640005B412018A2F5001747EB030140EAD57083
:10065000B6196D4111E06D084FEA360645EAC075DE
:100660004FEA0752001B61EB0201001C41F58011AB
:1006700049084FEA30000019514132462B4603B079
:10068000BDE8F04FFFF700BF0098012240000023B3
:10069000D0EB020263EBE073009821464FEAE0746E
:1006A000B8EB000061EB0401E9E783F000435BE78E
:1006B00081F0004158E72DE9F04D81EA030404F090
:1006C000004B21F0004514464FF0000A23F0004192
:1006D00050EA050220D054EA01021DD0C5F30A57A2
:1006E0000246C5F31303C1F31300C1F30A5640F4E5
:1006F000801543F48013A7EB0608101BD64608F2BA
:10070000FD3873EB050002D308F1010801E09218EF
:100710005B41B8F1000F03DA00200146BDE8F08D1F
:1007200000204FF48011064684460EE0171B73EB41
:10073000050705D3121B63EB050306434CEA010CC6
:1007400049084FEA300092185B4150EA0107EDD1A9
:1007500052EA030012D082EA040083EA050108434A
:1007600005D0101BAB4106D20122002306E0002277
:100770004FF0004302E06FF0010253101AEB060045
:100780004CEB085110EB0A0041EB0B01BDE8F04DBA
:10079000FFF77ABE0EB5C10F80EAE0700844CA07C1
:1007A000002140F233438DE80E000A460B46FFF766
:1007B0007AFE03B000BD0EB540F233410291002134
:1007C000CDE900110A460B46FFF76DFE03B000BDF0
:1007D00070B5C1F30A5201F000450024C1F31301C2
:1007E00040F2FF3341F480119A4201DA002070BDDB
:1007F00040F233439A42A2F2334203DC5242FFF703
:10080000FCFD00E090402C43F1D0404270BD202A16
:1008100006DBCB17203A41FA02F043EAE07306E028
:1008200041FA02F3D040C2F1200291400843194638
:1008300070470000014800F07FBE00003800002033
:10084000F8B5044600200090206803F01DF9E8BBCD
:1008500020688168214A11422ED18168D6433140F7
:10086000491C81601E48806800F0E07000020DD5D0
:100870001C481D490068B0FBF1F0401C00EB400033
:10088000800000E0401E00900028FBD101F0D8F964
:1008900005461CE003F0F8F820B920688168314073
:1008A000491C816001F0CCF9401B02280FD9206857
:1008B0000068C043C0070AD0E06D40F01000E0655A
:1008C000206E40F0010020660120F8BD04E02068A1
:1008D0000168C943C907DDD10020F6E73F00008069
:1008E000000300500C000020400D0300FEE770479D
:1008F00072B6FEE710B54FF4FA7001F0B1F802F0ED
:10090000ADFE03F083FC3C211B4802F0CDFA1B48EE
:10091000002102685163026891630268D163006834
:100920000164164802F0CCFC0421144802F0C8FC13
:100930000821124802F0C4FC0C21104802F0C0FC4F
:100940000E4802F06FF9012211460D4801F072F9CC
:100950004FF0904401220221204601F06BF9012260
:100960000421204601F066F920460122BDE810402E
:10097000114601F05FB90000540100200801002079
:100980000004004810B503F015F903F0C3F8BDE802
:10099000104004F095BA70472DE9F84F4FF0000869
:1009A0000446CDF800800D4694F85820DFF80094F6
:1009B000616947464046012A0AD00126FD4A84F86B
:1009C000586041B1296A012905D0A36EEBB129E035
:1009D0000220BDE8F88F6868092838D1A96A4FF469
:1009E000785041B12B6801F07C0100EA5340084384
:1009F000E96A084302E0296800EA51402168CB6CAB
:100A000013400343CB64606621E0C4E91971A96A0D
:100A1000286A31B101F07C01401E0843E96A0843AD
:100A200000E0401E2968C1F38463297901F01F01A9
:100A30008B400343A06E401EA066616E41EA030135
:100A4000616604D12068C36C13400B43C364206803
:100A500003F016F858B995F8250098B12068C168D8
:100A600095F8262021F4401141EA4251C1602068E6
:100A700003F016F88246206803F002F85AEA0001F3
:100A80000DD0FAE095F8260095F82410400540EACC
:100A900001512068C26822F440121143E6E7A86AB7
:100AA00030B1E86A20B195F8250001285DD003E057
:100AB00095F82500012804D02068C16821F0007154
:100AC00003E02068C16841F00071C16095F8300012
:100AD000012851D02068016921F002010161AA6852
:100AE00029682068B2F1004F37D002F0F4FF206887
:100AF000416921F00041416120686A69C168C1F320
:100B0000C10149008A402969042943D000EB8100D2
:100B10002B68016EDFF8A0C203F0F84301EA0C0174
:100B20001343194341F00041016622682869A9690D
:100B300002EB8000026E22F080720A430266297F77
:100B400022682869012922D0002102EB8000026E70
:100B500022F000720A4302668FE0002202F0BBFF1F
:100B60002068416941F00041C5E7E06D40F0200098
:100B7000E0654FF00108A9E7D5E90D1001432068B1
:100B8000026922F4FF7242F002021143A6E74FF01D
:100B90000071DAE7002102F069FF400320684FF09E
:100BA000000171D002F062FF90FAA0F0B0FA80F17B
:100BB000286842036DD090FAA0F0B0FA80F081422C
:100BC00004D100221146206802F09CFF0121206818
:100BD00002F04CFF400320684FF001015CD002F0AE
:100BE00045FF90FAA0F0B0FA80F12868420358D08F
:100BF00090FAA0F0B0FA80F0814204D100220121E5
:100C0000206802F07FFF0221206802F02FFF4003DE
:100C100020684FF0020147D002F028FF90FAA0F0C0
:100C2000B0FA80F12868420343D090FAA0F0B0FAFD
:100C300080F0814204D100220221206802F062FF8C
:100C40000321206802F012FF400320684FF00301E7
:100C500032D002F00BFF90FAA0F0B0FA80F12868D1
:100C600042032ED090FAA0F0B0FA80F0814204D175
:100C700000220321206802F045FF206802F008FFEF
:100C800010B3B3E000E004E002F0F0FEC0F38461D2
:100C90008EE7C0F3846092E702F0E8FEC0F384615F
:100CA000A3E7C0F38460A7E702F0E0FEC0F384612D
:100CB000B8E7C0F38460BCE702F0D8FEC0F38461FB
:100CC000CDE7C0F38460D1E721682A7B286851F81A
:100CD000B03FC0F3120C23EA0C0302F0180C374AA1
:100CE00022FA0CF2024013430B60E96849457DD1BA
:100CF000286841031AD090FAA0F1B1FA81F1491C99
:100D000001F01F0109294FEA403130D8002910D0E5
:100D100090FAA0F1B1FA81F101F1010101F01F0196
:100D200006FA01F608D1C0F3846109E0C0F38461DA
:100D3000E5E7C0F38461EFE790FAA0F1B1FA81F141
:100D400001F1010101F01F0146EA816102D1C0F306
:100D5000846003E090FAA0F0B0FA80F000F10100A6
:100D600000F01F0000EB400041EA00513AE000298A
:100D70000DD090FAA0F1B1FA81F101F1010101F079
:100D80001F0106FA01F605D1C0F3846106E0C0F345
:100D90008461F2E790FAA0F1B1FA81F101F1010169
:100DA00001F01F0146EA81610BD1C0F384600CE0C1
:100DB00000007F400040100400F0FF03FFFF070029
:100DC00014E090FAA0F0B0FA80F000F1010000F019
:100DD0001F002B4A00EB400002EB005041EA0001EB
:100DE00041F00071AA68206802F075FE2548296864
:100DF000014240D0244A9068244B00F0E0709942B0
:100E000002D0234B99421BD1030219D42168B1F1BE
:100E1000A04F30D1916840F4000021F0E07101430F
:100E200091601C481C490068B0FBF1F0801C00EB8D
:100E30004000800000E0401E00900028FBD11AE036
:100E4000164D174BA94207D1C50105D42168994217
:100E500011D040F0807009E0124DA9420BD141023F
:100E600009D42168994206D040F48000916821F0AD
:100E7000E0710143916084F858704046A9E5000094
:100E8000000020FE0000088000030050000021C385
:100E90001000C0900C000020400D0300000052C75D
:100EA00000010050000084CB70B54FF0A0402DED44
:100EB000028BD0F88011434CE166D0F88411216791
:100EC000D0F88811A166404909682164D0F88C11D6
:100ED00000EE101AB8EE400A84ED7A0AD0F88C01C0
:100EE000B2EE041A4042C0EE010AC4F82402A03453
:100EF00010EE900AFFF743FA9FED341B53EC112BD1
:100F0000FFF7CBF9FFF74EFA324D2860FFF737FABB
:100F100041EC100B04F074F89FED2F8B51EC100B8B
:100F200053EC182BFFF7B9F9FFF73CFA6860286813
:100F3000FFF725FA41EC100B03F0FEFF53EC182BE2
:100F400051EC100BFFF7A9F9FFF72CFA00EE100A8D
:100F50009FED231A85ED020AD5ED010AF6EE001A7F
:100F6000B0EE412A00EEA12ABCEEC22A12EE100A0F
:100F7000B0EE412A00EEE12A80B22087FCEEC20AE0
:100F800010EE901AF0EE410A00EE611A40EE210ACE
:100F90006187BCEEC10AFCEEE00A10EE901AA18750
:100FA00010EE101AE1870F490A6850630A68608FD3
:100FB00090630A68A08FD0630968E08F0864BDEC75
:100FC000028B70BDFC020020240400401E26445405
:100FD000FB21094028000020000000000070B740FD
:100FE00000D0844508010020704700002DE9F04141
:100FF00004464548806800F01F05206802F040FD67
:1010000008BB2068C168C06C01F0004110F4C07FCB
:1010100000D191B194F85800012814D0012084F82F
:1010200058002046FFF70CFC01004FF000070CD0E1
:1010300084F858700846BDE8F081E06D40F020006B
:10104000E0650120F7E70220F5E7E06DC00504D573
:10105000206E20F00800206600E02766E06D42F276
:101060000102904340F48050E065284B20684FF027
:10107000A046984201D1324600E00246824200D0AA
:101080001DB9E26D22F48012E2656022026084F8EC
:1010900058702068C268920203D5426842F48062A8
:1010A0004260A06908282068426807D022F0400208
:1010B00042602068426842F0200206E022F02002EE
:1010C00042602068426842F04002426020689842D4
:1010D00001D1324600E00246824209D045B1062DD8
:1010E00006D0072D04D0E06D40F48010E065A1E744
:1010F000C26812F0007F9DD18268054B1A4042F011
:101100000802826096E700000003005000010050D2
:10111000C0FFFF7F704770472DE9F84F0027044656
:10112000009790F85800DFF8D8930D46B84601288C
:1011300010D0012684F85860206802F0ADFC58B148
:10114000E06D40F02000E065012784F858803846C3
:10115000BDE8F88F0220FBE7D5E900210C232068C9
:1011600003EA91131844036B01F01F014FF01F0CA9
:101170000CFA01FCC2F3846223EA0C038A40134395
:101180000363206802F088FC8246206802F074FC49
:101190005AEA00013CD1AA6829682068B2F1004FE0
:1011A00037D002F089FC2068416921F0004141619B
:1011B00020686A69C168C1F3C10149008A40296990
:1011C000042931D000EB81002B68016EDFF834C3B5
:1011D00003F0F84301EA0C011343194341F00041C5
:1011E000016622682869A96902EB8000026E22F07C
:1011F00080720A430266297F22682869012910D07B
:10120000002102EB8000026E22F000720A430266A7
:101210007DE0002202F050FC2068416941F000416D
:10122000C5E74FF00071ECE7002102F019FC400324
:1012300020684FF0000171D002F012FC90FAA0F08B
:10124000B0FA80F1286842036DD090FAA0F0B0FAAD
:1012500080F0814204D100221146206802F04AFC4D
:101260000121206802F0FCFB400320684FF00101DF
:101270005CD002F0F5FB90FAA0F0B0FA80F128689B
:10128000420358D090FAA0F0B0FA80F0814204D125
:1012900000220121206802F02DFC0221206802F0CA
:1012A000DFFB400320684FF0020147D002F0D8FB7B
:1012B00090FAA0F0B0FA80F12868420343D090FA87
:1012C000A0F0B0FA80F0814204D10022022120680F
:1012D00002F010FC0321206802F0C2FB40032068EA
:1012E0004FF0030132D002F0BBFB90FAA0F0B0FA4D
:1012F00080F1286842032ED090FAA0F0B0FA80F076
:10130000814204D100220321206802F0F3FB20680F
:1013100002F0BAFB10B3AAE000E004E002F0A0FB88
:10132000C0F384618EE7C0F3846092E702F098FB1B
:10133000C0F38461A3E7C0F38460A7E702F090FBE9
:10134000C0F38461B8E7C0F38460BCE702F088FBB7
:10135000C0F38461CDE7C0F38460D1E721682A7BC4
:10136000286851F8B03FC0F3120C23EA0C0302F0D6
:10137000180C654A22FA0CF2024013430B60E9682C
:10138000494574D1286841031AD090FAA0F1B1FA06
:1013900081F1491C01F01F0109294FEA403130D881
:1013A000002910D090FAA0F1B1FA81F101F1010108
:1013B00001F01F0106FA01F608D1C0F3846109E0CB
:1013C000C0F38461E5E7C0F38461EFE790FAA0F130
:1013D000B1FA81F101F1010101F01F0146EA8161D9
:1013E00002D1C0F3846003E090FAA0F0B0FA80F07C
:1013F00000F1010000F01F0000EB400041EA005145
:1014000031E000290DD090FAA0F1B1FA81F101F19B
:10141000010101F01F0106FA01F605D1C0F3846154
:1014200006E0C0F38461F2E790FAA0F1B1FA81F12D
:1014300001F1010101F01F0146EA816102D1C0F30F
:10144000846003E090FAA0F0B0FA80F000F10100AF
:1014500000F01F002D4A00EB400002EB005041EA73
:10146000000141F00071AA68206802F025FB2848BD
:10147000296801423FF469AE264A9068264B00F085
:10148000E070994202D0254B99421CD103021AD434
:101490002168B1F1A04F7FF458AE916840F400008C
:1014A00021F0E071014391601D481E490068B0FBC6
:1014B000F1F0401C00EB4000800000E0401E009076
:1014C0000028FBD141E6184D184BA94207D1C501B0
:1014D00005D421689942F5D040F0807009E0144DA0
:1014E000A942EFD14102EDD421689942EAD040F4FB
:1014F0008000916821F0E0710143916025E60000D1
:1015000000007F4000F0FF03FFFF0700000020FE07
:101510000000088000030050000021C31000C090AC
:101520000C000020400D0300000052C700010050D5
:10153000000084CB704770472DE9F05F04460068D7
:1015400006684568DFF854B2DBF8080000F01F07B2
:10155000B0070ED5A8070CD5E06DC00603D4E06D2A
:1015600040F40060E0652046FFF715FA216802208C
:101570000860DFF82CA270074FF0A04801D568077B
:1015800003D4300737D5280735D5E06DC00603D41E
:10159000E06D40F40070E065206802F085FA20B349
:1015A0002068504501D1414600E00146814208D003
:1015B0003FB1052F05D0092F03D0504503D1414637
:1015C00002E0C16801E00146C96889040DD40168E0
:1015D00009070AD502F060FA58B3E06D40F0100038
:1015E000E065206E40F0010020662046FFF7A2FF74
:1015F00021680C200860B00601D5A80603D4700647
:1016000058D5680656D5E06DC00603D4E06D40F4A9
:101610000050E0652068C16C11F4C07F1AD0002131
:10162000894602F041FA02462068504514D14146ED
:1016300013E02068416821F00C014160E06D20F466
:101640008070E065E06DC004CFD4E06D40F0010033
:10165000E065CAE70121E3E70146814208D03FB1D6
:10166000062F05D0072F03D0504503D1414602E095
:10167000C16801E00146C968B9F1000F14D08B01BF
:1016800002D58AB18A040FD4026852060CD58902A9
:101690000AD402F0F1F9E8B3E06D40F01000E06523
:1016A000206E40F0010020662046FFF7FDFB216818
:1016B0006020086030060BD5280609D5E06D40F49F
:1016C0008030E065204600F065F9216880200860E0
:1016D000F0050CD5E8050AD5E06D40F40030E06572
:1016E0002046FFF717FD21684FF480700860B005B1
:1016F0000CD5A8050AD5E06D40F48020E0652046B1
:10170000FFF709FD21684FF400700860F0062ED540
:10171000E80600E008E02AD5E06BD0B1AFB1DBF815
:10172000080000F4604013E02068416821F0600187
:101730004160E06D20F48050E065E06DC005B3D4F9
:10174000E06D40F00100E065AEE72068C068C007CA
:1017500050B1E06D40F48060E065206E40F0020022
:1017600020662046FFF7E7FE21681020086070051C
:1017700012D5680510D5E06D40F48040E065206E1C
:1017800040F00800206621684FF480600860204621
:10179000BDE8F05FFFF728BCBDE8F09F00030050F4
:1017A00000010050F8B54FF0000504002E460095EA
:1017B00002D0E06D10B107E00120F8BD204600F036
:1017C000EBF8266684F8586020688168C1F34071A0
:1017D00019B18168674A1140816020688168C1F34E
:1017E000007189B98168644A114041F0805181607B
:1017F000624863490068B0FBF1F04000801C00E0E3
:10180000401E00900028FBD120688168C1F3007160
:1018100041B9E16D41F01001E165216E41F0010136
:101820002166012502F038F9E16DC90600D430B116
:10183000E06D40F01000E06501252846F8BDE06D40
:1018400020F4807040F00200E065206802F01CF98E
:1018500088B94FF0A04080684A49C0F30000896809
:10186000C1F30001084306D1474960688A6822F441
:101870007C1202438A60E168E06B627F0843A168E2
:1018800041EA4231084394F8241040EA014001291A
:1018900004D1218D3D4A02EB41410843E16A29B15F
:1018A00001F47871226B014342EA01002168CA68A1
:1018B000374B1A400243CA6020680169626B21F00D
:1018C000406111430161206802F0D6F870BB207FAF
:1018D00094F83810800340EA41012068C26844F25D
:1018E00002039A430A43C260206900282068016904
:1018F0000AD041F480310161206850F8C01F22698C
:101900006FF30D01114307E021F48031016120687C
:1019100050F8C01F6FF30D01016094F840000128DA
:101920000CD02068016921F0010101616069012882
:101930002068016B21F00F0110D012E0D4E91110E2
:101940000143D4E91302104301432068026940F2C5
:10195000FC739A43114341F00101E6E7226A521EEB
:1019600011430163E06D20F0020040F00100E065EA
:1019700063E70000C0FFFF5FC0FFFF7F0C00002097
:10198000400D030000010050000300500000FEFF66
:101990000740F0FF7047000030B597B004461421AF
:1019A0006846FEF76FFC442105A8FEF76BFC28494A
:1019B000206888424AD1C00105908003149005A890
:1019C00000F03CFA08B1FEF793FF2248C16C41F4E5
:1019D0000051C164C16C01F400511691C16C41F019
:1019E0000101C164C16C01F001011691C16C41F0AB
:1019F0000401C164C16C01F004011691C16C41F095
:101A00000201C164C06C032400F002001690F020B3
:101A100000258DE8310069464FF0904000F032F823
:101A200030208DE8310069460B4800F02BF8042087
:101A30008DE831006946094800F024F800220121B0
:101A4000122000F063F9122000F052F917B030BDF7
:101A50000001005000100240000800480004004847
:101A600070B5044600F0ECF80546601C02D004484E
:101A70004068044400F0E4F8401BA042FAD370BD73
:101A8000000000202DE9F84FDFF888910022A9F12D
:101A9000040B03274FF00F0C09F1040AABF1040EFD
:101AA000B1E0012595402B4073D00C7904F003047C
:101AB000012C01D0022C15D18668540007FA04F8D5
:101AC00026EA0806D1F80C8008FA04F848EA060865
:101AD000C0F808804468AC430D79C5F30015954003
:101AE000254345600C79E443A40708D0C568540039
:101AF00007FA04F6B5438E68A6402E43C6600C79FB
:101B000004F00304022C11D1D40800EB8406356ADA
:101B10005407E40E0CFA04F825EA0805D1F8108001
:101B200008FA04F848EA0508C6F820800568540059
:101B300007FA04F6B5430E7906F00306A6402E43D5
:101B400006604C6814F4403F5CD0334C256E45F081
:101B500001052566246E22F0030504F001040094BB
:101B60002E4C05EB0408D8F808509407260F0CFA01
:101B700006F4A543B0F1904F04D0294CA04203D104
:101B8000012417E0002415E0264CA04202D10224D3
:101B900010E037E0244CA04201D103240AE0234C9A
:101BA000A04201D1042405E0214CA04201D105242A
:101BB00000E00624B4402C43C8F80840D9F800409F
:101BC0004D464E689C43F60200D51C432C60DAF863
:101BD000004055464E689C43B60200D51C432C601D
:101BE000DBF800405D464E689C43B60300D51C43BD
:101BF0002C60DEF8004075464E689C43F60300D525
:101C00001C432C60521C0B6833FA02F47FF449AF7A
:101C1000BDE8F88F080401400010024000000140B8
:101C20000004004800080048000C0048001000486C
:101C3000001400480AB1816170478162704700005A
:101C40000148806870470000000000200248816859
:101C500042681144816070470000002010B50024E4
:101C6000032000F073F80F2000F008F808B10124F9
:101C700001E000F025F8204610BD000070B50E4EC2
:101C800005460024706898B14FF47A71B1FBF0F00A
:101C90000A490968B1FBF0F000F0BDFE40B9102D13
:101CA00006D200222946501E00F030F8356000E0D0
:101CB0000124204670BD0000000000200C00002020
:101CC0000A4882B0016E41F001010166016E01F027
:101CD00001010091816D41F080518165806D00F0BE
:101CE0008050009002B000F0A1B800000010024047
:101CF000002809DB00F01F0201219140400980000B
:101D000000F1E020C0F8001170470000F0B40E4B65
:101D10001B68C3F30223C3F10704042C00D9042475
:101D20001D1D072D01D2002300E0DB1E012606FA4F
:101D300004F56D1E0D409D409E40761E164045EAFE
:101D40000601F0BC03F0E6B80CED00E0064A00F036
:101D5000070110684FF6FF03184040EA01200349CD
:101D600008431060704700000CED00E00000FA0529
:101D70002B492C4B0A6832214A432B4940B1B0F51C
:101D8000007F086829D020F4C06040F480602CE017
:101D90000868C0F34120022804D051F8800F20F4D5
:101DA000807022E0D1F8800020F48070C1F88000BB
:101DB000086820F4C06040F400700860B2FBF3F0E3
:101DC000401C00E0401E4A69520501D50028F9D1A7
:101DD000486940050AD503207047C0F34120022816
:101DE00006D051F8800F40F48070086000207047E2
:101DF000D1F8800040F48070C1F88000086820F4B9
:101E0000C06040F400700860B2FBF3F0401C00E0DA
:101E1000401E4A695205DBD50028F9D1D8E70000F9
:101E20000C00002040420F00007000400248816812
:101E300041F4804181607047007000402DE9F84F07
:101E4000044600260068A24D374600035CD5A86D05
:101E50004FF00009C00009D4A86D40F08050A8657B
:101E6000A86D4FF0010900F080500090DFF864A2E7
:101E7000DAF8001041F48071CAF80010FFF7E0FEB4
:101E8000804607E0FFF7DCFEA0EB0800022801D93E
:101E9000032631E0DAF80000C005F3D566BBD5F8BB
:101EA000900010F4407014D0216C814211D0D5F80C
:101EB0009000D5F8901020F4407041F48031C5F8BE
:101EC0009010D5F8901021F48031C5F89010C5F825
:101ED0009000C0074ED0FFF7B3FE804641F2883A2B
:101EE00005E0FFF7ADFEA0EB08015145D0D8D5F8CD
:101EF00090008007F5D5EEB33746B9F1000F03D057
:101F0000A86D20F08050A8652078C00707D0D5F8CC
:101F10008800616820F003000843C5F88800207835
:101F2000800707D5D5F88800A16820F00C00084389
:101F3000C5F888002078400707D5D5F88800E16803
:101F400020F030000843C5F888002078000707D546
:101F5000D5F88800216920F0C0000843C5F8880042
:101F60002078800609D5D5F88800616920F44060A2
:101F7000084300E03DE0C5F888002078400607D51A
:101F8000D5F88800A16920F440500843C5F88800BE
:101F90002078000607D5D5F88800E16920F4404094
:101FA0000843C5F888002088C00507D5D5F8880003
:101FB000216A20F440300843C5F888002088800555
:101FC00007D5D5F88800616A20F440200843C5F899
:101FD00088002088400519D5D5F88800A16A20F42A
:101FE00040100843C5F88800A06AB0F5801F09D0EA
:101FF0000CE0D5F89000216C20F440700843C5F83F
:1020000090007AE7E86840F48010E86020880005D6
:102010000FD5D5F88800E16A20F440000843C5F8E0
:102020008800E06AB0F5800F03D1E86840F48010C2
:10203000E8602088C0040FD5D5F88800216B20F017
:1020400040700843C5F88800206BB0F1807F03D151
:10205000E86840F48010E860208881044FF0006058
:102060000ED5D5F88810626B21F040611143C5F898
:102070008810616B814203D1E96841F48011E96005
:10208000218849040ED5D5F88810A26B21F0406153
:102090001143C5F88810A16B814203D1E86840F470
:1020A0008010E860208800040FD5D5F88800E16B27
:1020B00020F040500843C5F88800E06BB0F1805F25
:1020C00003D1E86840F48030E8603846BDE8F88F16
:1020D00000100240007000402DE9F0470D4604005A
:1020E0004FF0000725D0DFF8A091D9F8000000F0EC
:1020F0000F00A8420CD2D9F8001021F00F0129439B
:10210000C9F80010D9F8000000F00F00A84210D163
:1021100021685E4EC80741F2883A52D06068DFF805
:102120007081032808D00228306826D04005002896
:1021300025DB0120BDE8F08730688001F9D5F06823
:10214000F068544BC0F30310401CB3FBF0F0F2688E
:10215000C2F306225043F268C2F34162521C52009D
:10216000B0FBF2F0404515D9B06810F0F00F0AD07E
:1021700088070FD5A06830B10CE08003D7E700F0E6
:10218000B5F8404506D9B06820F0F00040F0800076
:10219000B0608027B068616820F003000843B06039
:1021A000FFF74EFD804605E0FFF74AFDA0EB080172
:1021B00051453BD8B068616800F00C00B0EB810F6E
:1021C000F2D12068810714D5400703D5B06840F4E8
:1021D000E060B0602078000705D5B06820F460505A
:1021E00040F4E060B060B068A16820F0F0000843FF
:1021F00004E0802F03D1B06820F0F000B060D9F87F
:102200000010484601F00F01A94217D90168C846DD
:1022100021F00F0129430160FFF712FD0746D14667
:1022200006E0FFF70DFDC11B494501D9032081E7F9
:10223000D8F8000000F00F00A842F2D12078400743
:1022400005D5B068E16820F4E0600843B06020780C
:10225000000706D5B068216920F4605040EAC1004B
:10226000B06000F043F8B1680B4AC1F30311515C50
:1022700001F01F01C8400949086009480068BDE82D
:10228000F047FFF7FBBC00000020024000100240B6
:1022900000B4C4040024F400965900080C00002087
:1022A000000000200548064900688968054AC1F316
:1022B0000221515C01F01F01C84070470C00002052
:1022C00000100240A65900080548064900688968C0
:1022D000054AC1F3C221515C01F01F01C84070479B
:1022E0000C00002000100240A6590008134A906814
:1022F000C0F38101124801290AD09168C1F381011C
:10230000022905D09168C1F38101032901D0002081
:102310007047D16801F00303D168C1F30311491C70
:10232000B0FBF1F0D168C1F306214843D168C1F395
:102330004161491C4900B0FBF1F0704700100240B8
:102340000024F4002DE9F843040078D02078F54DFE
:10235000C00745D0A868E96800F00C0001F003014F
:102360000C2802D0082817D001E0032914D0606897
:10237000B0F5803F17D0B0F5A02F286817D020F413
:1023800080302860286820F4802028606068D8B1F8
:10239000FFF756FC064613E02868800320D56068E6
:1023A0000028D2D01CE0286840F48030EDE740F4EB
:1023B00080202860F7E7FFF743FC801B64286ED875
:1023C00028688003F7D50BE0FFF73AFC064604E0E7
:1023D000FFF736FC801B6428F1D828688003F7D407
:1023E000207880074BD5A868E96800F00C0001F060
:1023F00003010C2802D004280DD001E002290AD0E4
:10240000E068002828682BD040F480702860FFF72F
:1024100017FC064619E02868400502D5E068002848
:1024200093D06868217C20F0FE4040EA016068603B
:10243000BD480068FFF722FC002800D11FE06DE1D5
:10244000FFF7FEFB801B0228B9D828684005F7D5A6
:102450006868217C20F0FE4040EA016068600EE080
:1024600020F480702860FFF7EBFB064604E0FFF7DE
:10247000E7FB801B0228A2D828684005F7D4207803
:10248000000728D560690028D5F8940012D040F0E4
:102490000100C5F89400FFF7D3FB064605E08FE086
:1024A000FFF7CEFB801B022889D8D5F8940080075F
:1024B000F6D510E020F00100C5F89400FFF7C0FB4E
:1024C000064604E0FFF7BCFB801B022878D8D5F84D
:1024D00094008007F6D42078400761D5A86D0027C6
:1024E000C00008D4A86D40F08050A865A86D0127F1
:1024F00000F0805000908D480168C90511D4016832
:10250000804641F480710160FFF79AFB064604E0C3
:10251000FFF796FB801B022852D8D8F80000C005B0
:10252000F6D5A068012815D00528D5F8900016D05A
:1025300020F00100C5F89000D5F8900020F00400CC
:10254000C5F89000A06841F28838B8B1FFF778FB71
:1025500006460EE0D5F8900040F00100F0E740F0AC
:102560000400C5F89000F5E7FFF76AFB811B4145C1
:1025700026D8D5F890008007F6D50CE0FFF760FB71
:10258000064604E0FFF75CFB811B414518D8D5F8EF
:1025900090008007F6D41FB1A86D20F08050A86588
:1025A0002078800628D5A0690028D5F8980012D098
:1025B00040F00100C5F89800FFF742FB064605E031
:1025C00072E0FFF73DFB801B02286DD8D5F898001C
:1025D0008007F6D510E020F00100C5F89800FFF75D
:1025E0002FFB064604E0FFF72BFB801B02285BD87D
:1025F000D5F898008007F6D4E069E8B3A968C1F37C
:10260000810103295BD00228286820F080702860AF
:1026100003D0FFF715FB044649E0FFF711FB064620
:1026200004E0FFF70DFB801B02283DD828688001DD
:10263000F7D4F4E908016FF00F0202EB011108432F
:10264000218A5204490802EB4151A26841EA022161
:102650000843217D4FF07E42490802EB4161084367
:10266000217B40EAC160E968314A11400843E860D3
:10267000286840F0807000E052E02860E86840F090
:102680008070E860FFF7DCFA044604E0FFF7D8FA50
:10269000001B022808D828688001F7D540E0FFF722
:1026A000CFFA001B022802D90320BDE8F88328686E
:1026B0008001F4D4E8681F490840E86030E0012850
:1026C000F3D0E868226A00F00301914226D1616AE2
:1026D00000F0F0020901103991421FD1A26A00F402
:1026E000FE41B1EB022F19D194F82C2000F0784173
:1026F000B1EBC26F12D1218E00F4C0024908490526
:10270000A1F50011914209D194F8341000F0C06095
:1027100049084906A1F10071814201D00120C4E7B6
:102720000020C2E7001002400000002000700040BE
:102730000C809F01FCFFEEFE70B5040009D0606ABA
:10274000002540B125616561A56294F85D0040B146
:102750000CE0012070BD6068B0F5827FF4D0E561C7
:10276000F2E784F85C50204600F05CF8022084F820
:102770005D002068016821F040010160E0684FF4CD
:10278000E062904201D9002101E04FF48051B0F5A0
:10279000706F02D0904200D0A562A088228900F418
:1027A000827002F404421043227C02F002021043C1
:1027B000227D02F001021043228B02F400721043CA
:1027C000227F02F03802104394F8202002F08002A9
:1027D0001043228D02F40052104322681060A06959
:1027E000042202EA104094F8242001F4805102F0FF
:1027F0001002104394F8342002F008021043A2891A
:1028000002F4706210430843216848602068C1697F
:1028100021F40061C1612566012084F85D0000207B
:1028200070BD000010B586B0044614216846FDF75F
:1028300029FD1349206888421FD11248816D41F457
:1028400000418165816D01F400410591C16C41F049
:102850000401C164C06C694600F0040005904FF4A7
:10286000A0500090022001900020029003200390CD
:10287000062004900448FFF705F906B010BD0000DB
:10288000003C004000100240000800482DE9F84FCD
:102890001D4617468A460446FFF7D2F9064694F8C5
:1028A0005D00012826D1BAF1000F6FD0002F6DD046
:1028B00094F85C0001281DD04FF0010984F85C9069
:1028C000032084F85D004FF00008C4F86080C4F86D
:1028D00038A0A787E787C4F84080A4F84480A4F80C
:1028E0004680C4F85080C4F84C80A068B0F5004F12
:1028F00003D00CE00220BDE8F88F2068016821F0C9
:10290000400101602068016841F480410160206855
:102910000168490603D4016841F040010160E068A4
:10292000B0F5E06F606822D908B1012F1BD1A06B10
:1029300021680088C86006E020688168890709D599
:10294000A16B0988C160A06B801CA063E08F401E52
:10295000E08708E0FFF774F9801BA84202D3681CE7
:1029600001D045E0A5B3E08F0028E5D135E008B1FE
:10297000012F2FD1E08F0128A06B03D92168008897
:10298000C86010E021680078087314E041E0E08737
:1029900020E020688168890713D5E18F0129A16BA8
:1029A00007D90988C160A06B801CA063E08F801EDE
:1029B000EDE709780173A06B401CA063E08F401E17
:1029C000E5E7FFF73DF9801BA84202D3681C01D060
:1029D0000EE06DB1E08F0028DBD13246294620465B
:1029E00001F038FC08B120202066A06830B109E071
:1029F00084F85D9084F85C8003207CE72068C168DF
:102A00008068009084F85D9084F85C80206E0028D7
:102A1000F3D001206FE710B5401EB0F1807F01D3E5
:102A2000012010BD4FF0E02460610F21601702F01B
:102A300071FA0020A06107202061002010BD7047BE
:102A40007047704730B590F83C20012A42D00122EF
:102A500080F83C20CA688B6822F440721A434B68A5
:102A600022F480621A430B6822F400621A430B6955
:102A700022F480521A434B6922F400521A430B6B22
:102A800022F480421A430B8B22F4702242EA034262
:102A9000CB6922F080521A430F4D03680024AB42E9
:102AA00002D00E4DAB4210D10D8D22F4700242EADD
:102AB00005520D6A22F080722A434D6A22F000729C
:102AC0002A43C96A22F000520A435A6480F83C4003
:102AD000002030BD022030BD002C014000340140F8
:102AE0007047704770470000F0B590F83C20012A0D
:102AF0003AD0012580F83C50022280F83D2003683E
:102B00005A689C68194E1A4FB34201D0BB4204D197
:102B100022F4700C4A6842EA0C02DFF858C002EA5C
:102B20000C02D1F800C04CEA020CC3F804C00268E1
:102B3000B2420DD0B2F1804F0AD00F4B9A4207D06B
:102B40000E4B9A4204D0BA4202D00D4B9A4204D1A5
:102B5000896824F080031943916080F83D5000217A
:102B600080F83C100846F0BD0220F0BD002C01406A
:102B7000003401408FFFFFFD0004004000080040CA
:102B800000400140704710B5040003D094F83D00A8
:102B900010B107E0012010BD002084F83C00204661
:102BA00000F022F8022084F83D00211D206801F089
:102BB000C5FC012084F8480084F83E0084F83F00FA
:102BC00084F8400084F8410084F8420084F843000F
:102BD00084F8440084F8450084F8460084F84700EF
:102BE00084F83D00002010BD08B500680B498842FC
:102BF00012D10B48016E41F400610166006E0022A3
:102C000000F40060009011461920FFF77FF8BDE83E
:102C100008401920FFF76CB808BD0000002C0140E7
:102C20000010024090F83D10012901D001207047AA
:102C3000022180F83D100168CA6842F00102CA60B2
:102C40000068104988420ED0B0F1804F0BD00E4979
:102C5000884208D00D49884205D00D49884202D0EB
:102C60000C49884207D181680B4A1140062906D0D9
:102C7000B1F5803F03D0016841F0010101600020FF
:102C800070470000002C0140000400400008004094
:102C900000340140004001400700010070B50446C7
:102CA00090F83C000025012814D0012684F83C60EF
:102CB000022084F83D0020688268364B1A4022F4D6
:102CC0007F428260086870282ED010DC10F00F0F51
:102CD00003D021E04FF0020070BD4FEA2012072A16
:102CE0001AD2DFE802F0525252524A3840002A4BC0
:102CF000C21A984249D009DCB0F5805F0DD0B0F51A
:102D0000005F1CD0B0F1101F06D13EE0102A3CD06D
:102D1000202A3AD0502A38D0012584F83D6000207E
:102D200084F83C00284670BDCB68D1E901212068B9
:102D300001F06FFC2068816841F0770109E0CB6801
:102D4000D1E90121206801F064FC2068816841F428
:102D500080418160E1E7CA684968206801F004FEAB
:102D60005021206806E0CA684968206801F00DFE1D
:102D70006021206801F058FCCFE7CA6849682068E4
:102D800001F0F2FD40212068F4E722680146104678
:102D9000F0E7000088FFCEFF200010002DE9F04191
:102DA0000D46040003D094F83D0018B108E001205E
:102DB000BDE8F081002084F83C00204600F042F895
:102DC000022084F83D00206881681D4A114081601E
:102DD000211D206801F0B2FB206881688269066AC3
:102DE0002B68AF690B4340F203318A4342EA072262
:102DF000A968EF6911434FF6FC429143EA6841EA42
:102E000007210A4329692F6A090141EA0731114361
:102E10006A686D6926F0AA0646EA05152A438360AA
:102E20002068816154F8480B0262012004F81F09F0
:102E30006075A075E076207720750020B8E7000067
:102E4000F8BFFEFF10B586B0044614216846FDF7B2
:102E500019FA1249206888421DD11148816D41F04C
:102E600002018165816D01F002010591C16C41F0A3
:102E70000201C164C06C002100F002000590302006
:102E800000900220CDE901010321CDE9031069463C
:102E90000448FEF7F7FD06B010BD00000004004036
:102EA000001002400004004870B590F83E500446FF
:102EB00090F83F3090F8442090F84500022621B168
:102EC00004290BD0012D16D10FE0012D13D1012AB9
:102ED00011D184F83E6084F8446016E0012B0AD1D9
:102EE000012808D184F83F600DE0012B03D1012AAD
:102EF00001D1012801D0012070BD84F83E6084F822
:102F00003F6084F8446084F8456091B1042904D09E
:102F100001220021206801F06FFB012204212068BA
:102F200001F06AFB2068016841F0010101600020A6
:102F300070BD012200212068F2E770472DE9F041C1
:102F400004460068C66805694FF00007A90713D555
:102F5000B10711D5F91E0161012020772068806931
:102F60008007204602D0FFF7E8FF04E000F0E2F817
:102F7000204600F0A4F92777680716D5700714D506
:102F800021686FF0040008610220207720688069C2
:102F900010F4407F204602D0FFF7CFFF04E000F09E
:102FA000C9F8204600F08BF92777280715D5300798
:102FB00013D521686FF0080008610420207720688D
:102FC000C0698007204602D0FFF7B7FF04E000F099
:102FD000B1F8204600F073F92777E80616D5F00619
:102FE00014D521686FF01000086108202077206850
:102FF000C06910F4407F204602D0FFF79EFF04E036
:1030000000F098F8204600F05AF92777E80708D032
:10301000F00706D021686FF001000861204600F03B
:10302000D3F9280601D4A80408D5300606D52168AE
:103030006FF4025008612046FFF702FDE80508D54D
:10304000300606D521686FF4807008612046FFF7CE
:10305000F6FC680608D5700606D521686FF04000BA
:103060000861204600F0D0F9A80608D5B00606D5BC
:1030700021686FF0200008612046FFF7E2FCE802BB
:1030800008D5F00206D521686FF48010086120464B
:10309000FFF727FDA80208D5B00206D521686FF416
:1030A000001008612046FFF71BFD680208D570027A
:1030B00006D521686FF4800008612046FFF712FDF5
:1030C00028020AD5300208D521686FF40000086193
:1030D0002046BDE8F041FFF755BDBDE8F081000096
:1030E00010B586B0044614216846FDF7CBF80E49AA
:1030F0002068884215D10D48C16C41F00401C164BB
:10310000C06C002100F0040005900F200090022008
:10311000CDE901010321CDE9031069460448FEF71A
:10312000B1FC06B010BD0000002C014000100240B0
:1031300000080048704770B5044690F83C0000262F
:103140000D4601280BD0012084F83C000C2A4AD0FF
:1031500007DC82B1042A20D0082A06D131E00220FF
:1031600070BD102A53D0142A63D00126002084F8A1
:103170003C00304670BD206801F060FA206881692B
:1031800041F0080181612068816921F004018161B9
:10319000206881692A69114311E0206801F09CFAD6
:1031A0002068816941F4006181612068816921F4AE
:1031B00080618161206881692A6941EA0221816117
:1031C000D4E7206801F0D0FA2068C16941F0080115
:1031D000C1612068C16921F00401C1612068C16931
:1031E0002A69114311E0206801F006FB2068C169DB
:1031F00041F40061C1612068C16921F48061C1614D
:103200002068C1692A6941EA0221C161AEE72068EC
:1032100001F03AFB2068016D41F00801016520686A
:10322000016D21F0040101652068016D2A691143D7
:1032300011E0206801F060FB2068016D41F400613D
:1032400001652068016D21F4806101652068016DD0
:103250002A6941EA0221016588E710B5040003D01C
:1032600094F83D0010B107E0012010BD002084F863
:103270003C00204600F022F8022084F83D00211D89
:10328000206801F05BF9012084F8480084F83E00D2
:1032900084F83F0084F8400084F8410084F842003C
:1032A00084F8430084F8440084F8450084F846001C
:1032B00084F8470084F83D00002010BD7047704737
:1032C00030B5044669B104290ED008290FD00C2965
:1032D00010D0102911D094F84300012810D00120FB
:1032E00030BD94F83E00F8E794F83F00F5E794F815
:1032F0004000F2E794F84100EFE794F84200ECE771
:103300000220E9B3042942D0082943D00C2944D033
:10331000102945D084F843000122206801F06CF99F
:1033200021492068214A224B884209D0904207D087
:10333000984205D01F4DA84202D01F4DA84203D18C
:10334000456C45F400454564206888420CD0B0F1D6
:10335000804F09D01949884206D01949884203D0C4
:10336000904201D0984207D18168164A114006293F
:1033700008D0B1F5803F05D0016841F0010100E0BF
:1033800002E00160002030BD84F83E00C4E784F80C
:103390003F00C1E784F84000BEE784F84100BBE786
:1033A00084F84200B8E70000002C014000340140DE
:1033B000004001400044014000480140000400403A
:1033C000000800400700010010B50A4900680968BC
:1033D00088420ED10848FDF709FE08480188491CBB
:1033E000018007490888401C088006480188491C5C
:1033F000018010BD080100203800002012000020CC
:103400001600002026000020704790F88410012943
:1034100018D0012180F884102421C0F88810016898
:103420000A680B6823F001030B6022F000510022B0
:103430004266036819602021C0F8881080F8842053
:10344000104670470220704770B5044690F884001B
:1034500001281DD0012084F884002420C4F88800AD
:1034600020680568026822F0010202602068826814
:1034700022F060620A438260204601F099FA2068D7
:1034800005602020C4F88800002084F8840070BD06
:10349000022070BD70B5044690F8840001281DD04C
:1034A000012084F884002420C4F88800206805687E
:1034B000026822F0010202602068826822F0604205
:1034C0000A438260204601F073FA206805602020DC
:1034D000C4F88800002084F8840070BD022070BD0C
:1034E00010B5040003D0D4F8880010B107E0012023
:1034F00010BD002084F88400204600F027F8242026
:10350000C4F888002068016821F001010160A06A08
:1035100010B1204601F06EFA204601F04FFB012861
:10352000E6D02068416821F49041416020688168BC
:1035300021F02A0181602068016841F001010160E9
:103540002046BDE8104001F0B9BA000010B598B0AF
:103550000446142111A8FCF795FE44216846FCF7A7
:1035600091FE16492068884226D101200024CDE929
:1035700000046846FEF762FC08B1FDF7B9F910488F
:10358000016E41F480410166016E01F480411691A3
:10359000C16C41F00201C164C06C11A900F00200CD
:1035A0001690C02011900220CDE912040720CDE929
:1035B00014400448FEF766FA18B010BD0038014008
:1035C0000010024000040048FEE72DE9F0410646E5
:1035D0001D4617460C462A2000F016FA304600F029
:1035E00008FA384600F005FA2B2000F00DFA1834DE
:1035F000A0B200F0FEF91835A8B200F0FAF9BDE863
:10360000F0412C2000F000BA10B514460B460246DB
:10361000FFF7DBFF2046BDE8104000F0EAB92DE9D6
:10362000F04780461F46581E83B21646501E82B28F
:103630000D464046DDF82090FFF7C7FF0AE04446FC
:1036400004E0484600F0D5F9641CA4B2B442F8D3B3
:103650006D1CADB2BD42F2D3BDE8F08738B5804DE8
:103660004FF40064002221462846FEF7E3FA642066
:10367000FEF7F6F9012221462846FEF7DBFAC820BC
:10368000FEF7EEF9112000F0BFF97820FEF7E8F917
:10369000202000F0B9F9B12000F0B6F9052000F0C3
:1036A000C7F93C2000F0C4F93C2000F0C1F9B22079
:1036B00000F0AAF9052000F0BBF93C2000F0B8F9B1
:1036C0003C2000F0B5F9B32000F09EF9052000F091
:1036D000AFF93C2000F0ACF93C2000F0A9F905203E
:1036E00000F0A6F93C2000F0A3F93C2000F0A0F97E
:1036F000B42000F089F9032000F09AF9C02000F00E
:1037000083F9AB2000F094F90B2000F091F904202C
:1037100000F08EF9C12000F077F9C52000F088F99B
:10372000C22000F071F90D2000F082F9002000F0B5
:103730007FF9C32000F068F98D2000F079F96A2044
:1037400000F076F9C42000F05FF98D2000F070F9E8
:10375000EE2000F06DF9C52000F056F90F2000F0C2
:1037600067F9E02000F050F9072000F061F90E2021
:1037700000F05EF9082000F05BF9072000F058F92E
:10378000102000F055F9072000F052F9022000F057
:103790004FF9072000F04CF9092000F049F90F20FB
:1037A00000F046F9252000F043F9362000F040F9FA
:1037B000002000F03DF9082000F03AF9042000F064
:1037C00037F9102000F034F9E12000F01DF90A204B
:1037D00000F02EF90D2000F02BF9082000F028F958
:1037E000072000F025F90F2000F022F9072000F053
:1037F0001FF9022000F01CF9072000F019F9092038
:1038000000F016F90F2000F013F9252000F010F950
:10381000352000F00DF9002000F00AF9092000F031
:1038200007F9042000F004F9102000F001F93A2013
:1038300000F0EAF8052000F0FBF8362000F0E4F88C
:10384000A82000F0F5F8292000F0DEF84FF6FF7010
:10385000002100905023A0220846FFF7E0FE38BD6B
:10386000000800482DE9FF4F83B00746DDF844907B
:1038700000904FEA590A4FF000085FEA4A7000D002
:10388000012000EBDA0000FB09F001900498203AD7
:103890004844401E83B207EB0A0002F0FF0B401EB3
:1038A00082B238460499FFF790FE002550E0B9F146
:1038B0000C0F28D0B9F1100F2BD0B9F1180F2CD064
:1038C000B9F1200F47D1274901EB8B100024465D49
:1038D000129800284FF0010000FA04F000EA0600F8
:1038E00021D020B13846069A0499FFF78DFE7F1C3F
:1038F0000098BFB2391A514524D10498009F401C4A
:1039000080B2049022E018490BEB4B0001EB8000E1
:10391000DCE7164901EB0B10D8E715490BEB4B0020
:1039200001EB0010D2E708B1069800E0109800F013
:1039300060F808F10100C0B2B0FBFAF280460AFB61
:10394000128058B1641CE4B2082CC1D36D1CADB216
:1039500001988542ABD307B0BDE8F08F4FF0000867
:10396000F4E70000E2750008AE590008225E000886
:10397000126400082DE9FF4F83B00027DDE911A88C
:103980001D4681464FEA58063C46BB462CE0281BA4
:10399000401EC1B20A2001F0E2FF0599B1FBF0F030
:1039A0000A21B0FBF1F201FB120027B9691E8C421B
:1039B00001DA58B101273030C2B2CDE900A804FBCA
:1039C000069080B2CDF808B0109B08E0CDE900A8C1
:1039D00004FB0690109B80B2CDF808B02022049919
:1039E000FFF740FF641CE4B2AC42D0D307B0BDE89F
:1039F000F08F10B50446000A00F01AF8E0B2BDE8F6
:103A0000104000F015B8000070B5084C05460022C3
:103A100004212046FEF70EF9284600F009F820465A
:103A2000BDE8704001220421FEF704B9000C0048F3
:103A300031B54FF400444FF090450022214628460E
:103A4000FEF7F8F801231A4669460448FEF71EFF00
:103A5000012221462846FEF7EDF838BDA4000020DB
:103A600000EB8100006E00F0F840704700EB810031
:103A7000006E00F0F84070478068C0F3C0007047E7
:103A80008068C0F3C00070478068C0F300007047D2
:103A90008068C0F3000070478068C0F38000704702
:103AA0008068C0F380007047C06810F4406F01D098
:103AB0000020704701207047042303EAD15310B55A
:103AC00018444369C1F3045107248C40A3438A403E
:103AD0001343436110BD042303EAD15310B51844C6
:103AE0004369C1F3045107248C40A3438A40134324
:103AF000436110BD00EB8100016E21F000411143D4
:103B00000166704700EB8100016E21F00041114316
:103B100001667047FEB5254C208800250A283DD057
:103B2000142841D14FF6FF77CDE9005710260296B1
:103B300094ED020A00210523BCEEC00A10EE100A23
:103B400082B20846FFF716FFCDE90057029605231B
:103B5000A28810210020FFF70DFFCDE90057029643
:103B60000523E28820210020FFF704FF1048CDE95B
:103B700000570296B0F86800052382B23021002079
:103B8000FFF7F8FECDE900570296A089052382B21F
:103B900040210020FFF7EEFE0A2004E06088142890
:103BA00002D3658014202080FEBD00001400002098
:103BB000FC020020084908880A2803D0142809D1EB
:103BC0000A2006E04888B0F5FA6F03D30020488049
:103BD00014200880704700001000002070B598B0D5
:103BE00020210FA8FCF74EFB3C216846FCF74AFB5E
:103BF00044484349002401604FF44031C0E90114B6
:103C0000042585610121C460C0E90441047744773B
:103C10000321016280F82440C462046380F83840C4
:103C2000C46380F84040FDF7BDFD08B172B6FEE701
:103C300035480F9010A906207F2681E85100CDE974
:103C400013540FA92F48FDF767FA08B172B6FEE7C3
:103C50002E480F900C2010900FA92A48FDF75CFA0F
:103C600008B172B6FEE72A480F90122010900FA9F3
:103C70002448FDF751FA08B172B6FEE725480090D6
:103C800001A9092081E85100CDE904548DF82440B0
:103C90008DF8254008958DF826400A940B948DF8F0
:103CA000304069461748FCF777FE08B172B6FEE768
:103CB0001948009040F20F10019069461148FCF736
:103CC0006BFE08B172B6FEE71448009040F2152072
:103CD000019069460B48FCF75FFE08B172B6FEE73B
:103CE0000F48009040F21B30019069460548FCF7F0
:103CF00053FE002801D072B6FEE718B070BD000078
:103D000000010050380000202000F0141000C01006
:103D1000002090360800900C000052470008302E1A
:103D2000001060322DE9F04F87B014216846FCF78F
:103D3000A9FA4048C16C41F00401C164C16C01F0B2
:103D400004010591C16C41F02001C164C16C01F016
:103D500020010591C16C41F00101C164C16C01F009
:103D600001010591C16C41F00201C164C16C01F017
:103D700002010591C16C41F00801C164C06CDFF81B
:103D8000B88000F008004FF46044059001222146FD
:103D90004046FDF74FFF4FF090490022072148466B
:103DA000FDF748FFDFF894A0002201215046FDF7FF
:103DB00041FF0122D1034846FDF73CFF4FF4006765
:103DC000002239464046FDF735FFDFF874B0002287
:103DD00004215846FDF72EFF009401240025CDE96B
:103DE0000145694640460395FDF74CFE48F2070041
:103DF00003268DE8710069464846FDF743FE01AA97
:103E0000009482E8700069465046FDF73BFE01AA27
:103E1000009782E8700069464046FDF733FE0420B3
:103E20008DE8710069465846FDF72CFE07B0BDE8E5
:103E3000F08F000000100240000800480004004815
:103E4000000C0048124810B5104901604FF482710F
:103E500041604FF4004181604FF4E061C160002196
:103E60004FF400720161C0E905121022C0E9072178
:103E700007224162C0E90A12016308214163FEF78B
:103E80005BFC002801D072B6FEE710BD003C00408C
:103E9000A400002010B59CB0002419941A94179423
:103EA0001894149415941C2168461694FCF7EAF9AA
:103EB000342107A8FCF7E6F939483849C0E900146D
:103EC0002021816041F29A01C0E90314012141617E
:103ED00080218161FEF757FE08B172B6FEE74FF40C
:103EE0008050179017A92E48FEF7D8FE08B172B679
:103EF000FEE72B48FFF7B1F908B172B6FEE714945C
:103F0000159414A926481694FEF7EEFD08B172B672
:103F1000FEE77020CDE90004029403940494059414
:103F2000002269461E480694FFF705F908B172B6EB
:103F3000FEE7042269461A48FFF7FDF808B172B699
:103F4000FEE7082269461648FFF7F5F808B172B691
:103F5000FEE70C2269461248FFF7EDF808B172B689
:103F6000FEE70794089409944FF400500A94CDE9B1
:103F70000B400D9400030E94CDE90F401194129460
:103F800007A907481394FEF75DFD08B172B6FEE776
:103F90000348FFF7A5F81CB010BD0000002C01403D
:103FA0000801002010B58CB024216846FCF76AF99E
:103FB0000024164809940A9413490B94C0E900148C
:103FC00040F6FF71C0E90241046184610320CDE93C
:103FD00000040120CDE902040494CDE905400794D2
:103FE00069460A480894FEF7D9FE08B172B6FEE7A2
:103FF000099409A905480B94FEF776FD002801D025
:1040000072B6FEE70CB010BD000400405401002061
:10401000164810B5144901601549416000218160BE
:104020000C22C160C0E904128161C1610162416278
:104030008162FFF755FA08B172B6FEE700210B481E
:10404000FFF728FA08B172B6FEE700210748FFF72C
:10405000FBF908B172B6FEE70448FFF7D6F900286D
:1040600001D072B6FEE710BD00380140A00100206B
:1040700000941100FEE700005048002101704170DB
:10408000012180F858109FED4E0A80ED230A9FED24
:104090004D0A072280ED220A80F83C1080F83E206D
:1040A00040F6FF72DFED480A4264C0ED2E0AC0ED13
:1040B0002F0A42F23413A0F8D43041F67863A0F806
:1040C000D630A0F80E22B0EE080A80ED7E0A9FEDF1
:1040D0003F0AA0F8C42180ED780A9FED3D0A80EDEB
:1040E000750A9FED3C0A80ED090AB2EE0C0A80EDDC
:1040F0008D0A9FED390A80ED8A0AC0ED980ADFED3E
:10410000370A80EDB10AC0EDBA0AF6EE000AC0ED3A
:10411000BB0A9FED331ADFED331A80EDC01AC0EDF4
:104120009F1ADFED311A80F80413C0EDCB1AF3EEBD
:10413000041AC0EDCC1A80EDC20A80EDD11A9FEDB1
:104140002B1ADFED2B1A80ED381AC0ED391AB1EEBB
:10415000082A80ED422AB9EE080A80ED430A80ED74
:10416000461AC0ED471A80ED502A80ED510A9FEDA6
:10417000210A9FED211A80ED540A80ED601A80ED2E
:10418000610A9FED1E0A80ED550AB2EE000A80ED2D
:104190005E0ABAEE000A80ED5F0A9FED190AC0EDD3
:1041A000620A80ED630A80ED640A9FED160A80EDD5
:1041B0006C0A9FED150A80ED6D0A7047FC02002025
:1041C0000000843C8906933CCDCCCC3DCDCC4C3D0D
:1041D000008012439A99193F17B751380000A04246
:1041E0000AD7233C3333B33F00006144CDCC4C3E6F
:1041F0006F12033B6F12833A0AD7A33BBD370636D3
:104200000000000000C05A4600C05AC610B5FFF7B3
:1042100033FF0C48B0F8D610B0F8D40000EE101AF6
:10422000F8EE400A00EE100A0748B8EE400A00F027
:1042300001F99FED060ABDE81040F0EE400A024881
:1042400000F032B9FC02002034020020000000001F
:10425000FEE77047F8B515460E460B460092044639
:1042600000224FF4C05100F019F888B933460022FB
:1042700080212046009500F07FF848B9334600229F
:104280004FF4C0612046009500F008F8002804D0E3
:10429000206E40F0200020660320F8BD2DE9FC5F71
:1042A0004FF0000B984616460F4604460C9D8DF8BD
:1042B00004B0FDF7C5FC411BA8EB0105FDF7C0FCF0
:1042C0008246206800F10C092A480068C0EBC00053
:1042D00000EB8000000D684343E0B7F5C06F06D1E6
:1042E0002EB999F800008DF804009DF80400B8F18B
:1042F000FF3F37D0FDF7A4FCA0EB0A00A84203D291
:1043000015B1009858B32BE02068416821F0E00116
:1043100041606068B0F5827F0BD1A068B0F5004FB6
:1043200002D0B0F5806F04D12068016821F040010F
:104330000160A06AB0F5005F09D12068016821F42E
:10434000005101602068016841F4005101600120C2
:1043500084F85D0084F85CB00320BDE8FC9F002574
:10436000401E0090206880683840B042B5D10020DF
:10437000F3E700000C0000202DE9F8431E469146AB
:1043800088460446089DFDF75BFC401B351AFDF787
:1043900057FC074625480068C0F3CB30684338E037
:1043A000701C37D0FDF74CFCC01BA84203D215B1DE
:1043B000009860B32CE02068416821F0E001416082
:1043C0006068B0F5827F0BD1A068B0F5004F02D0D5
:1043D000B0F5806F04D12068016821F040010160D0
:1043E000A06AB0F5005F09D12068016821F400518E
:1043F00001602068016841F400510160012084F8E7
:104400005D00002084F85C000320BDE8F8830025EF
:10441000401E00902068816838EA010004D0002026
:104420004845BDD10020F0E70120F9E70C0000204D
:104430007047000000282ED0BCEEC00ADFED171A2E
:10444000B9EE081A10EE101ABCEEE00A20F8441F6C
:10445000F1EE080A10EE101A9FED0F0A418000EDF0
:10446000070A00ED060A9FED0E0AC0ED031A80ED63
:10447000040AC0ED0D0A80ED0E1AC0ED111A80ED90
:10448000120AC0ED1B0A9FED070A80ED1C1A80ED91
:104490001F0A80ED200A7047CDCCCC3DCDCC4C3EE0
:1044A0006F12033B00000000002803D080ED300AAB
:1044B000C0ED310A7047FDF7C9BB10B594B0382183
:1044C0006846FBF7DFFE14210EA8FBF7DBFE002099
:1044D000FDF74EFC0120009000040324042101900C
:1044E000CDE9084102205521CDE90A1007900C9032
:1044F0000D906846FDF726FF08B172B6FEE70F2063
:10450000CDE90E04002010901190129004210EA805
:10451000FDF7E2FD002801D072B6FEE714B010BD31
:104520000248016841F470010160704788ED00E0C5
:104530000148FEF703BD0000080100202DE9F0430B
:104540000268264C264D274E274B4FF08049A0424B
:1045500007D0484505D0A84203D0B04201D09842C8
:1045600003D122F070074A683A43204FDFF880C039
:10457000DFF88080A0420DD048450BD0A84209D07A
:10458000B04207D0984205D0B84203D0604501D070
:10459000404503D122F44075CA682A434D6922F090
:1045A00080022A4302608A68C2620A688262A0426C
:1045B00007D0984205D0B84203D0604501D04045AD
:1045C00001D109690163012141610169C90703D072
:1045D000016921F001010161BDE8F083002C014077
:1045E0000004004000080040003401400040014049
:1045F000004401400048014010B501F01F010123B3
:10460000046A8B409C430462036A8A40134303623A
:1046100010BD10B5846842EA032224F47F440A43A3
:104620002243826010BD00008268034B1A400A4397
:1046300042F00701816070478FFFCFFF2DE9F04303
:10464000056A026A22F001020262426883691C4C18
:1046500025F0020523400C6823F003031C438B68FC
:10466000194E2B43174D194FDFF864C0DFF86490E3
:10467000A84207D0B04205D0B84203D0604501D06F
:10468000484506D123F00808CB6843EA080323F025
:104690000403A84207D0B04205D0B84203D0604519
:1046A00001D0484505D14D6922F4407215438A690D
:1046B0002A4342608461496841630362BDE8F08334
:1046C0008FFFFEFF002C01400034014000400140FC
:1046D0000044014000480140F0B5046A026A22F03B
:1046E0001002026242688369194D1B4E2B400D680F
:1046F00023F4407343EA052524F020038C6843EA41
:104700000413144CA04201D0B04206D1CF6823F06C
:10471000800343EA071323F04003A0420AD0B042CB
:1047200008D00E4CA04205D00D4CA04202D00D4C3A
:10473000A04207D14C6922F4406242EA84028C69AB
:1047400042EA840242608561496881630362F0BD88
:10475000FF8FFFFE002C014000340140004001406B
:104760000044014000480140F0B5056A026A22F4A5
:10477000807202624268C369194C1B4E23400C6868
:1047800023F003031C4325F400738D6843EA0523DB
:10479000144DA84201D0B04206D1CF6823F4006383
:1047A00043EA072323F48063A8420AD0B04208D02A
:1047B0000E4DA84205D00E4DA84202D00D4DA84284
:1047C00007D14D6922F4405242EA05128D6942EA4E
:1047D00005124260C4614968C1630362F0BD000014
:1047E0008FFFFEFF002C01400034014000400140DB
:1047F0000044014000480140F0B5046A026A22F416
:10480000805202624268C369194D1B4E2B400D68ED
:1048100023F4407343EA052524F400538C6843EAEB
:104820000433144CA04201D0B04206D1CF6823F427
:10483000004343EA073323F48043A0420AD0B04246
:1048400008D00E4CA04205D00D4CA04202D00D4C19
:10485000A04207D14C6922F4404242EA84128C699A
:1048600042EA84124260C561496801640362F0BD96
:10487000FF8FFFFE002C014000340140004001404A
:10488000004401400048014030B5046A026A22F445
:10489000803202624268036D114D2B400D681D434A
:1048A00024F400330C8943EA04430E4CA0420BD09D
:1048B0000D4CA04208D00D4CA04205D00C4CA0429B
:1048C00002D00C4CA04204D14C6922F4803242EA5E
:1048D00004224260056549688164036230BD0000BE
:1048E0008FFFFEFF002C01400034014000400140DA
:1048F000004401400048014030B5046A026A22F4D5
:10490000801202624268036D114D24F400142B40A2
:104910000D6843EA05230D8944EA05540D4DA8426C
:104920000BD00D4DA84208D00C4DA84205D00C4D1F
:10493000A84202D00B4DA84204D14D6922F4802236
:1049400042EA8522426003654968C164046230BD61
:10495000FF8FFFFE002C0140003401400040014069
:10496000004401400048014010B5046A036A23F086
:1049700001030362836923F0F00343EA021324F086
:104980000A020A438361026210BD10B5036A046A19
:1049900024F010040462846923F0A00324F470441A
:1049A00044EA023243EA01118261016210BD000053
:1049B00030B5416EB9B1026891689268C1F3426145
:1049C0000B4C520FA35CDD0004F108039A5CB5FBAD
:1049D000F2F2A0F86A20625C595CD200B2FBF1F1FD
:1049E000A0F8681030BD0121A0F86A10F8E70000B7
:1049F0008659000890F82810090706D501684A680A
:104A0000836B22F400421A434A6090F82810C907C9
:104A100006D001684A68C36A22F400321A434A6029
:104A200090F82810890706D501684A68036B22F4BC
:104A300080321A434A6090F82810490706D5016869
:104A40004A68436B22F480221A434A6090F8281087
:104A5000C90606D501688A68C36B22F480521A43DE
:104A60008A6090F82810890606D501688A68036C68
:104A700022F400521A438A6090F82810490611D592
:104A800001684A68436C22F480121A434A60416C00
:104A9000B1F5801F06D101684A68836C22F4C00218
:104AA0001A434A6090F82810090606D501684A683A
:104AB000C06C22F4002202434A6070472DE9F8439B
:104AC00000250446C0F89050FDF7BAF880462068EB
:104AD00000684FF0200600076FF07E4713D543466D
:104AE000002231042046009700F0A0F958B1206858
:104AF00050E8001F21F0800140E80012002AF6D1A2
:104B0000C4F8886021E020680068400722D5434649
:104B100000224FF480012046009700F087F9C8B1C9
:104B2000206850E8001F21F4907140E80012002A2C
:104B3000F6D12068083050E8001F21F0010140E85C
:104B40000012002AF5D1C4F88C6084F88450032048
:104B5000BDE8F883C4F88860C4F88C6044F86C5FE2
:104B6000656025760020F3E710B5016851E8002F55
:104B700022F4907241E80023002BF6D10E4B01681D
:104B8000083151E8002F1A4041E80024002CF6D1EA
:104B9000C16E012908D1016851E8002F22F01002EE
:104BA00041E80023002BF6D12021C0F88C10002111
:104BB000C166416710BD0000FEFFFFEF2DE9F04127
:104BC000044600682269A168E6691143626900250C
:104BD000324311438A4B02688A4E32400A430260D4
:104BE00020684168E26821F4405111434160216826
:104BF000A069994201D0226A10438A68824E3240ED
:104C000002438A602068C16A626A21F00F01114381
:104C1000C1627E4922687E488A420DD1D0F8880060
:104C200010F0030006D0012855D0022842D00328F6
:104C30003FD152E001203DE076498A420BD1D0F8C5
:104C4000880010F00C0035D0042833D0082840D05C
:104C50000C282ED141E070498A420BD1D0F888004F
:104C600010F0300026D0102835D0202831D0302840
:104C70001FD132E069498A420BD1D0F8880010F088
:104C8000C00017D0402826D0802822D0C02810D1BC
:104C900023E09A420DD1D0F8880010F4406009D08A
:104CA000B0F5806F17D0B0F5006F12D0B0F5406F3F
:104CB00013D010205A495B4E00274FF4004C9A4203
:104CC0003BD160B1022813D004280BD0082872D140
:104CD0000DE00220EEE70420ECE70820EAE7FDF70C
:104CE000E1FA01E0FDF702FB010001D17CE0614641
:104CF000606A36F810206668B1FBF2F006EB4603F6
:104D0000834270D8B0EB063F6DD8002308461946A1
:104D1000FBF780FA090241EA1061020270081018DC
:104D2000794132460023FBF775FA3F4AA0F54071FE
:104D3000914258D82168C86056E0E2694FF6EF7892
:104D400062452CD109284ED2DFE800F00508114D4C
:104D50000D4D4D4D1000FDF7A5FA01E0FDF7B4FA39
:104D6000010004D140E0FDF7C1FAF9E76146606A4D
:104D700036F81000B1FBF0F04100606801EB500123
:104D8000B1FBF0F0A0F1100141452CD84FF6F071C5
:104D90000140C0F3420001432068C16024E00928BB
:104DA00021D2DFE800F0050912200E20202011009A
:104DB000FDF778FA02E016E0FDF786FA010004D16B
:104DC00012E0FDF793FAF9E76146606A36F81000E1
:104DD000B1FBF0F1606801EB5001B1FBF0F0A0F124
:104DE000100141450AD901250120A4F86A0024F8E0
:104DF000680F2846E7602761BDE8F08180B299E737
:104E000000800040F369FFCFFFF4FF11003801403C
:104E1000001002400044004000480040004C0040A8
:104E20000024F4006E590008FFFC0F002DE9F04744
:104E30001F4690460D4604464FF00009089E32E09A
:104E4000701C30D0FCF7FCFEC01BB04218D8BEB1BD
:104E500020680168490726D5802D24D0402D22D016
:104E6000C169C94309070DD4082505622046FFF72B
:104E70007BFEC4F8905084F884900120BDE8F08750
:104E80000320FBE7C069C04300050CD421684FF440
:104E9000006008622046FFF767FE2020C4F89000FB
:104EA00084F88490ECE72068C06935EA000004D0FB
:104EB00000204045C4D00020E0E70120F9E7FEE7EC
:104EC000074908880A2803D0142808D10A2005E0D9
:104ED0004888142803D30020488014200880704795
:104EE0002400002003B401984100009850EAC1203A
:104EF00018BF04204A0D18BF40F0010040F2FF72B5
:104F0000B2EB515F08BF40F00200012808BF052046
:104F100002B070470907090E002804DB00F1E02009
:104F200080F80014704700F00F0000F1E02080F8D6
:104F3000141D70470000000010B52F499FED2C1B79
:104F40002DED020B84B0059820F000408842D8BFB8
:104F50009DED040B2DDD2949884209D1049840B903
:104F60004FF0010000F0D4FC00F0A2FC06B010BD30
:104F700005DB9DED040B00F08FFC06B010BD68460C
:104F80009DED040B00F0A0F810F0030004BF9DEDB0
:104F9000021B9DED000B0CD001280ED09DED021BD5
:104FA0009DED000B022817D0012000F0DDFB06B0BC
:104FB00010BD00F0A5FA06B010BD9DED021B9DEDE1
:104FC000000B012000F0D0FB51EC100B81F00041F0
:104FD00006B041EC100B10BD00F092FA51EC100B32
:104FE00081F0004106B041EC100B10BD0000000044
:104FF0000000000000000000FB21E93F0000F07FFE
:1050000010B52F499FED2C1B2DED020B84B0059898
:1050100020F000408842DCBF00209DED040B32DD13
:105020002849884209D1049840B94FF0010000F0A6
:105030006FFC00F03DFC06B010BD05DB9DED040BE0
:1050400000F02AFC06B010BD68469DED040B00F090
:105050003BF810F0030011D0012818D09DED021B81
:105060009DED000B02281AD000F04AFA51EC100B0B
:1050700081F0004106B041EC100B10BD9DED021B0C
:105080009DED000B012000F06FFB06B010BD9DED03
:10509000021B9DED000B00F033FA06B010BD01209D
:1050A00000F062FB51EC100B81F0004106B041ECC6
:1050B000100B10BD00000000000000000000000008
:1050C000FB21E93F0000F07F2DE9F14F04462DED73
:1050D000020B2DED088B8AB09FEDE70B80ED020BE4
:1050E000139EE74826F0004585420ADC9DED120B31
:1050F000002084ED000B0AB0BDEC088B03B0BDE8C6
:10510000F08FE0489FEDE0AB9FEDE1BBA84247DDAB
:10511000E14F9FEDE39B9FEDE48B9DED120B53EC74
:105120001A2B51EC100B002E1CDDFBF7BEFA41ECE4
:10513000100BBD4208D053EC1B2B51EC100BFBF7AE
:10514000B4FAC4E900010BE053EC192B51EC100B3D
:10515000FBF7ABFA53EC182BFBF7A7FAC4E90001F5
:105160000120C8E7FBF700FA41EC100BBD4208D064
:1051700053EC1B2B51EC100BFBF7F6F9C4E90001C3
:105180000BE053EC192B51EC100BFBF7EDF953EC42
:10519000182BFBF7E9F9C4E900014FF0FF30AAE74B
:1051A000C348A84279DB9DED120B51EC100B00F0C7
:1051B000B5FB41EC180B9FEDC00B53EC102BFBF72C
:1051C0006CF89FEDBF1B53EC112BFBF7CDF9FBF7F0
:1051D000FFFA0746FBF7DEFA41EC190B53EC1A2BEA
:1051E000FBF75BF853EC182BFBF762FA41EC180B5A
:1051F00053EC1B2B51EC190BFBF74FF8DFF8C8A24F
:1052000041EC100B4FEA15580125FA4453EC102BD2
:1052100051EC180BFBF749FA032DC4E900013DD00E
:10522000C1F30A5005EB4511A8EB0000113981428A
:1052300034DA0AEB051BB0EE48AA9BED000BF0EE4A
:1052400068AA53EC102B51EC190BFBF726F841EC34
:105250001B0B51EC1A0B53EC1B2BFBF726FA41EC02
:10526000180B51EC1A0B53EC182BFBF71EFA53ECEE
:105270001B2BFBF71AFA9BED020B41EC1A0B53ECBC
:10528000102B51EC190BFBF708F853EC1A2BFBF71A
:105290000CFA41EC100B6D1CB8E70EE0002EA8BF15
:1052A0003846BFF628AF94ED000B51EC100B81F09F
:1052B0000041C4E9000178421DE7C6F3130040F441
:1052C000801EC6F30A50A0F2F530471100F01F050A
:1052D000C5F12000DDF848B0089000200690079046
:1052E0000520EC467949002D07EB0002794408BF00
:1052F00051F8221009D051F8223001EB8201AB4065
:105300004A68089922FA01F11943A1FB0E26A1FB74
:105310000B131A449A4234BF0123002303EB0608FF
:105320000CEB8003D3E901A60E448E4234BF012169
:10533000002192448A4411B1924502D903E092457A
:1053400001D2012100E00021C3E901A641444CF84B
:105350002010011EA0F10100C4DC029800F10050F1
:10536000850F0298DDE903678000DDF81480FBF704
:1053700011FA41EC1A0B3046FBF71DFA9FED541B56
:1053800053EC112BFAF789FF41EC1B0B3846FBF766
:1053900012FA9FED511B53EC112BFAF77EFF41ECF3
:1053A000180B4046FBF707FA9FED4D1B53EC112BF2
:1053B000FAF773FF41EC190B51EC180B53EC192B56
:1053C000FBF7D2F853EC1B2BFBF7CEF853EC1A2B60
:1053D000FBF7CAF8CDE90801002008909DED080B05
:1053E00053EC1A2B51EC100BFBF75FF953EC1B2B12
:1053F000FBF75BF953EC182BFBF757F953EC192B20
:10540000FBF756F99FED381B53EC112BFAF745FFCC
:105410009FED370B41EC180B53EC102B9DED080B57
:1054200051EC100BFAF739FF53EC182BFBF79CF8F3
:105430009FED310B41EC180B53EC102B9DED080B3D
:1054400051EC100BFAF729FF53EC182BFBF78CF8F3
:1054500041EC100B139810F0004F06D06D4251EC48
:10546000100B81F0004141EC100B284684ED000B3D
:1054700041E6000000000000000000000000000005
:10548000FB21E93F7CD9024000004054FB21F93F59
:105490003163621A61B4D03DFB21F93F0000000086
:1054A0000000601A61B4D03D7370032E8A19A33BCB
:1054B000FB2139410000000083C8C96D305FE43F23
:1054C000000000000000E03FA2400000F03F0000AC
:1054D000000000000000103E000000000000103C32
:1054E000000000000000103A182D4454FB21F93D43
:1054F0003326A611460B113C00000054FB21F93D58
:1055000010B52DED040B2DED088B82B0B0EE419A55
:10551000F0EE619A0B9820F000449FED4BABB4F194
:10552000795F11DA9DED0A0B51EC100BFBF750F986
:10553000002801BFB0EE4A0AF0EE6A0A02B0BDECE4
:10554000088B04BF04B010BD9DED0A0B53EC102B6B
:1055500051EC100BFAF7A1FE41EC180B3C48062168
:10556000B0EE480AF0EE680A784400F081F853EC97
:10557000182B51EC100BFAF790FE9DED0A0B41EC45
:105580001B0B53EC192B51EC100BFAF786FE41EC78
:10559000190B53EC1B2B51EC180BFAF77EFE53EC56
:1055A000192BFBF782F89FED2C0B41EC190B53ECF8
:1055B000102B51EC180BFAF770FE41EC100B284839
:1055C000844210DA53EC192B51EC100BFBF76DF8F9
:1055D00053EC1A2BFBF76CF841EC100B02B0BDEC4E
:1055E000088B04B010BD1F48A042BCBF9FED1E1B1E
:1055F0008DED001B06DBA4F500100190002000904B
:105600009DED001B51EC100B53EC112BFBF74DF8EB
:105610009DED000B41EC180B53EC102B51EC1A0BC9
:10562000FBF743F841EC1A0B53EC192B51EC180B18
:10563000FBF73BF853EC1A2BFBF73AF841EC100B55
:10564000CCE7000000000000000000000000F03F78
:10565000143D000000000000000000000000E03FDA
:105660003333D33F0000E93F000000000000D23F89
:1056700070B504462DED028B4D1E00EBC500B0EE5B
:10568000408AF0EE608A90ED000B35F0060017D0EE
:1056900053EC182B51EC100BFAF7FFFD41EC100BFB
:1056A0006D1E04EBC50090ED001B51EC100B53EC8C
:1056B000112BFAF759FF41EC100B35F00600E7D13A
:1056C000022D36D0042D1CD0062D1CBFBDEC028B44
:1056D00070BD53EC182B51EC100BFAF7DEFD94ED76
:1056E0000A1B53EC112BFAF73FFF53EC182BFAF778
:1056F000D4FD94ED081B53EC112BFAF735FF41EC68
:10570000100B53EC182B51EC100BFAF7C6FD94ED6F
:10571000061B53EC112BFAF727FF53EC182BFAF763
:10572000BCFD94ED040B53EC102BFAF71DFF41EC7C
:10573000100B53EC182B51EC100BFAF7AEFD94ED57
:10574000021B53EC112BFAF70FFF53EC182BFAF74F
:10575000A4FD94ED001B53EC112BFAF705FFBDECF3
:10576000028B41EC100B70BD31B504462DED040BDE
:105770002DED0A8BB0EE41BAF0EE61BA0B989DEDBB
:105780000A0B20F00040B0F1795F0DDA51EC100BFC
:10579000FFF7A8FB042808BF00F09AF89DED0A0B5C
:1057A000BDEC0A8B05B030BD53EC102B51EC100B47
:1057B000FAF773FD41EC180B9DED0A0B53EC182B17
:1057C00051EC100BFAF769FD41EC190B2C48B0EEC7
:1057D000480AF0EE680A05217844FFF749FF9FED7B
:1057E0002ACBB0EE40AAF0EE60AA9CB353EC1C2B7F
:1057F00051EC190BFAF751FD41EC1C0B53EC1A2B31
:1058000051EC190BFAF749FD9FED210B41EC190BF7
:1058100053EC102B51EC1B0BFAF73FFD53EC192BFB
:10582000FAF743FF53EC182BFAF737FD53EC1B2B19
:10583000FAF73BFF53EC1C2BFAF737FF9DED0A1BE1
:1058400053EC112BFAF734FFBDEC0A8B05B041EC99
:10585000100B30BDFFE753EC1A2B51EC180BFAF785
:105860001CFD53EC1C2BFAF77FFE53EC192BFAF7B7
:1058700014FD9DED0A1B53EC112BFAF775FEE3E7BF
:105880009C3B000000000000495555555555C5BFCB
:10589000000000000000E03F10B553EC102B51EC6D
:1058A000100BFAF761FE41EC100B10BD0000000078
:1058B0009FED050B10B553EC102B51EC100BFAF7C4
:1058C000FAFE41EC100B10BD0000000000000000CB
:1058D0009FED050B10B553EC102B51EC100BFAF7A4
:1058E000DCFC41EC100B10BD0000000000000010BB
:1058F00002E008C8121F08C1002AFAD17047704799
:10590000002001E001C1121F002AFBD170470000F6
:1059100001490860704700003400002082B0CDE9E2
:10592000000121F0004001909DED000B02B051EC10
:10593000100B7047FCF792F9FEF7BFFDFEF7F2F986
:10594000FEF74CF9FEF7A6FAFEF72CFBFEF77AFA03
:10595000FEF75EFBFAF7CEFFFBF714F8FCE7034611
:10596000012000E05843491EC9B2FBD27047010034
:1059700002000400060008000A000C0010002000CD
:10598000400080000001010101030701000008043C
:1059900002040801010100000000000000000102F3
:1059A00003040607080900000000010203040000C8
:1059B00000000000000000000000000004040404D7
:1059C00004000004000014140A000000000000009D
:1059D000000000000A0A1F0A0A1F0A0A0000000449
:1059E0000E1505060C14150E0400000012150D15F9
:1059F0002E2C2A1200000000040A0A36151529165A
:105A00000000020201000000000000000000100879
:105A10000804040404040808100002040408080828
:105A200008080404020000000004150E0E1504000E
:105A3000000000000008083E080800000000000008
:105A40000000000000000202010000000000003F12
:105A50000000000000000000000000000000000244
:105A600000000020101008080404020201000000D9
:105A70000E1111111111110E000000000406040492
:105A80000404040E000000000E1111080402011F9E
:105A9000000000000E11100C1010110E000000008C
:105AA000080C0C0A091F081C000000001F01010F50
:105AB0001110110E000000000C12010D1311110E37
:105AC000000000001E100808040404040000000088
:105AD0000E11110E1111110E000000000E111119FE
